S01A000048657861706F645F436F6E74726F6C6C65722E73726563BE
S21440000088E440201529400011294000112940006D
S214400010112940001129400011294000000000002D
S214400020000000000000000000000000E105400065
S214400030112940000000000081064000E90640000B
S2144000401129400011294000112940001129400083
S2144000501129400011294000112940001129400073
S2144000601129400000000000A532400099034000DE
S21440007000000000112940001129400011294000CD
S214400080AD03400000000000112940001129400047
S2144000901129400011294000112940001129400033
S2144000A01129400011294000000000000000000017
S2144000B000000000312340000000000011294000ED
S2144000C0112940001129400011294000000000007D
S2144000D000000000000000000000000000000000DB
S2144000E045234000112940001129400011294000B5
S2144000F0112940001129400011294000000000004D
S21440010000000000000000001129400011294000B6
S2144001101129400000000000000000000000000020
S21440012011294000112940001129400011294000A2
S2144001301129400000000000000000001129400086
S21440014010B5054C237833B9044B13B10448AFF3CC
S21440015000800123237010BD8C0840200000000062
S214400160F8894000084B10B51BB108490848AFF362
S21440017000800848036803B910BD074B002BFBD02E
S214400180BDE81040184700BF00000000900840201F
S214400190F8894000F88940000000000010B5044689
S2144001A0104B984780232360636843F001036360E5
S2144001B0636843F010036360636823F08003636002
S2144001C000212046084B9847636823F0020363608B
S2144001D0636823F00403636000212046034B98477E
S2144001E010BD00BFC1034000ED03400005044000C1
S2144001F02DE9F04104460D46164615491846154B5E
S2144002009847074600231A4629682046DFF85C8050
S214400210C0470822296820460F4B9847FAB22968FB
S21440022020460E4B98470822296820460C4B984794
S2144002307208296820460B4B984786F0010202F068
S214400240010229682046084B9847BDE8F08100BF68
S21440025000A3E111B10440009D044000C9044000E1
S214400260590440001904400039044000F504400099
S21440027008B5436813F0040F05D009680F290AD85B
S214400280054B984708BD0B68032B04D801219940BD
S214400290C943014B984708BDED03400010B50446DE
S2144002A0236913F4007FFBD00F212046024B98476A
S2144002B04FF08073236010BDED03400022B900204C
S2144002C07047013B05D10FE010B41446013943F6A0
S2144002D09923026912F0020FF3D011F8013FC36070
S2144002E0013CF4D1002001E06FF002005DF8044BC1
S2144002F0704700BF22B900207047013B08D11CE080
S21440030070B415460139FF2640F2012443F699237E
S214400310026912F0020FF0D0C66043F6992301E05E
S214400320013B0DD0026934EA0202F9D1836801F834
S214400330013F013DEAD1002004E06FF0020001E0F9
S2144003406FF0020070BC70472DE9F04104468846C5
S2144003500E4B9847054620460D4B9847054013D010
S2144003600C4C04F1E0072368434508D161682942F4
S21440037005D0E36840469847636825EA0305BC42D3
S21440038002D01034002DEED1BDE8F081AD244000FF
S214400390B1244000A808402008B50B210148024B74
S2144003A0984708BD00100E404903400008B510218C
S2144003B00148024B984708BD00140E4049034000D0
S2144003C008B5074B984203D11520064B984708BD01
S2144003D0054B984202D12A20024B984708BD00BFE1
S2144003E000800040DD25400000800540436823F43F
S2144003F0702343604368090401F470210B43436053
S214400400704700BF436823F07F434360436843EA36
S21440041001614160704700BF32B100EB8100036B61
S21440042043F001030363704700EB8100036B23F046
S21440043001030363704700BF32B100EB8100036BDA
S21440044043F002030363704700EB8100036B23F025
S21440045002030363704700BF042A0AD100EB810001
S214400460036B23F008030363036B43F00403036347
S214400470704752B900EB8100036B23F00803036317
S214400480036B23F0040303637047082A05D100EB8F
S2144004908100036B43F008030363704700EB810160
S2144004A00B6B23F0F0030B630B6B1A430A63704726
S2144004B0431E1944B1FBF0F0431EFE2B94BF00B21E
S2144004C04FF0FF30704700BF6AB110B4144600EBDF
S2144004D081010B6B23F47F430B630A6B42EA0422D1
S2144004E00A63002002E04FF0FF3070475DF8044B8F
S2144004F0704700BF10B400EB8101086B80B2086300
S2144005000C6B44EA036343EA02420A635DF8044B19
S214400510704700BF012904D18268064B13438360AD
S21440052003E08268044B134083600268034B134326
S21440053003607047000010A5FFFFEF5A080000A5B3
S2144005404FF40043436070470D4B1B68B3F1FF3FC9
S2144005500AD04FF0800372B683F31188BFF36F8FD3
S214400560BFF34F8F62B6FEE74FF0800372B683F359
S2144005701188BFF36F8FBFF34F8F62B6FEE700BFA1
S2144005800C00402006480068006880F3088862B681
S21440059061B6BFF34F8FBFF36F8F00DF00BF000021
S2144005A008ED00E0DFF80C00016841F470010160DE
S2144005B07047000088ED00E04FF0807340F8043C40
S2144005C040F8081C054B40F80C3C40F8202C6FF0D7
S2144005D0020340F8243C4438704700BF49054000B9
S2144005E0064B19680868B0E8F04F80F30988BFF3F7
S2144005F06F8F4FF0000080F311887047B0C24020E4
S214400600704700BF4FF0800372B683F31188BFF384
S2144006106F8FBFF34F8F62B60B4A13680133136078
S214400620012B0FD1094B1B6813F0FF0F0AD04FF078
S214400630800372B683F31188BFF36F8FBFF34F8F7B
S21440064062B6FEE7704700BF0C00402004ED00E0B5
S2144006500A4B1B6853B94FF0800372B683F3118878
S214400660BFF36F8FBFF34F8F62B6FEE7013B034A7F
S21440067013600BB983F31188704700BF0C0040200D
S214400680EFF30980BFF36F8F154B1A681EF0100FFB
S21440069008BF20ED108A20E9F04F10604DF8043D69
S2144006A04FF0800072B680F31188BFF34F8FBFF3D0
S2144006B06F8F62B601F05AF94FF0000080F3118850
S2144006C008BC19680868B0E8F04F1EF0100F08BF65
S2144006D0B0EC108A80F30988BFF36F8F704700BF75
S2144006E0B0C24020704700BF08B5EFF311834FF00B
S2144006F0800272B682F31188BFF36F8FBFF34F8FBD
S21440070062B6054B984718B14FF08052034B1A60BB
S214400710002383F3118808BD0116400004ED00E075
S214400720034A044B1A600722043B1A60704700BF16
S214400730DF93040014E000E000B583B0254B1A7840
S214400740D2B20192FF221A701B78DBB28DF80330CA
S2144007509DF8033003F080031F4A137007221F4B97
S2144007601A609DF8033013F0800F10D0062200E088
S2144007700A469DF803305B00DBB28DF803309DF8E7
S2144007800330511E13F0800FF2D1144B1A60134AF7
S21440079013681B0203F4E0631360019BDBB20D4A4F
S2144007A013700F4B1A6842F460021A601A6842F0DF
S2144007B060421A600B4B984700220B4B1A600B4B5B
S2144007C098470B4A136843F040431360094B9847D9
S2144007D0094B984700E400E0980940209C094020D7
S2144007E020ED00E0210740000C004020A505400019
S2144007F034EF00E08505400049054000EFF30583EF
S2144008000F2B11D9124A9B5CDBB2124A12789A42DD
S2144008100AD94FF0800372B683F31188BFF36F8F07
S214400820BFF34F8F62B6FEE70B4B1B6803F4E063E3
S2144008300A4A126893420AD94FF0800372B683F38D
S2144008401188BFF36F8FBFF34F8F62B6FEE77047D6
S214400850F0E300E0980940200CED00E09C094020C1
S21440086038B5044610F0070F02D020F007040834CD
S2144008700E4B98470E4B1B6823B90E4B23F00703CD
S2144008800B4A13600C4B1B681C44A34209D24BF224
S214400890F772944205D8064A15681D44064B1C60FC
S2144008A000E00025054B9847284638BDE515400032
S2144008B0A4C14020AC094020A00940203517400084
S2144008C050B14FF0800372B683F31188BFF36F8F39
S2144008D0BFF34F8F62B6FEE7704700BF00F10803D4
S2144008E043604FF0FF328260C360036100230360C1
S2144008F0704700BF00230361704700BF43684B60EA
S2144009009A688A609A685160996008610368013302
S2144009100360704730B40D68B5F1FF3F01D10269FE
S21440092007E000F1080200E01A4653681C68A5423A
S214400930FAD253684B6099608A60516008610368D8
S2144009400133036030BC7047036942688168916038
S2144009508268416851605A68904201D182685A6004
S21440096000220261186801381860704738B504469E
S2144009701546026C42B90368002B2BD140681B4BCE
S2144009809847002363602CE06DB98068184B984701
S214400990A268236C1344A360626893421CD3236806
S2144009A0A36000201DE0C068114B9847236C5B4253
S2144009B0E2681A44E26021688A4202D262681344BE
S2144009C0E360022D0AD1A36B53B1A36B013BA36333
S2144009D0002006E0002004E0002002E0002000E0C6
S2144009E00020A36B0133A36338BD00BF391D400010
S2144009F09542400030B583B00190446D54B94FF0F5
S214400A00800372B683F31188BFF36F8FBFF34F8FA7
S214400A1062B6FEE7A26BE36B9A420AD34FF08003BE
S214400A2072B683F31188BFF36F8FBFF34F8F62B6F2
S214400A30FEE7A26B934217D90A4601A920460C4B03
S214400A4098470546A36CB3F1FF3F09D1636A63B18B
S214400A5004F12400074B9847002818BF012504E0FE
S214400A60A36C0133A36400E00025284603B030BDE4
S214400A706D094000091B4000026C72B110B5034678
S214400A80C4681444C4604068844201D31868D8607F
S214400A900846D968014B984710BD704795424000BC
S214400AA0F8B50446204B9847A36C002B18DD1F4D25
S214400AB01F4F204E636D33B100212046A8470128C2
S214400AC008D1B84706E0636A53B104F12400B04742
S214400AD000B1B847A36C013BA364A36C002BE9DCD0
S214400AE04FF0FF33A364144B98470F4B9847636C03
S214400AF0002B13DD23691BB910E0236923B90DE0F1
S214400B0004F110060B4D0A4F3046A84700B1B847CF
S214400B10636C013B6364636C002BEEDC4FF0FF3389
S214400B206364054B9847F8BD05064000F50940004C
S214400B30651C4000091B40005106400038B550B9BE
S214400B404FF0800372B683F31188BFF36F8FBFF305
S214400B504F8F62B6FEE704460D46184B984722680C
S214400B60216CE36B03FB01F3D01860600020A063A8
S214400B70A2605B1A1344E3604FF0FF336364A364E0
S214400B8085B92369ABB104F110000D4B9847012895
S214400B900FD14FF080520B4B1A60BFF34F8FBFF30D
S214400BA06F8F06E004F11000074DA84704F12400BB
S214400BB0A847064B9847012038BD00BF05064000B1
S214400BC0091B400004ED00E0DD08400051064000EF
S214400BD0F8B550B94FF0800372B683F31188BFF36F
S214400BE06F8FBFF34F8F62B6FEE7064617460D4639
S214400BF0C1B101FB00F05930144B9847044610B978
S214400C0005E0246015E000F15803036011E04FF062
S214400C10800372B683F31188BFF36F8FBFF34F8F95
S214400C2062B6FEE75820094B984704460028E8D1AC
S214400C30EDE7E663256401212046054B984784F896
S214400C405070002363652046F8BD00BF6108400031
S214400C503D0B40002DE9F04F85B0019250B94FF062
S214400C60800372B683F31188BFF36F8FBFF34F8F45
S214400C7062B6FEE7044661B9026C52B14FF080039B
S214400C8072B683F31188BFF36F8FBFF34F8F62B690
S214400C90FEE7022B0DD1E26B012A0AD04FF080030B
S214400CA072B683F31188BFF36F8FBFF34F8F62B670
S214400CB0FEE71D460091514B984760B9019B63B1D2
S214400CC04FF0800372B683F31188BFF36F8FBFF384
S214400CD04F8F62B6FEE7002700E00027484EDFF859
S214400CE04C91DFF82881B047A26BE36B9A4201D360
S214400CF0022D33D12A4600992046424B9847636DD1
S214400D0073B129462046404B9847012822D14FF0E0
S214400D1080523E4B1A60BFF34F8FBFF36F8F19E080
S214400D20636A73B104F12400394B9847012811D106
S214400D304FF08052354B1A60BFF34F8FBFF36F8F23
S214400D4008E038B14FF08052304B1A60BFF34F8FF7
S214400D50BFF36F8F2F4B984701204BE0019B1BB989
S214400D602C4B9847002045E017B902A8C8470127F2
S214400D70284B9847284B9847B047636CB3F1FF3FE2
S214400D8001D100236364A36CB3F1FF3F01D100237C
S214400D90A364204B984701A902A8204B984718BB4C
S214400DA0B047D4F838B0D4F83CA01A4B9847D3454F
S214400DB014D1019904F11000194B98472046194B5D
S214400DC09847194B984700288DD14FF08053C8F864
S214400DD00030BFF34F8FBFF36F8F84E72046114B31
S214400DE09847114B98477EE720460E4B98470E4B48
S214400DF09847002005B0BDE8F08F00BF711C40004A
S214400E00050640006D094000F509400004ED00E08D
S214400E10091B400051064000E5154000D11B40002C
S214400E20051A4000A10A400035174000A11B4000AB
S214400E3070B506465820114B98470446D8B1002551
S214400E40456005608560C56085630123C3630564AE
S214400E504FF0FF334364836480F85060456510303C
S214400E60074EB04704F12400B0472B462A46294691
S214400E702046044DA847204670BD00BF610840008C
S214400E80DD084000550C400050B94FF0800372B664
S214400E9083F31188BFF36F8FBFF34F8F62B6FEE7C1
S214400EA02DE9F041044661B9006C50B14FF0800323
S214400EB072B683F31188BFF36F8FBFF34F8F62B65E
S214400EC0FEE7022B0DD1E06B01280AD04FF08003DD
S214400ED072B683F31188BFF36F8FBFF34F8F62B63E
S214400EE0FEE71E4615468846214B9847EFF3118786
S214400EF04FF0800372B683F31188BFF36F8FBFF352
S214400F004F8F62B6A26BE36B9A4201D3022E23D177
S214400F10324641462046174B9847A36CB3F1FF3FF5
S214400F2015D1636D43B131462046134B9847ADB15A
S214400F30012813D1286016E0636A8BB104F12400BF
S214400F400E4B984775B168B1012028600BE0A36C42
S214400F500133A364012006E0002004E0012002E003
S214400F60012000E0012087F31188BDE8F08100BF32
S214400F70FD0740006D094000F5094000091B400090
S214400F8050B94FF0800372B683F31188BFF36F8F6A
S214400F90BFF34F8F62B6FEE770B50446036C53B19D
S214400FA04FF0800372B683F31188BFF36F8FBFF3A1
S214400FB04F8F62B6FEE7036863B9436853B14FF09C
S214400FC0800372B683F31188BFF36F8FBFF34F8FE2
S214400FD062B6FEE70D461F4B9847EFF311864FF07B
S214400FE0800372B683F31188BFF36F8FBFF34F8FC2
S214400FF062B6A26BE36B9A4221D2A36B0133A36322
S214401000A36CB3F1FF3F15D1636D43B10021204679
S214401010114B9847ADB1012813D1286016E0636A9A
S2144010208BB104F124000D4B984775B168B101208F
S21440103028600BE0A36C0133A364012006E0002087
S21440104004E0012002E0012000E0012086F3118840
S21440105070BD00BFFD074000F5094000091B400079
S2144010602DE9F04F85B0019250B94FF0800372B62B
S21440107083F31188BFF36F8FBFF34F8F62B6FEE7DF
S214401080044661B9026C52B14FF0800372B683F3E6
S2144010901188BFF36F8FBFF34F8F62B6FEE7984657
S2144010A08B46524B984760B9019B63B14FF0800323
S2144010B072B683F31188BFF36F8FBFF34F8F62B65C
S2144010C0FEE7002600E00026494DDFF854A1DFF891
S2144010D03091A847A36B002B34D0E568594620468C
S2144010E0444B9847B8F1000F18D1A36B013BA3635C
S2144010F0236813B9404B984760602369F3B104F105
S21440110010003E4B9847012818D14FF080523C4B78
S2144011101A60BFF34F8FBFF36F8F0FE0E560636ACF
S21440112063B104F12400354B984738B14FF08052F4
S214401130334B1A60BFF34F8FBFF36F8F314B9847D7
S21440114001204FE0019B1BB92E4B9847002049E0F9
S21440115016B902A8D04701262A4B98472A4B9847EB
S214401160A847636CB3F1FF3F01D100236364A36CCF
S214401170B3F1FF3F01D10023A364224B984701A956
S21440118002A8224B984738BBA847A76B1D4B9847E9
S214401190E7B923682BB9A84760681D4B9847194B99
S2144011A09847019904F124001A4B984720461A4B59
S2144011B098471A4B984700288BD14FF08053C9F870
S2144011C00030BFF34F8FBFF36F8F82E72046124B3E
S2144011D09847124B98477CE720460F4B98470F4B53
S2144011E09847002005B0BDE8F08F00BF711C400056
S2144011F005064000790A4000F91D4000091B4000E2
S21440120004ED00E051064000E5154000D11B4000CB
S214401210911C4000051A4000A10A400035174000C6
S214401220A11B400010B40B4B1B682BB10123094C8B
S21440123054F8332042B900E00023064A42F83310FF
S21440124002EBC303586002E00133082BF0D15DF88F
S214401250044B704790C3402070B504460D46164672
S2144012600D4B9847636CB3F1FF3F01D10023636495
S214401270A36CB3F1FF3F01D10023A364074B98470B
S214401280A36B2BB93246294604F12400044B9847F9
S2144012902046044B984770BD050640005106400066
S2144012A0891A4000A10A4000084B1B681B6823B9F6
S2144012B04FF0FF32064B1A607047044B1B68DB68E2
S2144012C0DB685A68024B1A60704700BFACC14020CA
S2144012D0D0C2402010B50F4B1B6858600E4B1B68A1
S2144012E0984207D20D4B18680A4B196804310C4BCC
S2144012F0984710BD04460B4B1868064B19680431D6
S214401300074B9847084B1B689C4201D2064B1C6013
S21440131010BD00BFB0C24020CCC24020CCC140204F
S21440132015094000ACC14020D0C240202DE9F04F06
S21440133083B00C9FDDF834A00E9D50B94FF080036B
S21440134072B683F31188BFF36F8FBFF34F8F62B6C9
S214401350FEE7092F0AD94FF0800372B683F311884F
S214401360BFF36F8FBFF34F8F62B6FEE701900093D7
S21440137090460E4635B990005F4B98470546002884
S21440138000F0B48058205C4B98470446A0B10563F3
S2144013904FEA8802A5212846584B98476FF04045AB
S2144013A04544236B03EB850323F00705337884F825
S2144013B03430337823B90FE02846514B984795E0B0
S2144013C0334604F13402093613F8011F02F8011FB0
S2144013D0197809B19E42F7D14FF0000884F83D8055
S2144013E03E46092F28BF0926E662A664C4F84C800C
S2144013F004F104094846DFF854B1D84704F1180010
S214401400D8472461C6F10A06A6616462C4F85080D3
S21440141084F85480009A019928463A4B98472060B1
S214401420BAF1000F01D0CAF80040374B9847374A08
S214401430136801331360364B1B680BBB344B1C6080
S2144014401368012B26D1334D05F1C808324E284685
S214401450B04714354545FAD1DFF8F48040462E4D66
S214401460A8472E4E3046A8472D48A8472D48A8479F
S2144014702D48A8472D4BC3F800802D4B1E6009E031
S2144014802C4B1B6833B9224B1B68DB6A9F4201D347
S2144014901F4B1C60284A1368013313602364E06ABC
S2144014A026490B680122824013430B6000EB800004
S2144014B04946184B03EB8000214B9847214B9847F1
S2144014C01C4B1B6873B1124B1B68DB6A9F420BD9DF
S2144014D04FF080521C4B1A60BFF34F8FBFF36F8F95
S2144014E0012005E0012003E0012001E04FF0FF303D
S2144014F003B0BDE8F08F00BF61084000C94340001C
S214401500C1084000B905400005064000D8C240204A
S214401510B0C24020D4C14020DD084000DCC240209C
S214401520B4C240209CC24020F0C24020ACC1402003
S214401530CCC14020B0C14020D4C2402004C340208B
S214401540FD0840005106400004ED00E0F50840006C
S214401550B8C1402010B584B0002303930293019392
S2144015600093822217491848184CA04701281AD1E0
S214401570174B9847012816D14FF0800372B683F375
S2144015801188BFF36F8FBFF34F8F62B64FF0FF32B5
S214401590104B1A600122104B1A6000220F4B1A6043
S2144015A00F4B98470BE050B94FF0800372B683F369
S2144015B01188BFF36F8FBFF34F8F62B6FEE704B05C
S2144015C010BD00BF9C844000DD1840002D13400035
S2144015D0E11E4000D0C24020B0C14020CCC24020D6
S2144015E039074000024A136801331360704700BF52
S2144015F0C8C24020014B1868704700BFCCC240208C
S2144016002DE9F0473D4B1B68002B6AD13C4B1A68CE
S21440161001321A601E68D6B93A4B1B681B6853B134
S2144016204FF0800372B683F31188BFF36F8FBFF31A
S2144016304F8F62B6FEE7334A1168334B1868106026
S2144016401960324A136801331360314B9847314B67
S2144016501B689E4201D2002437E00024DFF8A490A5
S214401660DFF8CC802C4FD9F800301B6823B94FF0F8
S214401670FF32284B1A6028E0D9F80030DB68DD6876
S2144016806B689E4202D2234A13601EE005F1040AAC
S2144016905046C047AB6A13B105F11800C047E86A28
S2144016A03B680122824013433B6000EB800051467A
S2144016B01A4B03EB80001A4B98471A4B1B68EA6A92
S2144016C0DB6A9A4228BF0124CDE7164B1B68DB6ACB
S2144016D003EB8303114A52F82330022B28BF012420
S2144016E004E0114A13680133136000240F4B1B6853
S2144016F0002B0CBF20460120BDE8F087C8C2402022
S214401700CCC24020ACC14020CCC14020A8C1402023
S214401710A9124000D0C2402004C34020D4C140207B
S214401720FD084000B0C24020D0C1402008C3402041
S214401730490940002DE9F843364B1B6853B94FF032
S214401740800372B683F31188BFF36F8FBFF34F8F5A
S21440175062B6FEE7304B98472E4B1A68013A1A603D
S2144017601B68002B4DD12D4B1B680BBB00244BE058
S214401770FB68DC6804F11800B04704F104084046F2
S214401780B047E06A2B680122824013432B6000EB8F
S2144017908000414609EB8000214B9847214B1B684F
S2144017A0E26ADB6A9A4208D301221F4B1A6004E0C1
S2144017B01E4F1F4E1F4DDFF890903B68002BD7D131
S2144017C01D4B1B687BB11C4B1B6863B11B4E164DF3
S2144017D0194CB04708B101232B602368013B2360B6
S2144017E02368002BF5D1104B1B68012B0BD14FF013
S2144017F08052134B1A60BFF34F8FBFF36F8F012495
S21440180002E0002400E000240E4B98472046BDE846
S214401810F88300BFC8C2402005064000D8C240201A
S214401820FD084000B0C2402008C34020B4C240205B
S2144018304909400004C34020D0C140200116400062
S21440184004ED00E051064000D4C1402010B5002809
S21440185029D00446184B1B6853B14FF0800372B62C
S21440186083F31188BFF36F8FBFF34F8F62B6FEE7E7
S214401870124B9847124B1B681C44124B1868043096
S214401880114B984748B90F4B1A6810490B68D06AF5
S2144018900122824023EA02030B6020460C4B984705
S2144018A00C4B984738B94FF080520B4B1A60BFF339
S2144018B04F8FBFF36F8F10BDC8C24020E515400064
S2144018C0CCC24020B0C240204909400004C340205A
S2144018D0D51240003517400004ED00E080B5184DA5
S2144018E0184FDFF88080184E19E0C0473C68B04774
S2144018F0ACB1164B9847FB68DC68201D144B9847E4
S214401900144A1368013B13602B68013B2B60124B53
S2144019109847206BDFF85090C8472046C8472B684A
S214401920002BE2D10D4B1B68012BDCD94FF08052C7
S2144019300B4B1A60BFF34F8FBFF36F8FD1E700BFDB
S214401940B4C140209CC240203517400005064000E8
S21440195049094000D8C2402051064000D4C140202A
S21440196004ED00E0E5154000C1084000204B1B6830
S2144019701BB101221F4B1A60704700221D4B1A6094
S2144019801D4B1B68B3FA83F3DBB2C3F11F0303EBB3
S21440199083011A4A52F8212052B94FF0800372B69A
S2144019A083F31188BFF36F8FBFF34F8F62B6FEE7A6
S2144019B010B4124A9900C81802EB80004468646864
S2144019C0446002460832944206D1606803EB8301C5
S2144019D00A4A02EB8102506003EB8303074A02EB9C
S2144019E083035B68DA68064B1A605DF8044B704701
S2144019F0C8C2402008C3402004C34020D4C1402071
S214401A00B0C2402038B550B94FF0800372B683F369
S214401A101188BFF36F8FBFF34F8F62B6FEE70C4659
S214401A20114D29681831114B984728680430104BDF
S214401A30984740B92A680F490B68D06A012282400D
S214401A4023EA02030B60B4F1FF3F06D1064B196848
S214401A5004310948094B984738BD094B186820445B
S214401A60084B984738BD00BFB0C24020150940001B
S214401A704909400004C34020F0C24020FD08400011
S214401A80CCC24020D512400050B94FF0800372B609
S214401A9083F31188BFF36F8FBFF34F8F62B6FEE7B5
S214401AA070B515460C46114E31681831104B9847A4
S214401AB0306804300F4B984740B932680E490B687F
S214401AC0D06A0122824023EA02030B60012D06D130
S214401AD0064B196804310948054B984770BD084BBA
S214401AE018682044074B984770BD00BFB0C24020DE
S214401AF0FD0840004909400004C34020F0C2402091
S214401B00CCC24020D512400038B5C368DC6854B912
S214401B104FF0800372B683F31188BFF36F8FBFF325
S214401B204F8F62B6FEE704F118052846144B9847D7
S214401B30144B1B689BB9251D2846114B9847E06AF5
S214401B4011490B680122824013430B6000EB800072
S214401B5029460E4B03EB80000D4B984703E0294681
S214401B600C480B4B98470C4B1B68E26ADB6A9A4260
S214401B7003D90120094B186038BD002038BD00BF8E
S214401B8049094000C8C2402004C34020D4C1402078
S214401B90FD084000B4C24020B0C2402008C34020E8
S214401BA050B94FF0800372B683F31188BFF36F8F3E
S214401BB0BFF34F8F62B6FEE7034A12680260034ADD
S214401BC012684260704700BFA8C14020CCC2402087
S214401BD038B550B94FF0800372B683F31188BFF31F
S214401BE06F8FBFF34F8F62B6FEE7044651B94FF092
S214401BF0800372B683F31188BFF36F8FBFF34F8FA6
S214401C0062B6FEE70D46124B9847124B19682B6892
S214401C10B3F1FF3F13D0104A12682068904202D0BA
S214401C20626891420DD26268881A83420BD9521A72
S214401C3013442B602046094B9847002404E00024B8
S214401C4002E0012400E00124054B9847204638BDB9
S214401C5005064000CCC24020A8C14020A11B400041
S214401C60510640000122014B1A60704708C34020CD
S214401C70054B1B6833B1054B1B68002B0CBF02207D
S214401C800020704701207047B0C14020C8C24020A5
S214401C90002845D038B50346C26A22490968C96A51
S214401CA08A423CD28169002905DB1E490968C96A17
S214401CB0C1F10A01816102EB82021B4901EB8202FB
S214401CC05969914227D11C461D1D2846174B9847F7
S214401CD070B9E36A03EB8301134A52F821203AB9FC
S214401CE013480268012101FA03F322EA0303036062
S214401CF00C4B1B68D86AE0620D490A680123834092
S214401D0013430B6000EB80002946074B03EB800033
S214401D10084B984738BD034A1268D26ADA6238BD23
S214401D20704700BFB0C24020D4C14020490940009F
S214401D3004C34020FD08400000284ED038B5034676
S214401D40284A126890420AD04FF0800372B683F356
S214401D501188BFF36F8FBFF34F8F62B6FEE7C26C3A
S214401D6052B94FF0800372B683F31188BFF36F8F7A
S214401D70BFF34F8F62B6FEE7013AC264C06A996C01
S214401D8088422CD05ABB1C461D1D2846164B9847E9
S214401D9068B9E16A01EB8102144B53F8223033B93B
S214401DA01348036801228A4023EA02030360A06CBA
S214401DB0E062C0F10A03A3610D4A1368012404FAE5
S214401DC000F10B43136000EB80002946074B03EB02
S214401DD08000084B9847204638BD002070470020BA
S214401DE038BD00BFB0C2402049094000D4C14020A1
S214401DF004C34020FD084000054B1B6823B1044B3C
S214401E001A68D36C0133D364014B1868704700BF1F
S214401E10B0C2402008B54160006191420AD8D21A4B
S214401E2083699A4211D2011D0A4B18680A4B98479B
S214401E30002008BD9A4201D2994208D2011D074BA4
S214401E401868054B9847002008BD012008BD0120B2
S214401E5008BD00BF40C34020150940000CC34020C9
S214401E6070B5144B9847144B1B6803BB134D28465C
S214401E70134EB047134C2046B047134B1D60134BD0
S214401E801C60002210210520114B98470A4B186011
S214401E9050B94FF0800372B683F31188BFF36F8F4B
S214401EA0BFF34F8F62B6FEE70A490B4B98470B4B82
S214401EB0984770BD050640003CC3402010C34020F4
S214401EC0DD08400024C340200CC3402040C34020CF
S214401ED0D10B4000B484400025124000510640001B
S214401EE010B584B00F4B98470F4B1B6863B1002367
S214401EF0039302930193092200924FF482720B4996
S214401F000B480C4CA04750B94FF0800372B683F391
S214401F101188BFF36F8FBFF34F8F62B6FEE704B0F2
S214401F2010BD00BF611E40003CC34020BC84400042
S214401F30652040002D13400050B94FF0800372B624
S214401F4083F31188BFF36F8FBFF34F8F62B6FEE700
S214401F5030B585B0154604460F4A1068C0B11A46DB
S214401F6000910195029405290DDC0C4B98470228F8
S214401F704FF000030CBF089A1A46694606480068A8
S214401F80074CA04705E000236946064CA04700E002
S214401F90002005B030BD00BF3CC34020711C40004F
S214401FA0550C4000890E40002DE9F04782B080462F
S214401FB0254B98470746254B1B6898423BD22BE05B
S214401FC0DB68D3F800A0DC6804F104094846B04753
S214401FD0636A20469847E369012B1FD1A36953449F
S214401FE09A4506D26360246149462868184B98474C
S214401FF014E0002100910B4652462046154CA0475F
S21440200060B94FF0800372B683F31188BFF36F8FC9
S214402010BFF34F8F62B6FEE70F4D104E2B681A681F
S214402020002ACDD10E4A10680B4908601360012380
S214402030C8F8003002E00023C8F80030034B1F60A9
S214402040384602B0BDE8F087F515400038C340205A
S21440205015094000391F40000CC340204909400084
S21440206040C340202DE9F04389B0684CDFF8CC816E
S214402070674D684B1B681A68002A00F0B580DB681D
S2144020801E68654B984704A8644B98470746049BD0
S214402090002B44D1B04230D3614B98475D4B1B6810
S2144020A0DB68D3F80C9009F104005E4B9847D9F8EA
S2144020B01C30012B1CD1D9F8181033463A4631440F
S2144020C04846594FB847012812D1002100910B4687
S2144020D032464846554EB04750B94FF0800372B628
S2144020E083F31188BFF36F8FBFF34F8F62B6FEE75F
S2144020F0D9F82430484698476DE00022F11B206806
S2144021004B4B9847464B9847002864D14FF0805336
S214402110C8F80030BFF34F8FBFF36F8F5BE0404B84
S214402120984758E0049B002B06DA07990698059BCB
S2144021309847049B002B4FDB069E73690BB1301DFE
S214402140B84703A8354B9847049B092B44D8DFE88B
S21440215003F0050505432A3F0505432A059FB16957
S2144021603B460246394430462F4FB847012832D1C5
S214402170736A30469847F369012B2CD1B269002127
S21440218000910B46059802443046284EB04710BB97
S2144021904FF0800372B683F31188BFF36F8FBFF39F
S2144021A04F8F62B6FEE70599B16151B94FF0800393
S2144021B072B683F31188BFF36F8FBFF34F8F62B64B
S2144021C0FEE70346024601443046174EB04702E05B
S2144021D03046184B9847134F00231A4604A92068E8
S2144021E0A84700289ED144E70B4B984704A80B4BC2
S2144021F098470746049B002B91D10F4B1B681A68E3
S214402200B2FA82F25209002678E700BF3CC340206B
S214402210611040000CC34020E5154000A91F400057
S2144022203517400049094000151E4000391F400040
S21440223059124000C108400040C3402004ED00E071
S21440224010B51048104B98473E2100200F4B98473A
S2144022500F4CA0470028FCD00E4B98470E4A0F4B19
S2144022609A620F4CA0470028FCD002200D4B98479E
S21440227000200D4B98470D4B98470248024B984715
S21440228010BD00BF00A3E111BD2A40005925400003
S214402290AD254000BD254000013F182000060E40F9
S2144022A0CD254000B5244000F1244000AD29400033
S2144022B070B582B0026BC36A1340019300241A4E75
S2144022C01A4DA84214BF0020012005010B2C0AD845
S2144022D0019A0123A340134220D02B1956F82330ED
S2144022E0E3B198471AE00E2C0CD8019A04F10C0181
S2144022F001238B40134211D02B1956F823306BB173
S21440230098470BE0019A04F10F0101238B401342DA
S21440231004D02B1956F8233003B198470134102CBB
S214402320D4D102B070BD00BFD0C3402000400640AC
S21440233008B50248024B984708BD00BF00C003409E
S214402340B122400008B50248024B984708BD00BF7E
S21440235000400640B1224000C0F8841052004FF4BE
S2144023600043B3FBF2F2013AC2F30D02C0F88C20F0
S214402370704700BF01637047416370474264B1F1E4
S214402380C05F2FD007D8B1F1006F14D0B1F1805F95
S2144023901ED039B97047B1F1205F37D004D8B1F1BB
S2144023A0005F29D042607047B1F1405F2ED0B1F156
S2144023B0605F2BD0F6E710B4046F016FD343214023
S2144023C019400167446F416F21400B4043671AE054
S2144023D0036F13430367416F436F0B4023EA0203C7
S2144023E04367DFE7016F036F0B4023EA020303678F
S2144023F0436F13434367D5E7036F13430367436F46
S21440240013434367CEE742605DF8044B704700BF16
S214402410416412F0010F01D0416600E0016612F0FF
S2144024200A0F01D0016200E0416212F0020F02D0B2
S214402430C0F8801004E012F0080F01D0C0F88410F5
S21440244041610160704700BF10B44164019C0CB10B
S214402450416600E001660BB1016500E041650AB1E6
S214402460016300E04163016101605DF8044B704721
S21440247012F0100F12D0C0F8B01012F0200F02D099
S214402480C0F8D41001E0C0F8D01012F0400F02D0CF
S214402490C0F8C0107047C0F8C4107047C0F8B410F9
S2144024A0704700BFC36C0164704700BFC06C704784
S2144024B0806C7047032807D0042808D002280CBF39
S2144024C04FF48072002204E04FF4407201E04FF473
S2144024D0007206490B6B23F4407313430B630A46A2
S2144024E0936E13F0080FFBD0704700BF00060E40F7
S2144024F0184A136B23F0700318431063936E13F05F
S214402500080F03D009E0013B03D11EE04FF40063FF
S21440251010498A6E12F0080FF5D00E4A136B23F05E
S214402520030343F002031363906E10F0080004D0D8
S21440253000207047013B03D109E04FF40063054992
S2144025408A6E12F0080FF5D07047012070470120C0
S214402550704700BF00060E4038B10E490B6A0E4A5F
S2144025601A400E4B13430B6270470A48036A09022F
S21440257089B20B4A1A400B4B134319430162024679
S214402580936E13F0010FFBD0024A116A064B0B43C1
S2144025901362704700060E40FCFFC8FE020037017B
S2144025A0FCFFC8FF0100370000003701024B986E61
S2144025B000F48030704700BF00060E404FF00052D7
S2144025C0014B9A62704700BF00060E40024B986E61
S2144025D000F00200704700BF00060E403F281ED89D
S2144025E01F280CD8114B9A6901238340934318D077
S2144025F0012303FA00F00D4B186100207047203885
S2144026000A4BD3F808210123834093430BD0012380
S21440261003FA00F0054BC3F8000100207047012084
S2144026207047002070470020704700BF00060E40ED
S21440263010B4AC2303600B684A68B3FBF2F31B0983
S2144026405C1E4FF6FE72944206D803628B68436067
S21440265050230360002000E001205DF8044B7047E3
S21440266040230360704700BF10230360704700BFDD
S21440267050230360704700BF816070474069C0F3D5
S2144026804000704701627047436913F0020F02D062
S214402690C161002070470120704700BF2DE9F04F10
S2144026A087B000216848694B9847694B9847694B03
S2144026B003AC93E8070084E807000820664EB0475E
S2144026C00820B04721466548654B98476348654BA8
S2144026D098476248644B98476048644B98475321F4
S2144026E05E48634B98470A20B04730224FF0C051AF
S2144026F06048DFF80CB2D8475F48604DA8471020C6
S214402700B04700240094234622464FF000415C48E0
S214402710DFF8F0A1D0470094234622464FF0806170
S2144027205748D0475748A8471520B0471020B047CD
S2144027300B20B0470DF1180949F8104DDFF8C88155
S2144027404046514B98470094504B22464946404697
S2144027504F4FB8470127C8F80070494640464D4B92
S21440276098474FF4E0024FF080514548D84708F567
S214402770592804224FF000514046D8474648A847BB
S2144027804648A84700942346224639464046D04706
S21440279039464046424B984739464046414B984713
S2144027A0DFF868814046404CA047404B984740463B
S2144027B0A0473F4B98473F48A8473F48A8473F4811
S2144027C03F4B98473F48A8473F48A8473F4B1F7056
S2144027D0BFF35F8F62B63E48A8470A20B0473D4EDB
S2144027E00922314623483C4B9847642231462148CB
S2144027F03A4B98473A48A84739461848394B98477D
S214402800394C4FF48073C4F88031C02784F808737D
S21440281023603648A8474FF48065C4F88050C4F813
S214402820805184F80A7331461248314B98475022FB
S21440283030491048304EB047402230490D48B047E6
S214402840256007B0BDE8F08F10180E401505400013
S21440285041224000C4844000DD254000000A0E406E
S214402860312640007126400061264000692640001F
S21440287085264000000E0E40D0844000652B400068
S21440288000140E40348540009D0140000024F400B2
S214402890F1014000710240005485400074854000BC
S2144028A0752340007923400001004020912D4000D0
S2144028B09D2F400098854000BC85400050180E4033
S2144028C041054000E085400004864000100040205E
S2144028D02C86400000F8DF011124400059234000B8
S2144028E0548640007926400000E100E080864000A3
S2144028F0A5244000003804017124400000C0DB00DD
S2144029007D234000492440000080004084B70700F3
S214402910FEE700BF08B5194B194A9A4203D0194B37
S214402920164A9A4204D3184B184A9A420FD31AE0D2
S2144029301249174B5B1A23F003030433104A13441F
S21440294052F8040B41F8040B9A42F9D1EBE7114BCD
S214402950114AD21A22F003021A44043B002143F8DB
S214402960041B9342FBD10D4A0D4B23F07F0393602B
S2144029700C4B98470C4B9847FEE700BF00004020A2
S214402980F88940008C08402084C440208C084020B1
S2144029908B0840209008402087C4402000ED00E08F
S2144029A00000400045424000FD3140003C4B1B6B60
S2144029B003F00303012B0FD013B1022B29D057E0AD
S2144029C0384B5B6913F0800F14BF4FF400424FF44E
S2144029D0FA42354B1A604BE0314B1B6A13F0807F4E
S2144029E003D0324A304B1A6042E0314A2E4B1A60CE
S2144029F02B4B1B6A03F07003102B02D0202B04D005
S214402A0036E02C4A284B1A6032E0284A264B1A6099
S214402A102EE0234B1B6A13F0807F03D0234A224BC1
S214402A201A6012E0224A204B1A601D4B1B6A03F0C4
S214402A307003102B02D0202B04D006E01D4A1A4B00
S214402A401A6002E0194A184B1A60154B1B6B03F0CC
S214402A500303022B0CD1124A936A926A1248C3F3BC
S214402A600A41036801FB0333D2B2B3FBF2F30360BF
S214402A700B4B1B6B03F07003702B07D10A4A13688D
S214402A800D49A1FB03135B0813607047044B1B6B97
S214402A900549C3F302120B68D3400B60704700BF72
S214402AA000060E4010180E4014004020001BB700D1
S214402AB000093D0000127A00ABAAAAAA124B98421F
S214402AC004D84FF08062114B1A607047104B984202
S214402AD003D8104A0D4B1A6070470F4B984203D8E4
S214402AE00E4A0A4B1A6070470D4B984203D80D4A5F
S214402AF0064B1A6070470C4B984294BF4FF0042226
S214402B000A4A024B1A607047FF2C3101000C0E40F7
S214402B10FF59620200010004FF869303000200048E
S214402B20FFB3C40400030004FFE0F50500050004FD
S214402B30094B1B6813B9094A074B1A60064B1B68BA
S214402B401A180749914204DB1046034A106018469B
S214402B5070474FF0FF30704744C3402088E640201F
S214402B60FCFF45202DE9F0478046471E0026DFF84B
S214402B7034900A4D0A4CDFF830A008E02046A847BB
S214402B800028FBD017F8011F2046D04701364046A4
S214402B90C847B042F2D8BDE8F08700BF7D26400067
S214402BA0000A0E40C1444000892640002DE9F04707
S214402BB084B000AFDC1D24F00704ADEB040D002408
S214402BC03C60082B44DC6D4619B978604FF0010A2A
S214402BD012E040F0400078607F2A03D8BA604FF099
S214402BE0020A09E002F07F0141F08001B960C2F3B9
S214402BF0C712FA604FF0030A1C461A4E3946304652
S214402C00194B98475246391D3046184B984722462E
S214402C1029463046164B984739463046154B984716
S214402C20012C18D42B192946002400254FEA0529E3
S214402C3049EA14694FEA042813F8014D002544EA8E
S214402C40080445EA09058B42F0D12046294604E0AF
S214402C500020014601E0002001461037BD46BDE891
S214402C60F08700BF0080004071024000BD02400077
S214402C70F50240009D02400010B504230022114694
S214402C801046014CA04710BDAD2B400010B50523A3
S214402C90002211460F20034CA047034B1860C11773
S214402CA010BD00BFAD2B400054C440202DE9F04F6E
S214402CB087B000AF7860B960D7E91089BE6C002352
S214402CC03B61F31D23F00703ADEB030DC7F80CD0B3
S214402CD0002E25DD0DEB060B0023FF200021EC46E1
S214402CE016465A4608EA000A09EA010BC3F1200EC6
S214402CF0A3F120052AFA03F40BFA0EFE44EA0E046A
S214402D002BFA05F52C430CF8014B0C0244EA1064F0
S214402D1005022846214608339445E3D13246BE6C28
S214402D20BB682BB97B6863F07F00387501250EE0E1
S214402D307B6863F03F0038757F2A02D87A75022593
S214402D4005E062F07F037B75D209BA7503250C4C0B
S214402D5007F1100120460B4B98472A4607F114010D
S214402D602046094DA8473246F9682046A84707F14D
S214402D7010012046054B98471C37BD46BDE8F08FEE
S214402D800080004071024000BD0240009D024000AD
S214402D902DE9F04385B00426029676A3D3E90023B6
S214402DA0CDE90023002211461F206D4CA047029615
S214402DB04FF000084FF00009CDE900890022114687
S214402DC01A20A0470296674A0023CDE90023002236
S214402DD011463046A04702964FF075320023CDE9A3
S214402DE00023002211461E20A0470227029748F6DD
S214402DF070020023CDE90023324601212320A0475C
S214402E00029653A3D3E90023CDE900230C220121E7
S214402E102320A047029755220023CDE90023122203
S214402E2001212320A04702970A220023CDE9002350
S214402E303A4601212720A047029787220023CDE962
S214402E400023324601212720A04702976422002310
S214402E50CDE90023062201212720A04702963EA363
S214402E60D3E90023CDE90023082201212720A047EB
S214402E70029728220023CDE900232622012127207D
S214402E80A04701250295D8220023CDE900230B2236
S214402E9029462820A047029645F640420023CDE921
S214402EA000230C2229462820A0470295C922002349
S214402EB0CDE900230B2229462A20A047052302936A
S214402EC0294A0023CDE90023072229462B20A04784
S214402ED002951E220023CDE900230B2229462B20F3
S214402EE0A04702956D220023CDE9002340F6060256
S214402EF029462E20A047029741F207620023CDE9DB
S214402F00002341F6060229462E20A047029740F6A7
S214402F10A3020023CDE9002342F6040229462E20D0
S214402F20A047029604220023CDE90023002229462A
S214402F302420A0470297CDE9008900222946362062
S214402F40A0470A480A4B984705B0BDE8F08300BF43
S214402F5007A90225000000009A001A35000000006C
S214402F60AD2C40000012440007040009B7C07300AF
S214402F7001004020110044080000000000B585B064
S214402F80052302930021009001910A460F20024B30
S214402F90984705B05DF804FBAD2C400070B584B092
S214402FA00423002201212620184EB0470424029410
S214402FB045F240520023CDE900230022012126207D
S214402FC0134DA8472346002201213620B0470294DD
S214402FD040F4040000220090019201213620A847C8
S214402FE002940C4A0023CDE90023282201213620F2
S214402FF0A84702944FF490720023CDE9002328227C
S21440300001213620A84704B070BD00BFAD2B40005C
S214403010AD2C400020010F0000B585B0052302937B
S214403020C117CDE90001002211460820024B9847FF
S21440303005B05DF804FB00BFAD2C400000B585B080
S21440304006990291CDE90023024601210920024B50
S214403050984705B05DF804FBAD2C400000B585B040
S2144030600423029302220023CDE9002300221146C6
S2144030700D20024B984705B05DF804FBAD2C400090
S2144030802DE9F04383B0B1F100090FDD804600EB37
S2144030900907044601260B4DC8EB040014F8012B23
S2144030A00023009680B2A847BC42F5D109F07F00C5
S2144030B040F41020044B9847044B984703B0BDE8B3
S2144030C0F08300BF3D304000193040005D30400086
S2144030D0F8B5114D4FF000412846104CA0474FF030
S2144030E080612846A04701250D4C0B4E0B4F2368A8
S2144030F063B135B14FF0004130460A4B9847002542
S21440310004E04FF000413046B84701254FF47A704E
S214403110054B9847EBE700BF00140E40792340006C
S2144031204CC34020752340004D1840002DE9F04325
S21440313089B0204E4FF001094D461F4C1F4F356059
S2144031402068002831D000234FF6FF721946B84752
S21440315001282AD14FF0FF30194B9847194B8DF86C
S2144031600030194B8DF80130184B8DF80230184B53
S2144031708DF8033007216846164B98471648174B7C
S2144031809847174B98470246164903A8164B984748
S21440319003A8164B9847164BC3F8009000231A46D0
S2144031A019462068DFF85080C0474FF4FA70114B3C
S2144031B09847C4E748C3402058C3402061104000A9
S2144031C07D2F4000BC864000AC864000B086400064
S2144031D0B4864000813040001B8B01000100402037
S2144031E08D2C4000B487400065444000652B40006D
S2144031F054C340204D184000550C400070B584B074
S2144032001B4B984700240394029401940223009396
S21440321023464FF4167217491748184DA84703948B
S214403220029401940123009323464FF416721449E6
S2144032301448A8470394029401940323009323461A
S2144032404FF4167210491148A847114E4FF00041EE
S2144032503046104DA8474FF000413046A8470E482C
S2144032600E4B98470E4B9847204604B070BD00BFA3
S2144032709D264000B8864000D13040002D134000C7
S214403280C086400069334000CC8640002D31400067
S21440329000140E4079234000DC864000652B400039
S2144032A05515400038B5094D2846094B9847094CF6
S2144032B020602846084B9847236818402060002125
S2144032C0064B1868064B984738BD00BF000E0E40A8
S2144032D0AD2440007CC44020B124400050C3402070
S2144032E0810F40002DE9F0418AB01B4D03242C701D
S2144032F068700412AC700414EC7000162871697182
S2144033000812A8710814E871091629726A72111217
S214403310A9721114E97212162A736B731A12AA73E1
S2144033201A14EA731B162B749DF840306B74013DDB
S2144033300024DFF83080094F094E15F8013F224639
S21440334041466846B8476846B0470134122CF4D127
S2144033500AB0BDE8F08100BF68C440206544400024
S214403360652B4000F88640002DE9F04F2DED088B88
S21440337097B00322002101209B4B98479B4B186037
S21440338001209B4B98479B4B18609FED9B8A0027DC
S214403390BA460B970A970997089707970697012307
S2144033A0059399469B46DFF8C482F0EE488AF0EED5
S2144033B0489A9FED89ABB0EE4ABAF0EE6ABAF0EEA4
S2144033C048AA8A4E00258D4C30680028FDD02B46F2
S2144033D04FF6FF722946A0470128F5D10122884BB7
S2144033E01A60884B1B68B3F5003F00F0CC8013D8BA
S2144033F0B3F5804F00F0668106D8B3F5006F26D04F
S214403400B3F5805F39D02AE2B3F5004F00F0308143
S214403410B3F5803F7BD022E2B3F5801F00F0DD811C
S21440342008D8B3F5802F00F07481B3F5002F00F074
S214403430EA8114E2B3F5000F00F0A881B3F1807F73
S21440344000F0F781B3F5800F40F0098277E16E48CF
S2144034506E4B9847B9F1000F07D04FF08061404659
S2144034606B4B98474FF0000915E24FF0806140469D
S214403470684B98474FF001090DE26748634CA047F8
S2144034803320664B9847664B984702460B4665493D
S2144034900CA8654DA8470CA8A047644E3046A047E8
S2144034A0634B984702460B4662490CA8A8470CA8AF
S2144034B0A0473046A0470426029649A3D3E90023F6
S2144034C0CDE900230022114603205B4B9847334644
S2144034D0002211460320594EB04702460B46584933
S2144034E00CA8A8470CA8A047BBF1000F07D04FF088
S2144034F000414046464B98474FF0000BCBE14FF01B
S21440350000414046434B98474FF0010BC3E14D48BE
S2144035103E4B9847089B002B0CBF0124002426D125
S2144035200127494B1F604FF000414046384B9847B3
S214403530464B1F60464A47490CA83B4EB0470CA82E
S214403540324DA847424A44490CA8B0470CA8A84761
S21440355053EC1B2B41490CA8B0470CA8A84708942D
S2144035609FED3F8A4FF01E0AF0EE68AA93E10027CF
S214403570354B1F604FF000414046264B9847334B33
S2144035801F60089487E13748204B9847099B002BDB
S2144035900CBF0124002411D101272B4B1F604FF094
S2144035A0004140461A4B9847284B1F6009949FEDB0
S2144035B02E8A4FF01E0AF0EE68AA6CE10027224BD6
S2144035C01F604FF000414046124B98471F4B1F600C
S2144035D0099460E1AFF30080000000400AD7124033
S2144035E03022CADE00000000D10B400050C340200D
S2144035F0310E400058C340200000000061104000DB
S21440360048C340207CC4402008874000652B4000CB
S2144036107523400079234000188740000100402071
S214403620792C4000288740006544400030854000A3
S2144036308D2C40003C874000AD2C4000AD2B400018
S214403640508740006C87400054C340204CC3402005
S21440365052B896407887400090874000A887400040
S21440366052B89640B8874000C3F5C83F00140E4095
S214403670069B002B0CBF0124002414D19548964B82
S21440368098470127954B1F604FF000414046944BAA
S2144036909847944B1F600694B0EE688A4FF01E0A17
S2144036A0F0EE69AAF7E090488B4B984700278B4B83
S2144036B01F604FF0004140468C4B9847894B1F6037
S2144036C00694E8E08A48844B9847079B002B0CBF3B
S2144036D00124002411D10127804B1F604FF0004188
S2144036E040467F4B98477F4B1F6007949FED818AEB
S2144036F04FF01E0AF0EE68AACDE00027774B1F6019
S2144037004FF000414046794B9847764B1F600794F0
S214403710C1E07948704B9847BBF1000F07D04FF097
S214403720004140466E4B98474FF0000BB3E04FF0D9
S214403730004140466D4B98474FF0010BABE06F4859
S214403740654B98470A9B002B0CBF0124002411D1DF
S2144037500127624B1F604FF080614046604B9847A0
S214403760604B1F600A94B0EE688A4FF01E0AFFEE68
S21440377000AA90E00027594B1F604FF080614046FA
S2144037805A4B9847574B1F600A9484E05C48524B0C
S21440379098470B9B002B0CBF0124002411D1012716
S2144037A04E4B1F604FF0004140464D4B98474D4BA7
S2144037B01F600B94B0EE688A4FF01E0AF7EE00AA20
S2144037C069E00027454B1F604FF000414046474B9D
S2144037D09847444B1F600B945DE04A483E4B9847E1
S2144037E0B9F1000F07D04FF0806140463C4B9847F8
S2144037F04FF000094FE04FF0806140463B4B984702
S2144038004FF0010947E04048334B9847B9F1000F65
S21440381007D04FF080614046314B98474FF0000943
S21440382039E04FF080614046304B98474FF00109F1
S21440383031E03648284B9847B9F1000F07D04FF093
S21440384080614046264B98474FF0000923E04FF0F2
S21440385080614046254B98474FF001091BE02C48B5
S2144038601D4B9847059B5BB14FF0004140461C4CB2
S214403870A0474FF080614046A047002305930AE0EA
S2144038804FF000414046194CA0474FF080614046FB
S214403890A047012305931F4B186800283FF491ADBD
S2144038A000234FF6FF7219461B4CA04701287FF4B1
S2144038B088AD009753463C2218EE101A1AEE900A2E
S2144038C0164CA04700231A46194612480068144C66
S2144038D0A04776E5C4874000652B400054C340208F
S2144038E0752340004CC34020D087400079234000D9
S2144038F0E0874000C3F54840EC874000F88740002A
S21440390004884000108840001C88400028884000FA
S2144039103488400058C3402061104000E5324000E3
S214403920550C400081F0004102E000BF83F00043A8
S21440393030B54FEA41044FEA430594EA050F08BF05
S21440394090EA020F1FBF54EA000C55EA020C7FEAC9
S214403950645C7FEA655C00F0E2804FEA5454D4EB46
S2144039605555B8BF6D420CDD2C4480EA020281EA10
S214403970030382EA000083EA010180EA020281EA48
S2144039800303362D88BF30BD11F0004F4FEA01319A
S2144039904FF4801C4CEA113102D0404261EB4101A9
S2144039A013F0004F4FEA03334CEA133302D052422F
S2144039B063EB430394EA050F00F0A780A4F10104EB
S2144039C0D5F1200E0DDB02FA0EFC22FA05F2801825
S2144039D041F1000103FA0EF2801843FA05F359410B
S2144039E00EE0A5F120050EF1200E012A03FA0EFC8A
S2144039F028BF4CF0020C43FA05F3C01851EBE371B4
S214403A0001F0004507D54FF0000EDCF1000C7EEBD0
S214403A1000006EEB0101B1F5801F1BD3B1F5001F0E
S214403A200CD349085FEA30004FEA3C0C04F101042D
S214403A304FEA445212F5800F80F09A80BCF1004F56
S214403A4008BF5FEA500C50F1000041EB045141EAD8
S214403A50050130BD5FEA4C0C404141EB010111F4D9
S214403A60801FA4F10104E9D191F0000F04BF014684
S214403A700020B1FA81F308BF2033A3F10B03B3F162
S214403A8020020CDA0C3208DD02F1140CC2F10C02F2
S214403A9001FA0CF021FA02F10CE002F11402D8BF50
S214403AA0C2F1200C01FA02F120FA0CFCDCBF41EA1C
S214403AB00C019040E41AA2BF01EB0451294330BDEB
S214403AC06FEA04041F3C1CDA0C340EDC04F11404C8
S214403AD0C4F1200220FA04F001FA02F340EA03009F
S214403AE021FA04F345EA030130BDC4F10C04C4F1E5
S214403AF0200220FA02F001FA04F340EA03002946C5
S214403B0030BD21FA04F0294630BD94F0000F83F40E
S214403B10801306BF81F480110134013D4EE77FEAF1
S214403B20645C18BF7FEA655C29D094EA050F08BF3D
S214403B3090EA020F05D054EA000C04BF194610461E
S214403B4030BD91EA030F1EBF0021002030BD5FEA62
S214403B50545C05D14000494128BF41F0004130BD8A
S214403B6014F580043CBF01F5801130BD01F00045DE
S214403B7045F0FE4141F470014FF0000030BD7FEA51
S214403B80645C1ABF194610467FEA655C1CBF0B464C
S214403B90024650EA013406BF52EA033591EA030F63
S214403BA041F4002130BD00BF90F0000F04BF00215B
S214403BB0704730B54FF4806404F132044FF000058E
S214403BC04FF0000150E700BF90F0000F04BF002107
S214403BD0704730B54FF4806404F1320410F000456D
S214403BE048BF40424FF000013EE700BF42004FEA68
S214403BF0E2014FEA31014FEA02701FBF12F07F43E5
S214403C0093F07F4F81F06051704792F0000F14BFE1
S214403C1093F07F4F704730B54FF4607401F0004525
S214403C2021F0004120E700BF50EA010208BF70477C
S214403C3030B54FF000050AE050EA010208BF704771
S214403C4030B511F0004502D5404261EB41014FF4DA
S214403C50806404F132045FEA915C3FF4DCAE4FF0DE
S214403C6003025FEADC0C18BF03325FEADC0C18BFC5
S214403C70033202EBDC02C2F1200300FA03FC20FA16
S214403C8002F001FA03FE40EA0E0021FA02F1144463
S214403C90C1E600BF70B54FF0FF0C4CF4E06C1CEA78
S214403CA011541DBF1CEA135594EA0C0F95EA0C0FED
S214403CB000F0DEF82C4481EA030621EA4C5123EA60
S214403CC04C5350EA013518BF52EA033541F480118F
S214403CD043F4801338D0A0FB02CE4FF00005E1FB42
S214403CE002E506F00042E0FB03E54FF00006E1FB8C
S214403CF003569CF0000F18BF4EF0010EA4F1FF04CF
S214403D00B6F5007F64F5407404D25FEA4E0E6D410E
S214403D1046EB060642EAC62141EA55514FEAC5201F
S214403D2040EA5E504FEACE2EB4F1FD0C88BFBCF59B
S214403D30E06F1ED8BEF1004F08BF5FEA500E50F14C
S214403D40000041EB045170BD06F0004646EA010112
S214403D5040EA020081EA0301B4EB5C04C2BFD4EB44
S214403D600C0541EA045170BD41F480114FF0000E3D
S214403D70013C00F3AB8014F1360FDEBF002001F0AB
S214403D80004170BDC4F10004203C35DA0C341BDC25
S214403D9004F11404C4F1200500FA05F320FA04F0F7
S214403DA001FA05F240EA020001F0004221F000412B
S214403DB010EBD37021FA04F642EB06015EEA430E9E
S214403DC008BF20EAD37070BDC4F10C04C4F12005CE
S214403DD000FA04F320FA05F001FA04F240EA020081
S214403DE001F0004110EBD37041F100015EEA430E52
S214403DF008BF20EAD37070BDC4F1200500FA05F272
S214403E004EEA020E20FA04F301FA05F243EA0203F0
S214403E1021FA04F001F0004121FA04F220EA0200FF
S214403E2000EBD3705EEA430E08BF20EAD37070BD45
S214403E3094F0000F0FD101F00046400041EB010125
S214403E4011F4801F08BF013CF7D041EA060195F007
S214403E50000F18BF704703F00046520043EB0303C1
S214403E6013F4801F08BF013DF7D043EA06037047AE
S214403E7094EA0C0F0CEA135518BF95EA0C0F0CD0B9
S214403E8050EA410618BF52EA4306D1D181EA0301FF
S214403E9001F000414FF0000070BD50EA410606BFF9
S214403EA01046194652EA430619D094EA0C0F02D13E
S214403EB050EA013613D195EA0C0F05D152EA033683
S214403EC01CBF104619460AD181EA030101F00041A1
S214403ED041F0FE4141F470014FF0000070BD41F0EA
S214403EE0FE4141F4780170BD70B54FF0FF0C4CF4C4
S214403EF0E06C1CEA11541DBF1CEA135594EA0C0FE3
S214403F0095EA0C0F00F0A7F8A4EB050481EA030E2F
S214403F1052EA03354FEA013100F088804FEA033316
S214403F204FF0805545EA131343EA12634FEA0222E4
S214403F3045EA111545EA10654FEA00260EF00041A5
S214403F409D4208BF964244F1FD0404F5407402D2F7
S214403F505B084FEA3202B61A65EB03055B084FEA88
S214403F6032024FF480104FF4002CB6EB020E75EB85
S214403F70030E22BFB61A754640EA0C005B084FEAAD
S214403F803202B6EB020E75EB030E22BFB61A75462A
S214403F9040EA5C005B084FEA3202B6EB020E75EB75
S214403FA0030E22BFB61A754640EA9C005B084FEAED
S214403FB03202B6EB020E75EB030E22BFB61A7546FA
S214403FC040EADC0055EA060E18D04FEA051545EAE9
S214403FD016754FEA06164FEAC30343EA52734FEA92
S214403FE0C2025FEA1C1CC0D111F4801F0BD141EA0B
S214403FF000014FF000004FF0004CB6E711F4801F70
S21440400004BF01430020B4F1FD0C88BFBCF5E06F4F
S2144040103FF6AFAEB5EB030C04BFB6EB020C5FEA5F
S214404020500C50F1000041EB045170BD0EF0004EB4
S2144040304EEA113114EB5C04C2BFD4EB0C0541EAE6
S214404040045170BD41F480114FF0000E013C90E6E3
S21440405045EA060E8DE60CEA135594EA0C0F08BFA7
S21440406095EA0C0F3FF43BAF94EA0C0F0AD150EAA6
S21440407001347FF434AF95EA0C0F7FF425AF104639
S21440408019462CE795EA0C0F06D152EA03353FF461
S214404090FDAE1046194622E750EA410618BF52EADE
S2144040A043067FF4C5AE50EA41047FF40DAF52EAB2
S2144040B043057FF4EBAE12E74FF0FF3C06E000BF4F
S2144040C04FF0010C02E000BF4FF0010C4DF804CD5C
S2144040D04FEA410C7FEA6C5C4FEA430C18BF7FEA1C
S2144040E06C5C1BD001B050EA410C0CBF52EA430C4A
S2144040F091EA030F02BF90EA020F0020704710F1CA
S214404100000F91EA030F58BF994208BF90422CBF58
S214404110D8176FEAE37040F0010070474FEA410C51
S2144041207FEA6C5C02D150EA013C07D14FEA430C6F
S2144041307FEA6C5CD6D152EA033CD3D05DF8040BE0
S214404140704700BF8446104662468C461946634612
S21440415000E000BF01B5FFF7B7FF002848BF10F1E9
S214404160000F01BD4DF808EDFFF7F4FF0CBF01202E
S21440417000205DF808FB00BF4DF808EDFFF7EAFFAA
S21440418034BF012000205DF808FB00BF4DF808ED65
S214404190FFF7E0FF94BF012000205DF808FB00BF5A
S2144041A04DF808EDFFF7CEFF94BF012000205DF8E4
S2144041B008FB00BF4DF808EDFFF7C4FF34BF0120F1
S2144041C000205DF808FB00BF4FEA410C7FEA6C5CBC
S2144041D002D150EA013C0AD14FEA430C7FEA6C5CBC
S2144041E002D152EA033C02D14FF0000070474FF034
S2144041F0010070474FEA410212F5001215D211D560
S2144042006FF47873B3EB625212D94FEAC12343F08E
S214404210004343EA505311F0004F23FA02F018BF10
S214404220404270474FF00000704750EA013005D1D9
S21440423011F0004008BF6FF0004070474FF000009C
S214404240704700BF70B50F4E0F4D761BB61018BFA7
S214404250002405D0013455F8043B9847A642F9D1CE
S2144042600A4E0B4D761B04F0B1FBB61018BF002467
S21440427006D0013455F8043B9847A642F9D170BDA4
S21440428070BD00BFD8894000D8894000E089400012
S214404290D8894000844641EA000313F003036DD1F9
S2144042A0403A41D351F8043B40F8043B51F8043BB4
S2144042B040F8043B51F8043B40F8043B51F8043BBB
S2144042C040F8043B51F8043B40F8043B51F8043BAB
S2144042D040F8043B51F8043B40F8043B51F8043B9B
S2144042E040F8043B51F8043B40F8043B51F8043B8B
S2144042F040F8043B51F8043B40F8043B51F8043B7B
S21440430040F8043B51F8043B40F8043B51F8043B6A
S21440431040F8043B51F8043B40F8043B51F8043B5A
S21440432040F8043B403ABDD2303211D351F8043BFA
S21440433040F8043B51F8043B40F8043B51F8043B3A
S21440434040F8043B51F8043B40F8043B103AEDD2A9
S2144043500C3205D351F8043B40F8043B043AF9D2FA
S214404360043208D0D2071CBF11F8013B00F8013BCD
S21440437001D30B8803806046704700BF082A13D3DA
S2144043808B078DD010F003038AD0C3F10403D21AF2
S214404390DB071CBF11F8013B00F8013B80D331F826
S2144043A0023B20F8023B7BE7043AD9D3013A11F8A6
S2144043B0013B00F8013BF9D20B7803704B78437011
S2144043C08B7883706046704770B4840746D0541E1E
S2144043D0002A41D0CDB2034602E0621EE4B3144642
S2144043E003F8015B9A07F8D1032C2ED9CDB245EAE3
S2144043F005250F2C45EA054519D903F11002264636
S214404400103E0F2E42F8105C42F80C5C42F8085CF6
S21440441042F8045C02F11002F2D8A4F1100222F035
S2144044200F0204F00F041032032C13440DD91E461D
S2144044302246043A032A46F8045BFAD8221F22F0A2
S21440444003020432134404F003042CB1C9B21C44E2
S21440445003F8011BA342FBD170BC704714460346C9
S214404460C2E700BF0EB4F0B59CB021AB0F4953F87D
S214404470042B019305466FF00044086802954FF4FC
S21440448002774FF6FF7602A90695ADF814700494AD
S2144044900794ADF8166000F081F8029B00221A706F
S2144044A01CB0BDE8F04003B0704700BF4004402059
S2144044B000000000000000000000000000000000B7
S2144044C090F800F06DE9024520F007016FF0000C0F
S2144044D010F0070491F820F040F049804FF00004B7
S2144044E06FF00700D1E9002391F840F000F1080092
S2144044F082FA4CF2A4FA8CF283FA4CF3A2FA8CF3CA
S2144045004BBBD1E9022382FA4CF200F10800A4FA30
S2144045108CF283FA4CF3A2FA8CF3E3B9D1E9042384
S21440452082FA4CF200F10800A4FA8CF283FA4CF3BB
S214404530A2FA8CF37BB9D1E9062301F1200182FA75
S2144045404CF200F10800A4FA8CF283FA4CF3A2FA7B
S2144045508CF3002BC6D0002A04BF04301A4612BA89
S214404560B2FA82F2FDE8024500EBD2007047D1E98C
S214404570002304F00305C4F100004FEAC50514F01B
S214404580040F91F840F00CFA05F562EA05021CBFEC
S21440459063EA050362464FF00004A9E72DE9F04FB1
S2144045A0C1B00C46099115460E930A9002F05EFC87
S2144045B0036817931846FFF783FFA38916901E06D5
S2144045C003D52369002B01F0198100231A46129364
S2144045D02593249319930B93DFF864A4149230AB7D
S2144045E0239399461592A84698F800304446EBB176
S2144045F0252B02D11AE0252B03D014F8013F002BBF
S214404600F9D1C8EB04058DB1249B259AC9F80080E2
S21440461001332A44072BC9F804502592249300F30B
S214404620A68009F108090B9B2B440B932378002B9B
S21440463000F0A68000231A468DF86F3019460C937A
S21440464007934FF0FF3B637804F101085D4608F19D
S2144046500108A3F12000582800F22584DFE810F076
S21440466088032304230490032304230423042304FD
S214404670230423049703A50323045D00E2002304D8
S214404680FE000501050105010501050105010501BD
S21440469005010501230423042304230423042304DF
S2144046A023042304230423041501810223048102E6
S2144046B02304230423042304C60223042304CD0234
S2144046C023042304230423042304F702230423049B
S2144046D0250323042304230423042304230423045C
S2144046E023042304230466037903810281028102A2
S2144046F08103790323042304D1032304DB03A300AB
S2144047006400EE032304F5032304AA0323042304CE
S214404710BC030C980E9340420C90079B43F0040356
S214404720079398F8003092E70E98AB46002104684D
S2144047308DF86F10071D0798302378228B458DF82B
S21440474070304FF000058DF8712040F00203C0F243
S214404750C78320F0800343F00203079354EA05031F
S2144047600E9700F093830F461192B348CEE223AAE9
S21440477009990A9803F004FC48B90DF1C00952E7BC
S214404780259B23B10A98099923AA03F0F9FB099BB4
S2144047909B8913F0400F0B9B18BF4FF0FF33184612
S2144047A041B0BDE8F08F1193AB46002A41F023821A
S2144047B0079A12F0200300F02E820E9F073727F04C
S2144047C00703002703F10801BB450E91D3E90045D6
S2144047D08DF86F70C0F2528722F08003079354EA38
S2144047E0050300F0758330AEE20842EA4572E908F8
S2144047F004F007030D461446303354EA050206F823
S214404800013DF1D1079AD10740F18480302B00F06A
S21440481081803022731E06F8012C30AAD21A0D92DF
S2144048201E467AE098F800302A2B08F1010401F081
S214404830B181A3F13000092898BF002501F26481B8
S21440484014F8013B05EB850500EB4505A3F1300068
S2144048500928F5D945EAE575A046FAE6079B43F0F0
S2144048608003079398F80030F1E6A3F13000002368
S2144048701C4618F8013B04EB840400EB4404A3F107
S21440488030000928F5D90C94E3E61193AB46002A8C
S21440489041F0C981079B43F010030793079B980696
S2144048A040F130850E9F073727F00707D7E90023EA
S2144048B007F108010E9114461D46002A73F10003C5
S2144048C0C0F25B85BBF1000F9DF86F70C0F2388573
S2144048D0079B23F08003079354EA050300F0DB812F
S2144048E0002D08BF0A2CC0F0DB8130AE204629469A
S2144048F00A22002303F046FC303206F8012D2046FB
S214404900294600230A2203F03DFC04460D4654EA9D
S2144049100503EBD130AB9B1B0D930D9B5B45B8BF9E
S2144049205B4608930023139317B1089B0133089303
S214404930079B13F002030F9302D0089B02330893A1
S214404940079B13F08403109340F0D7820C9B089A81
S2144049509D1A002D40F3D182102D2599249A374F69
S21440496027DD189648461024B946099E2F460A9DCC
S21440497004E0103F102F00F1080016DD01322F4BE7
S21440498024921031072A259180E81800F1DD23AAE9
S2144049903146284603F0F4FA00287FF4F8AE103F7C
S2144049A0102F2599249A30A8E8DC189E3D464F469D
S2144049B0814601326C18072A25942492C9F8007063
S2144049C0C9F8045000F328849DF86F7009F108096F
S2144049D077B1249B013301340DF16F010122072B7F
S2144049E02594249389E8060000F3A08309F108097A
S2144049F00F9B6BB1249B013302341CA90222072B68
S214404A002594249389E8060000F39C8309F108095D
S214404A10109B802B00F0D5820D9BC3EB0B07002F1D
S214404A2039DD074A249B0F92102F28DD22464FF08F
S214404A30100B0A9D099C0AE084884000A488400028
S214404A4050884000103F102F09F1080916DD013349
S214404A501032072B2592249389E8000CF2DD23AA16
S214404A602146284603F08CFA00287FF490AE103F8B
S214404A70102F259A249B0DF1C009E8DC144601331B
S214404A800F9A24933C44072B259489E8840000F32E
S214404A90418309F10809079BDA0500F13082249B1F
S214404AA00D99C9F8006001330C44072B2594C9F8CA
S214404AB00410249300F3188309F10809079B59074B
S214404AC03FD50C9B089A9D1A002D3ADD102D249B4D
S214404AD0BC4F23DD22461026DDF828B0099C04E0B2
S214404AE0103D102D09F1080917DD0133B54924930F
S214404AF01032072B259289E84200F1DD23AA214691
S214404B00584603F03DFA00287FF441AE103D102D84
S214404B10259A249B0DF1C009E7DC144601332C444A
S214404B20072B25942493C9F80070C9F8045008DD73
S214404B3023AA09990A9803F023FA00287FF427AE9F
S214404B40259C0B9B0C9A08998A42ACBF9B185B1815
S214404B500B93002C40F0D482002324930DF1C0091F
S214404B6042E51193AB46002A41F059800E9F073725
S214404B7027F0070303F108020E921A6814925B6846
S214404B801593159B149D23F00044284621464FF06C
S214404B90FF328D4BFFF718FB002840F0C1842846B3
S214404BA021464FF0FF32884BFFF7F0FA002840F0DE
S214404BB0B7841498159900220023FFF7DDFA0028E1
S214404BC040F04B879DF86F70804E814B079921F0DF
S214404BD080010791119903224FF0000B0892472954
S214404BE0D8BF1E460D92CDF84CB09DE6079B43F0CD
S214404BF00803079398F8003029E51193AB46002A3E
S214404C0041F00980079B43F010030793079A12F080
S214404C1020037FF4D2AD079911F0100200F007850B
S214404C200E988DF86F30BBF1000F046800F1040752
S214404C304FF00005C0F221850A4622F08002079216
S214404C4054EA05020E9700F043811F46CBE51193C8
S214404C50AB46002A40F0D787079B43F010030793E4
S214404C60079A12F0200300F032830E9F073727F092
S214404C700703002703F10801BB450E91D3E9004521
S214404C808DF86F70C0F25C8322F08003079354EA7D
S214404C9005037FF425AEBBF1000F00F0FE80002434
S214404CA040AE303406F8414D34E61193AB46002A08
S214404CB040F0A587079B47489D0640F197800E9F8A
S214404CC0073727F00703D3E9004503F108020E92A1
S214404CD0079A12F0010700F0418254EA050300F0FB
S214404CE0F5849DF844208DF871200027079A8DF8AA
S214404CF06F703023BB458DF8703042F00203C0F22F
S214404D00A98622F0800343F00203079330AE2309BE
S214404D1004F00F0143EA05732A091C461546435C16
S214404D2006F8013D54EA0503F1D1F3E50E991193D7
S214404D300A688DF8982000230A461F468DF86F3083
S214404D40043201230893BB4613970E920D9326AE6A
S214404D50EEE51193AB46002A3FF4A0AD8DF86F10F8
S214404D609CE5079B43F04003079398F800306EE4B9
S214404D7098F8003000297FF46AAC0122202166E4CE
S214404D80079B43F00103079398F800305FE40E9CBE
S214404D9023680C9318460028234603F10403FFF6C5
S214404DA0B8AC0E9398F8003051E498F800300122E1
S214404DB02B214CE41193AB46002A3FF451AF8DF8BB
S214404DC06F104DE7A4884000FFFFEF7F64884000E7
S214404DD060884000708840001193AB46002A40F03F
S214404DE00387079B99489D063FF569AF079BDC06FE
S214404DF040F15E840E9A1346043314680E930025E1
S214404E0066E798F800306C2B00F0E184079840F095
S214404E10100007901BE4002A40F0DB86079B9B06A9
S214404E2040F12F840E9A0B991368CD17084604322A
S214404E3029460E92C3E90001FFF7D6BB079B43F015
S214404E402003079398F8003001E40E9A11931668F1
S214404E5000248DF86F40171D002E00F0BD85002DF4
S214404E60C0F20F852A462146304602F0C1FA002895
S214404E7000F00486831B0D93A34623EAE3730E9744
S214404E800893CDF84CB09DF86F704DE56F48119281
S214404E90BBF1000F40F073815F464FF0000BCDF83A
S214404EA034B030AE39E51193002A40F0B086119AFE
S214404EB0002A3FF465AC002301211F4608918DF877
S214404EC098208DF86F309B4613930D9126AE2FE5B4
S214404ED0BBF1000F00F0DD8500270024002582E4AA
S214404EE05A480793119254EA05030E974FF000076D
S214404EF07FF40CAF0024002508E7259C68E5119B4D
S214404F00652B40F3A9801498159900220023FFF7DB
S214404F1029F9002800F03581249B4D4AC9F8002025
S214404F20013301340122072B25942493C9F8042029
S214404F3000F3E68309F108091D9B129A934203DBAE
S214404F40079BDB077FF5BAAD249B1699179AC9F8DD
S214404F50002001330C44072B2594C9F804102493F1
S214404F6000F33F8409F10809129B5D1E002D7FF770
S214404F70A5AD384A249B0F92102D40F3E6811026AB
S214404F800A9FDDF824B005E009F10809103D102D10
S214404F9040F3DB8101331034072B25942493C9F862
S214404FA000A0C9F80460EFDD23AA5946384602F04F
S214404FB0E7FF00287FF4EBAB259C249B0DF1C0094E
S214404FC0E4E70C9B089A9F1A002F7FF725AD214AED
S214404FD0249B0F92102F2BDD4A462146B9461025BA
S214404FE037460A9C099E06E0A9F11009B9F1100F50
S214404FF002F1080218DD01331031072B2591249366
S214405000C2F800A05560EFDD23AA3146204602F0E4
S214405010B7FF00287FF4BBABA9F11009B9F1100F18
S2144050202599249B30AAE6DC3E460C464F469146E0
S21440503001330F9A24933C44072B259489E8840037
S21440504000F3458209F10809E6E400BF8488400081
S214405050A088400050884000129B249D012B40F3BE
S2144050600882013501340123072D25942495C9F87B
S2144050700060C9F8043000F30D8209F10809169A59
S214405080179BC9F8003001351444072D2594249504
S214405090C9F8042000F30E8209F108090023149889
S2144050A015990022FFF75EF8129B002840F0C38057
S2144050B0013B013501361C44072D24952594C9F83B
S2144050C00060C9F8043000F3F58009F10809199A20
S2144050D0C9F80420013514441FAB072D25942495A8
S2144050E0C9F800307FF7E8AC23AA09990A9802F07D
S2144050F047FF00287FF44BAB259C0DF1C009DDE44B
S21440510023AA09990A9802F03BFF00283FF424ADF1
S214405110FFF73DBB23AA09990A9802F031FF002801
S2144051207FF435AB259C0DF1C009B4E423AA099958
S2144051300A9802F025FF00287FF429AB259C0DF144
S214405140C00955E423AA09990A9802F019FF0028D5
S2144051507FF41DAB259C0DF1C00959E4BBF1000F4F
S2144051608DF86F70C0F2D88222F08003079354EA1D
S21440517005037FF4CBADBBF1000F3FF48DAE0027A7
S214405180B8E61D9D002D40F3CA82139B129A9342A7
S214405190A8BF1346002B1D460DDD249BC9F80060B2
S2144051A001332C44072B2594C9F80450249300F36C
S2144051B09C8309F10809139B002DA8BF5B1B002B9D
S2144051C01D4640F3F680BA4A249B0F92102D40F3BA
S2144051D08A8222461027DDF828B0099C05E009F1AE
S2144051E00809103D102D40F37D8201331032072B05
S2144051F025922493C9F800A0C9F80470EFDD23AACD
S2144052002146584602F0BCFE00287FF4C0AA259AE4
S214405210249B0DF1C009E4E723AA09990A9802F0F5
S214405220AFFE00287FF4B3AA9DF86F70259C0DF161
S214405230C009FFF7CDBB5E1E002E7FF748AF9C4BE4
S2144052400F93102E2CDDCDF834801027B046DDF8B5
S21440525028B0099E06E0A8F11008B8F1100F09F131
S21440526008091ADD01351034072D25942495C9F810
S21440527000A0C9F80470EEDD23AA3146584602F075
S2144052807FFE00287FF483AAA8F11008B8F1100F1B
S214405290259C249D0DF1C009E4DC4646DDF83480AB
S2144052A00F9B01353444072D2594249589E8480002
S2144052B07FF70BAF23AA09990A9802F061FE0028EF
S2144052C07FF465AA259C249D0DF1C009FFE6079949
S2144052D011F0100200F008810E988DF86F30BBF187
S2144052E0000F046800F104074FF0000526DB0A466D
S2144052F022F08002079254EA05020E971F467FF47A
S214405300EFAAC8E4079BD9062AD4079B5A0627D596
S2144053100E99B1F900400431E51722462B460E910E
S214405320FFF7CBBA0E998DF86F30BBF1000F0C68C3
S21440533001F104074FF0000580F247820E971F46A2
S21440534054EA05037FF4CCAAAAE401330F9A2493C7
S2144053502C44072B259489E824007FF7ADABC3E6A1
S2144053600E9A146813460433E51722460E93002A15
S2144053702B4673F10003BFF6A5AA64424FF02D07F3
S21440538065EB4505BBF1000F8DF86F70FFF6A8AAD8
S214405390079B23F080030793FFF7A2BA23AA099935
S2144053A00A9802F0EDFD00287FF4F1A9259C0DF146
S2144053B0C009139A1D9B32441746129A934247DB04
S2144053C0079AD50744D412990E44F51BCB1A9D4232
S2144053D0A8BF1D46002D2E460DDD249AC9F8007044
S2144053E001322C44072A2594C9F80450249200F32D
S2144053F00B8309F10809002EACBF9D1B1D46002DEE
S2144054007FF75CAB2A4A249B0F92102D9DDD102619
S2144054100A9FDDF824B004E009F10809103D102D7C
S21440542093DD01331034072B25942493C9F800A04C
S214405430C9F80460F0DD23AA5946384602F0A0FDBC
S21440544000287FF4A4A9259C249B0DF1C009E5E71C
S214405450249A16981799C9F8001001320444072A6E
S2144054602594C9F80400249200F3A98209F108099A
S214405470A9E7079BD8073FF5F4AD01350134012372
S214405480072D25942495C9F80060C9F804307FF7A5
S2144054901CAE0FE723AA09990A9802F071FD00286E
S2144054A07FF475A9259C249D0DF1C009E7E500BF52
S2144054B05088400023AA09990A9802F061FD002806
S2144054C07FF465A9259C249D0DF1C009E6E523AA35
S2144054D009990A9802F054FD00287FF458A9259CA3
S2144054E00DF1C009FFF798BA079911F040033FF451
S2144054F019AF0E988DF86F20BBF1000F048800F1AD
S21440550004074FF00005C0F2B98121F080030793ED
S21440551054EA05030E9717467FF4E2A9FFF7BBBB94
S214405520149C22462046159C23462146FEF74CFEF8
S214405530002840F01783119BBBF1FF3F23F0200368
S2144055400D9300F07082472B00F09281079B43F446
S21440555080731093159B1F1E149B0893BBBF3B463E
S21440556003F1004700232D230F93119B662B00F079
S2144055705D82462B00F051810D9B089A452B21A851
S2144055801EA90CBF0BF101055D46049003911DA8B2
S21440559002213B460290019500910A9800F0F0FBEC
S2144055A0119B672B064640F09082079BDA0740F136
S2144055B0AF8274190898394600220023FEF7D2FDC0
S2144055C0002840F09081219B9C4206D930215A1CED
S2144055D021921970219B9C42F9D89B1B12930D9BDC
S2144055E0472B00F07981119B652B40F37D82119B00
S2144055F0662B1D9B139300F05B82139A12998A4286
S214405600C0F23082079BD90700F1848222EAE27317
S2144056100D92672211920F9A002A40F05381089308
S214405620109B079393469DF86F70FFF77DB90799D7
S21440563011F0400315D00E988DF86F20BBF1000F87
S214405640048800F104074FF0000516DB21F08003C4
S214405650079354EA05030E973FF43AAC1746FFF714
S214405660C2B80E998DF86F30BBF1000F0C6801F18F
S21440567004074FF0000580F2A5800E970027FFF73D
S214405680B2B8079BDF060BD4079B5E0608D50E9A7A
S214405690136804320E92BDF82C201A80FEF7A4BF81
S2144056A00E9A136804320E920B9A1A60FEF79CBF4D
S2144056B00E9A079B13F0400F134603F104030CBFEA
S2144056C0146814880E930025FFF702BB0027BB45DD
S2144056D08DF86F70FFF60EAC079B23F080030793A0
S2144056E0FFF7D6BB144601330F9A24932C44072B5E
S2144056F0259489E824003FF751AE09F1080958E699
S21440570023AA09990A9802F03BFC00287FF43FA898
S214405710259C0DF1C0090FE40E9FFFF7E4BB249BC8
S214405720B54AC9F80020013301340122072B2594DD
S2144057302493C9F8042000F38E8009F108092DB996
S214405740129B1BB9079BDF077FF5B8A9249B1699C8
S214405750179AC9F8002001330C44072B2594C9F842
S2144057600410249300F3C28109F108096D42002D0C
S21440577040F39B80A14A0F92102D40F3C3802246EF
S2144057801027DDF828B0099C05E009F10809103D0E
S214405790102D40F3B68001331032072B2592249308
S2144057A0C9F800A0C9F80470EFDD23AA2146584680
S2144057B002F0E6FB00287EF4EAAF259A249B0DF122
S2144057C0C009E4E7079AFFF738BA079A90E5079BBF
S2144057D043F02003079308F1010898F80030FEF7DD
S2144057E036BF23AA09990A9802F0CAFB00287EF41D
S2144057F0CEAF259C0DF1C009FFF7B6BB40210A98F5
S21440580001F038FB099A10601061002800F0E5812D
S214405810099A40235361FEF7D8BE21A81EA90490DA
S21440582003911DA803210290089ACDF804B03B4688
S21440583000910A9800F0A4FA5D460646119B462B56
S21440584006EB05047FF4B6AE3378302B00F07C814F
S2144058501D9D2C44AEE623AA09990A9802F090FBB7
S21440586000287EF494AF1D9D259C0DF1C00966E787
S214405870BBF1000F08BF4FF0010B67E60E971746C7
S2144058805EE53046FEF71CFEA34603460D90FFF746
S214405890F4BA23AA09990A9802F072FB00287EF40B
S2144058A076AF259C249B0DF1C0091299C9F800607B
S2144058B001330C44072B25942493C9F804107FF732
