S01A000048657861706F645F436F6E74726F6C6C65722E73726563BE
S214400000C0E44020D92A4000D52A4000D52A4000E6
S214400010D52A4000D52A4000D52A400000000000DE
S214400020000000000000000000000000E505400061
S214400030D52A40000000000085064000ED0640003E
S214400040D52A4000D52A4000D52A4000D52A40006F
S214400050D52A4000D52A4000D52A4000D52A40005F
S214400060D52A400000000000F533400095034000CC
S21440007000000000D52A4000D52A4000D52A40007E
S214400080A903400000000000D52A4000D52A4000C1
S214400090D52A4000D52A4000D52A4000D52A40001F
S2144000A0D52A4000D52A400000000000000000008D
S2144000B0000000004524400000000000D52A400013
S2144000C0D52A4000D52A4000D52A4000000000002E
S2144000D000000000000000000000000000000000DB
S2144000E059244000D52A4000D52A4000D52A400051
S2144000F0D52A4000D52A4000D52A400000000000FE
S2144001000000000000000000D52A4000D52A40002C
S214400110D52A40000000000000000000000000005B
S214400120D52A4000D52A4000D52A4000D52A40008E
S214400130D52A40000000000000000000D52A4000FC
S21440014010B5054C237833B9044B13B10448AFF3CC
S21440015000800123237010BD94084020000000005A
S2144001602CAF4000084B10B51BB108480849AFF308
S21440017000800848036803B910BD074B002BFBD02E
S214400180BDE81040184700BF000000002CAF4000FC
S214400190980840202CAF40000000000010B50446F0
S2144001A0104B984780232360636843F001036360E5
S2144001B0636843F010036360636823F08003636002
S2144001C020460021084B9847636823F0020363608B
S2144001D0636823F00403636020460021034B98477E
S2144001E010BD00BFBD034000E903400001044000CD
S2144001F0F8B505460C46164618461449144B98471B
S21440020007462846216800221346DFF85CC0E047D0
S2144002102846216808220F4B984728462168FAB29C
S2144002200D4B98472846216808220C4B984728468D
S214400230216872080A4B984786F0010228462168D2
S21440024002F00102074B9847F8BD00BF00A3E1113A
S214400250AD04400099044000C904400055044000E5
S2144002601504400035044000F904400008B54368D2
S21440027013F0040F05D009680F290AD8054B984794
S21440028008BD0B68032B04D801219940C943014B94
S214400290984708BDE903400010B50446236913F4A7
S2144002A0007FFBD020460F21024B98474FF08073CB
S2144002B0236010BDE90340002AB9002040B27047D1
S2144002C0013B06D110E030B41446013943F6992577
S2144002D02B46026912F0020FF2D011F8013FC360BC
S2144002E0013CF5D1002000E0FD2040B230BC704714
S2144002F02AB9002040B27047013B09D11CE0F0B457
S2144003001546013943F69926FF2740F20124334625
S214400310026912F0020FEFD0C760324601E0013AA0
S2144003200CD003692340A342F9D1836801F8013F0A
S214400330013DECD1002002E0FD2000E0FD2040B26F
S214400340F0BC70472DE9F041044688460E4B98476E
S214400350054620460D4B9847054013D00C4C04F1FB
S214400360E0072368434508D16168294205D0E36821
S21440037040469847636825EA0305BC4202D01034DD
S214400380002DEED1BDE8F08125264000292640000C
S214400390B008402008B502480B21024B984708BDDC
S2144003A000100E404503400008B502481021024B9D
S2144003B0984708BD00140E404503400008B5074B5B
S2144003C0984203D11520064B984708BD054B9842E6
S2144003D002D12A20024B984708BD00BF008000404B
S2144003E05127400000800540436823F47023436053
S2144003F04368090401F470210B434360704700BF13
S214400400436823F07F434360436843EA01614160A9
S214400410704700BF32B100EB8100036B43F001032D
S2144004200363704700EB8100036B23F00103036313
S214400430704700BF32B100EB8100036B43F002030C
S2144004400363704700EB8100036B23F002030363F2
S214400450704700BF042A0AD100EB8100036B23F0EB
S21440046008030363036B43F004030363704752B906
S21440047000EB8100036B23F008030363036B23F058
S214400480040303637047082A05D100EB8100036B21
S21440049043F008030363704700EB81010B6B23F0C6
S2144004A0F0030B630B6B1A430A637047431E1944F1
S2144004B0B1FBF0F0431EFE2B01D880B201E04FF6B0
S2144004C0FF7000B2704700BF6AB110B4144600EB2C
S2144004D081010B6B23F47F430B630A6B42EA0422D1
S2144004E00A63002003E04FF6FF7000B2704700B288
S2144004F05DF8044B704700BF10B400EB8101086BF9
S21440050080B208630C6B44EA036343EA02420A6320
S2144005105DF8044B704700BF012904D18268064B42
S2144005201343836003E08268044B13408360026891
S214400530034B134303607047000010A5FFFFEF5ABC
S214400540080000A54FF40043436070470D4B1B68FE
S214400550B3F1FF3F0AD04FF0800372B683F31188A1
S214400560BFF36F8FBFF34F8F62B6FEE74FF0800347
S21440057072B683F31188BFF36F8FBFF34F8F62B6A7
S214400580FEE700BF0C00402006480068006880F385
S214400590088862B661B6BFF34F8FBFF36F8F00DF38
S2144005A000BF000008ED00E0DFF80C00016841F4F1
S2144005B0700101607047000088ED00E04FF08073E6
S2144005C040F8043C40F8081C054B40F80C3C40F80A
S2144005D0202C6FF0020340F8243C4438704700BF9C
S2144005E04D054000064B19680868B0E8F04F80F3A8
S2144005F00988BFF36F8F4FF0000080F31188704773
S214400600B8C24020704700BF4FF0800372B683F3F5
S2144006101188BFF36F8FBFF34F8F62B60B4A1368D4
S21440062001331360012B0FD1094B1B6813F0FF0FEA
S2144006300AD04FF0800372B683F31188BFF36F8FF2
S214400640BFF34F8F62B6FEE7704700BF0C004020F6
S21440065004ED00E00A4B1B6853B94FF0800372B6B6
S21440066083F31188BFF36F8FBFF34F8F62B6FEE7F9
S214400670013B034A13600BB983F31188704700BFF0
S2144006800C004020EFF30980BFF36F8F154B1A68BC
S2144006901EF0100F08BF20ED108A20E9F04F1060C2
S2144006A04DF8043D4FF0800072B680F31188BFF3DA
S2144006B04F8FBFF36F8F62B601F05AF94FF00000CC
S2144006C080F3118808BC19680868B0E8F04F1EF03F
S2144006D0100F08BFB0EC108A80F30988BFF36F8F05
S2144006E0704700BFB8C24020704700BF08B5EFF360
S2144006F011834FF0800272B682F31188BFF36F8F7A
S214400700BFF34F8F62B6054B984718B14FF08052F3
S214400710034B1A60002383F3118808BD051640007A
S21440072004ED00E0034A044B1A600722043B1A60BB
S214400730704700BFDF93040014E000E000B583B0CC
S214400740254B1A78D2B20192FF221A701B78DBB280
S2144007508DF803309DF8033003F080031F4A137072
S21440076007221F4B1A609DF8033013F0800F10D0FD
S214400770062200E00A469DF803305B00DBB28DF8A7
S21440078003309DF80330511E13F0800FF2D1144B06
S2144007901A60134A13681B0203F4E0631360019B5C
S2144007A0DBB20D4A13700F4B1A6842F460021A60AF
S2144007B01A6842F060421A600B4B984700220B4B77
S2144007C01A600B4B98470B4A136843F0404313603C
S2144007D0094B9847094B984700E400E0A0094020A1
S2144007E0A409402020ED00E0250740000C004020F2
S2144007F0A905400034EF00E0890540004D05400063
S214400800EFF305830F2B11D9124A9B5CDBB2124AD9
S21440081012789A420AD94FF0800372B683F3118851
S214400820BFF36F8FBFF34F8F62B6FEE70B4B1B686D
S21440083003F4E0630A4A126893420AD94FF08003F1
S21440084072B683F31188BFF36F8FBFF34F8F62B6D4
S214400850FEE77047F0E300E0A00940200CED00E022
S214400860A409402038B5044610F0070F02D020F007
S214400870070408340E4B98470E4B1B6823B90E4BA3
S21440088023F007030B4A13600C4B1B681C444BF2C7
S214400890F772944207D8A34205D2064A15681D440B
S2144008A0064B1C6000E00025054B9847284638BD9F
S2144008B0E9154000ACC14020B4094020A8094020BA
S2144008C03917400050B14FF0800372B683F3118859
S2144008D0BFF36F8FBFF34F8F62B6FEE7704700BF20
S2144008E000F1080343604FF0FF328260C36003614B
S2144008F000230360704700BF00230361704700BFBA
S21440090043684B609A688A609A685160996008614B
S214400910036801330360704730B40D68B5F1FF3F9C
S21440092001D1026907E000F1080200E01A46536868
S2144009301C68A542FAD253684B6099608A60516041
S214400940086103680133036030BC7047036942683E
S214400950816891608268416851605A68824201D1DC
S21440096092685A6000220261186801381860704721
S21440097038B504461546026C42B90368002B2BD1A5
S21440098040681B4B9847002363602CE06DB9806835
S214400990184B9847A268236C1344A360626893423E
S2144009A01CD32368A36000201DE0C068114B984705
S2144009B0236C5B42E2681A44E26021688A4202D2B3
S2144009C062681344E360022D0AD1A36B53B1A36B54
S2144009D0013BA363002006E0002004E0002002E084
S2144009E0002000E00020A36B0133A36338BD00BFA6
S2144009F03D1D40002D65400030B583B00190446DEC
S214400A0054B94FF0800372B683F31188BFF36F8FEB
S214400A10BFF34F8F62B6FEE7A26BE36B9A420AD3F0
S214400A204FF0800372B683F31188BFF36F8FBFF326
S214400A304F8F62B6FEE7A26B934217D90A4620460E
S214400A4001A90C4B98470546A36CB3F1FF3F09D16B
S214400A50636A63B104F12400074B9847002818BF27
S214400A60012504E0A36C0133A36400E0002528467A
S214400A7003B030BD710940000D1B4000026C72B1DE
S214400A8010B5C3681344C3604468A34201D30368E7
S214400A90C36003460846D968014B984710BD704767
S214400AA02D654000F8B50446204B9847A36C002BB4
S214400AB018DD1F4D1F4F204E636D33B12046002179
S214400AC0A847012808D1B84706E0636A53B104F145
S214400AD02400B04700B1B847A36C013BA364A36CA5
S214400AE0002BE9DC4FF0FF33A364144B98470F4BC1
S214400AF09847636C002B13DD23691BB910E023690C
S214400B0023B90DE004F110060B4D0A4F3046A847B6
S214400B1000B1B847636C013B6364636C002BEEDC4A
S214400B204FF0FF336364054B9847F8BD0906400015
S214400B30F9094000691C40000D1B40005506400066
S214400B4038B550B94FF0800372B683F31188BFF3BF
S214400B506F8FBFF34F8F62B6FEE704460D46184BC5
S214400B6098472268216CE36B03FB01F3D018606062
S214400B700020A063A2605B1A1344E3604FF0FF338B
S214400B806364A36485B92369ABB104F110000D4BCF
S214400B90984701280FD14FF080520B4B1A60BFF395
S214400BA04F8FBFF36F8F06E004F11000074DA84744
S214400BB004F12400A847064B9847012038BD00BFE3
S214400BC0090640000D1B400004ED00E0E10840002F
S214400BD055064000F8B550B94FF0800372B683F31F
S214400BE01188BFF36F8FBFF34F8F62B6FEE70D4697
S214400BF017460646C1B101FB00F05930144B9847E2
S214400C00044610B905E0246015E000F1580303607F
S214400C1011E04FF0800372B683F31188BFF36F8FF5
S214400C20BFF34F8F62B6FEE75820094B98470446FD
S214400C300028E8D1EDE7E663256420460121054B10
S214400C40984784F85070002363652046F8BD00BF7F
S214400C5065084000410B40002DE9F04F85B00192F9
S214400C6050B94FF0800372B683F31188BFF36F8F8D
S214400C70BFF34F8F62B6FEE7044661B9026C52B1CD
S214400C804FF0800372B683F31188BFF36F8FBFF3C4
S214400C904F8F62B6FEE7022B0DD1E26B012A0AD0D7
S214400CA04FF0800372B683F31188BFF36F8FBFF3A4
S214400CB04F8F62B6FEE71D460091514B984760B98C
S214400CC0019B63B14FF0800372B683F31188BFF384
S214400CD06F8FBFF34F8F62B6FEE7002700E0002716
S214400CE0484EDFF84C91DFF82881B047A26B022DC2
S214400CF002D0E36B9A4233D2204600992A46424BB2
S214400D009847636D73B120462946404B9847012863
S214400D1022D14FF080523E4B1A60BFF34F8FBFF345
S214400D206F8F19E0636A73B104F12400394B98471A
S214400D30012811D14FF08052354B1A60BFF34F8FC8
S214400D40BFF36F8F08E038B14FF08052304B1A60D7
S214400D50BFF34F8FBFF36F8F2F4B984701204BE069
S214400D60019B1BB92C4B9847002045E017B902A8B9
S214400D70C8470127284B9847284B9847B047636C8D
S214400D80B3F1FF3F01D100236364A36CB3F1FF3F8F
S214400D9001D10023A364204B984702A801A9204B09
S214400DA0984718BBB047D4F838B0D4F83CA01A4B94
S214400DB09847D34514D104F110000199194B984730
S214400DC02046194B9847194B984700288DD14FF02D
S214400DD08053C8F80030BFF34F8FBFF36F8F84E760
S214400DE02046114B9847114B98477EE720460E4BBE
S214400DF098470E4B9847002005B0BDE8F08F00BFDF
S214400E00751C40000906400071094000F909400081
S214400E1004ED00E00D1B400055064000E91540007B
S214400E20D51B4000091A4000A50A4000391740006B
S214400E30A51B400070B506465820114B98470446FF
S214400E40D8B10025456005608560C560856301238F
S214400E50C36305644FF0FF334364836480F8506097
S214400E6045651030074EB04704F12400B047204691
S214400E7029462A462B46044DA847204670BD00BF4B
S214400E8065084000E1084000590C400050B94FF05A
S214400E90800372B683F31188BFF36F8FBFF34F8F13
S214400EA062B6FEE72DE9F041044661B9006C50B1E8
S214400EB04FF0800372B683F31188BFF36F8FBFF392
S214400EC04F8F62B6FEE7022B0DD1E06B01280AD0A9
S214400ED04FF0800372B683F31188BFF36F8FBFF372
S214400EE04F8F62B6FEE71E4615468846214B98470A
S214400EF0EFF311874FF0800372B683F31188BFF388
S214400F006F8FBFF34F8F62B6A26B022E02D0E36B99
S214400F109A4223D2204641463246174B9847A36C06
S214400F20B3F1FF3F15D1636D43B120463146134BB5
S214400F309847012814D19DB1286016E0636A8BB1AA
S214400F4004F124000E4B984770B16DB10120286023
S214400F500BE0A36C0133A364012006E0002004E00C
S214400F60012002E0012000E0012087F31188BDE85F
S214400F70F08100BF0108400071094000F9094000B7
S214400F800D1B400050B94FF0800372B683F31188B2
S214400F90BFF36F8FBFF34F8F62B6FEE770B5044660
S214400FA0036C53B14FF0800372B683F31188BFF3DE
S214400FB06F8FBFF34F8F62B6FEE7036863B943682F
S214400FC053B14FF0800372B683F31188BFF36F8F2F
S214400FD0BFF34F8F62B6FEE70D461F4B9847EFF3C1
S214400FE011864FF0800372B683F31188BFF36F8F7C
S214400FF0BFF34F8F62B6A26BE36B9A4221D2A36BCC
S2144010000133A363A36CB3F1FF3F15D1636D43B1C6
S21440101020460021114B9847012814D19DB12860E5
S21440102016E0636A8BB104F124000D4B984770B10B
S2144010306DB1012028600BE0A36C0133A36401204E
S21440104006E0002004E0012002E0012000E001204C
S21440105086F3118870BD00BF01084000F9094000C2
S2144010600D1B40002DE9F04F85B0019250B94FF06E
S214401070800372B683F31188BFF36F8FBFF34F8F31
S21440108062B6FEE7044661B9026C52B14FF0800387
S21440109072B683F31188BFF36F8FBFF34F8F62B67C
S2144010A0FEE798468B46524B984760B9019B63B122
S2144010B04FF0800372B683F31188BFF36F8FBFF390
S2144010C04F8F62B6FEE7002600E00026494DDFF867
S2144010D054A1DFF83091A847A36B002B34D0E568C5
S2144010E020465946444B9847B8F1000F18D1A36B99
S2144010F0013BA363236813B9404B9847606023695C
S214401100F3B104F110003E4B9847012818D14FF038
S21440111080523C4B1A60BFF34F8FBFF36F8F0FE088
S214401120E560636A63B104F12400354B984738B1F3
S2144011304FF08052334B1A60BFF34F8FBFF36F8F21
S214401140314B984701204FE0019B1BB92E4B9847E7
S214401150002049E016B902A8D04701262A4B9847F6
S2144011602A4B9847A847636CB3F1FF3F01D1002351
S2144011706364A36CB3F1FF3F01D10023A364224B09
S214401180984702A801A9224B984738BBA847A76BA7
S2144011901D4B9847E7B923682BB9A84760681D4B95
S2144011A09847194B984704F1240001991A4B9847E1
S2144011B020461A4B98471A4B984700288BD14FF039
S2144011C08053C9F80030BFF34F8FBFF36F8F82E76D
S2144011D02046124B9847124B98477CE720460F4BC9
S2144011E098470F4B9847002005B0BDE8F08F00BFEA
S2144011F0751C4000090640007D0A4000FD1D400069
S2144012000D1B400004ED00E055064000E915400087
S214401210D51B4000951C4000091A4000A50A400016
S21440122039174000A51B400010B40B4B1B682BB170
S2144012300123094C54F8332042B900E00023064A03
S21440124042F8331002EBC303586002E00133082B28
S214401250F0D15DF8044B7047B4C3402070B50446E7
S2144012600E4615460D4B9847636CB3F1FF3F01D1D0
S21440127000236364A36CB3F1FF3F01D10023A36452
S214401280074B9847A36B2BB904F1240031462A46F6
S214401290044B98472046044B984770BD09064000CB
S2144012A0550640008D1A4000A50A4000084B1B68B2
S2144012B01B6823B94FF0FF32064B1A607047044B49
S2144012C01B68DB68DB685A68024B1A60704700BFD1
S2144012D0B4C14020D8C2402010B504460E4B1B680F
S2144012E058600E4B1B68984207D20D4B18680A4B45
S2144012F0196804310B4B984710BD0B4B1868064BCA
S21440130019680431074B9847084B1B689C4201D22A
S214401310064B1C6010BD00BFB8C24020D4C240205F
S214401320D4C1402019094000B4C14020D8C2402052
S2144013302DE9F04F83B00C9FDDF834A00E9D50B9D8
S2144013404FF0800372B683F31188BFF36F8FBFF3FD
S2144013504F8F62B6FEE7092F0AD94FF0800372B668
S21440136083F31188BFF36F8FBFF34F8F62B6FEE7EC
S2144013700190009390460E4635B990005F4B9847D3
S2144013800546002800F0B48058205C4B9847044639
S214401390A0B105632846A5214FEA8802584B9847D6
S2144013A06FF040454544236B03EB850323F0070568
S2144013B0337884F83430337823B90FE02846514BDD
S2144013C0984795E0334604F13402093613F8011F76
S2144013D002F8011F197809B1B342F7D14FF000085F
S2144013E084F83D803E46092F28BF0926E662A6645B
S2144013F0C4F84C8004F104094846DFF854B1D84795
S21440140004F11800D8472461C6F10A06A661646252
S214401410C4F8508084F8548028460199009A3A4B84
S21440142098472060BAF1000F01D0CAF80040374B09
S2144014309847374A136801331360364B1B680BBB1B
S214401440344B1C601368012B26D1334D05F1C80878
S214401450324E2846B04714354545FAD1DFF8F48079
S21440146040462E4DA8472E4E3046A8472D48A84702
S2144014702D48A8472D48A8472D4BC3F800802D4B34
S2144014801E6009E02C4B1B6833B9224B1B68DB6A95
S2144014909F4201D31F4B1C60284A136801331360D8
S2144014A02364E06A26490B680122824013430B609E
S2144014B000EB8000184B03EB80004946214B9847D1
S2144014C0214B98471C4B1B6873B1124B1B68DB6A59
S2144014D09F420BD94FF080521C4B1A60BFF34F8F80
S2144014E0BFF36F8F012005E0012003E0012001E0FB
S2144014F04FF0FF3003B0BDE8F08F00BF65084000F6
S21440150061664000C5084000BD0540000906400031
S214401510E0C24020B8C24020DCC14020E108400084
S214401520E4C24020BCC24020A4C24020F8C24020B2
S214401530B4C14020D4C14020B8C14020DCC24020C5
S2144015400CC34020010940005506400004ED00E071
S214401550F9084000C0C1402010B584B00023009375
S214401560019302930393184818498222184CA047C7
S21440157001281AD1174B9847012816D14FF08003FF
S21440158072B683F31188BFF36F8FBFF34F8F62B687
S2144015904FF0FF32104B1A600122104B1A600022A7
S2144015A00F4B1A600F4B98470BE050B94FF0800333
S2144015B072B683F31188BFF36F8FBFF34F8F62B657
S2144015C0FEE704B010BD00BFE1184000D8A74000B9
S2144015D031134000E51E4000D8C24020B8C140202C
S2144015E0D4C240203D074000024A136801331360CE
S2144015F0704700BFD0C24020014B1868704700BFFC
S214401600D4C240202DE9F0473D4B1B68002B6AD1E1
S2144016103C4B1A6801321A601E68D6B93A4B1B68B2
S2144016201B6853B14FF0800372B683F31188BFF343
S2144016306F8FBFF34F8F62B6FEE7334A1168334B66
S214401640186810601960324A136801331360314BD2
S2144016509847314B1B689E4201D2002437E0002455
S214401660DFF8A490DFF8CC802C4FD9F800301B6808
S21440167023B94FF0FF32284B1A6028E0D9F80030E3
S214401680DB68DD686B689E4202D2234A13601EE028
S21440169005F1040A5046C047AB6A13B105F118007D
S2144016A0C047E86A3B680122824013433B6000EB38
S2144016B080001B4B03EB800051461A4B98471A4B51
S2144016C01B68EA6ADB6A9A4228BF0124CDE7164BBC
S2144016D01B68DB6A03EB8303114A52F82330022B64
S2144016E028BF012404E0114A136801331360002424
S2144016F00F4B1B68002B0CBF20460120BDE8F0872F
S214401700D0C24020D4C24020B4C14020D4C14020E2
S214401710B0C14020AD124000D8C240200CC340208B
S214401720DCC1402001094000B8C24020D8C140205A
S21440173010C340204D0940002DE9F843364B1B6846
S21440174053B94FF0800372B683F31188BFF36F8F9F
S214401750BFF34F8F62B6FEE7304B98472E4B1A6862
S214401760013A1A601B68002B4DD12D4B1B680BBBF2
S21440177000244BE0FB68DC6804F11800B04704F135
S21440178004084046B047E06A2B6801228240134373
S2144017902B6000EB800009EB80004146214B9847C8
S2144017A0214B1B68E26ADB6A9A4208D301221F4B30
S2144017B01A6004E01E4F1F4E1F4DDFF890903B68A6
S2144017C0002BD7D11D4B1B687BB11C4B1B6863B1EC
S2144017D01B4E164D194CB04708B101232B602368A9
S2144017E0013B23602368002BF5D1104B1B68012B6F
S2144017F00BD14FF08052134B1A60BFF34F8FBFF39D
S2144018006F8F012402E0002400E000240E4B98472E
S2144018102046BDE8F88300BFD0C2402009064000FD
S214401820E0C2402001094000B8C2402010C340201A
S214401830BCC240204D0940000CC34020D8C14020C7
S2144018400516400004ED00E055064000DCC140208F
S21440185010B5002829D00446184B1B6853B14FF0EA
S214401860800372B683F31188BFF36F8FBFF34F8F39
S21440187062B6FEE7124B9847124B1B681C44124B4D
S21440188018680430114B984748B90F4B1A681049EE
S2144018900B68D06A0122824023EA02030B6020468E
S2144018A00C4B98470C4B984738B94FF080520B4B2F
S2144018B01A60BFF34F8FBFF36F8F10BDD0C240206A
S2144018C0E9154000D4C24020B8C240204D0940002F
S2144018D00CC34020D91240003917400004ED00E008
S2144018E080B5184D184EDFF88080184F19E0C04775
S2144018F03468B847ACB1164B9847F368DC68201D8F
S214401900144B9847144A1368013B13602B68013BFD
S2144019102B60124B9847206BDFF85090C847204604
S214401920C8472B68002BE2D10D4B1B68012BF8D91A
S2144019304FF080520B4B1A60BFF34F8FBFF36F8F41
S214401940D1E700BFBCC14020A4C2402039174000A8
S214401950090640004D094000E0C2402055064000C0
S214401960DCC1402004ED00E0E9154000C508400019
S214401970204B1B681BB101221F4B1A607047002288
S2144019801D4B1A601D4B1B68B3FA83F3DBB2C3F1E1
S2144019901F0303EB83011A4A52F8212052B94FF035
S2144019A0800372B683F31188BFF36F8FBFF34F8FF8
S2144019B062B6FEE710B4124A9900C81802EB8000DF
S2144019C044686468446002460832944206D16068BF
S2144019D003EB83010A4A02EB8102506003EB830368
S2144019E0074A02EB83035B68DA68064B1A605DF8C9
S2144019F0044B7047D0C2402010C340200CC3402048
S214401A00DCC14020B8C2402038B550B94FF0800302
S214401A1072B683F31188BFF36F8FBFF34F8F62B6F2
S214401A20FEE70C46114D29681831114B9847286837
S214401A300430104B984740B92A680F490B68D06A63
S214401A400122824023EA02030B60B4F1FF3F06D135
S214401A50064B196809480431094B984738BD094B6D
S214401A6018682044084B984738BD00BFB8C240208D
S214401A70190940004D0940000CC34020F8C24020E0
S214401A8001094000D4C24020D912400050B94FF05E
S214401A90800372B683F31188BFF36F8FBFF34F8F07
S214401AA062B6FEE770B515460C46114E31681831E1
S214401AB0104B9847306804300F4B984740B932680F
S214401AC00E490B68D06A0122824023EA02030B606B
S214401AD0012D06D1064B196809480431054B984735
S214401AE070BD084B18682044074B984770BD00BF30
S214401AF0B8C24020010940004D0940000CC34020B8
S214401B00F8C24020D4C24020D912400038B5C3683D
S214401B10DC6854B94FF0800372B683F31188BFF384
S214401B206F8FBFF34F8F62B6FEE704F11805284665
S214401B30144B9847144B1B689BB9251D2846114BE0
S214401B409847E06A11490B680122824013430B60B4
S214401B5000EB80000E4B03EB800029460D4B984768
S214401B6003E00D4829460B4B98470C4B1B68E26A2E
S214401B70DB6A9A4203D90120094B186038BD002021
S214401B8038BD00BF4D094000D0C240200CC34020A5
S214401B90DCC1402001094000BCC24020B8C2402001
S214401BA010C3402050B94FF0800372B683F31188BB
S214401BB0BFF36F8FBFF34F8F62B6FEE7034A1268DC
S214401BC00260034A12684260704700BFB0C14020BE
S214401BD0D4C2402038B550B94FF0800372B683F374
S214401BE01188BFF36F8FBFF34F8F62B6FEE7044690
S214401BF051B94FF0800372B683F31188BFF36F8FED
S214401C00BFF34F8F62B6FEE70D46124B9847124B16
S214401C1019682B68B3F1FF3F13D0104A126820684A
S214401C20904202D0626891420DD26268881A83421E
S214401C300BD9521A13442B602046094B9847002470
S214401C4004E0002402E0012400E00124054B98470C
S214401C50204638BD09064000D4C24020B0C14020CE
S214401C60A51B4000550640000122014B1A607047F4
S214401C7010C34020054B1B6833B1054B1B68002B37
S214401C800CBF02200020704701207047B8C140209A
S214401C90D0C24020002845D038B50346C26A224903
S214401CA00968C96A8A423CD28169002905DB1E4917
S214401CB00968C96AC1F10A01816102EB82021B49C7
S214401CC001EB82025969914227D11C461D1D2846C8
S214401CD0174B984770B9E36A03EB8301134A52F8EF
S214401CE021203AB913480268012101FA03F322EA97
S214401CF0030303600C4B1B68D86AE0620D490A6810
S214401D000123834013430B6000EB8000074B03EB3B
S214401D1080002946084B984738BD034A1268D26A65
S214401D20DA6238BD704700BFB8C24020DCC14020F0
S214401D304D0940000CC340200109400000284ED009
S214401D4038B5294A126890420AD04FF0800372B6DE
S214401D5083F31188BFF36F8FBFF34F8F62B6FEE7F2
S214401D60C26C52B94FF0800372B683F31188BFF34A
S214401D706F8FBFF34F8F62B6FEE7013AC264002A08
S214401D802FD1C16A826C91422BD00446051D28464D
S214401D90164B984768B9E16A01EB8102144B53F839
S214401DA0223033B91348036801228A4023EA0203EB
S214401DB00360A06CE062C0F10A03A3610D4A136899
S214401DC0012404FA00F10B43136000EB8000084B3B
S214401DD003EB80002946084B9847204638BD002034
S214401DE07047002038BD00BFB8C240204D094000B3
S214401DF0DCC140200CC3402001094000054B1B6855
S214401E0023B1044B1A68D36C0133D364014B186872
S214401E10704700BFB8C2402010B5044641602061FC
S214401E2091420AD8D21A83699A4211D20A4B18684C
S214401E30211D0A4B9847002010BD994201D39A4273
S214401E4008D3074B1868211D044B9847002010BD47
S214401E50012010BD012010BD48C340201909400094
S214401E6014C3402070B5144B9847144B1B6803BBF3
S214401E70134D2846134EB047134C2046B047134BDD
S214401E801D60134B1C60052010210022114B984703
S214401E900A4B186050B94FF0800372B683F311882E
S214401EA0BFF36F8FBFF34F8F62B6FEE70A490B4B07
S214401EB098470B4B984770BD0906400044C34020E6
S214401EC018C34020E10840002CC3402014C34020E3
S214401ED048C34020D50B4000F0A7400029124000E0
S214401EE05506400010B584B00F4B98470F4B1B6803
S214401EF063B10923009300230193029303930C4894
S214401F000C494FF482720C4CA04750B94FF08003F6
S214401F1072B683F31188BFF36F8FBFF34F8F62B6ED
S214401F20FEE704B010BD00BF651E400044C340201D
S214401F3075204000F8A740003113400050B94FF0DC
S214401F40800372B683F31188BFF36F8FBFF34F8F52
S214401F5062B6FEE730B585B015460446124A1068AC
S214401F60F0B11A46009101950294052913DC0F4BF7
S214401F709847022807D10C4B18686946089A0023F0
S214401F800B4CA0470DE0084B1868694600221346E4
S214401F90074CA04705E069460023064CA04700E0F2
S214401FA0002005B030BD00BF44C34020751C400033
S214401FB0590C40008D0E40002DE9F04782B0804617
S214401FC0254B98470746254B1B6898423BD22BE04B
S214401FD0DB68D3F800A0DC6804F104094846B04743
S214401FE0636A20469847E369012B1FD1A36953448F
S214401FF0534506D96360246128684946184B98477C
S21440200014E000230093204619465246154CA0473C
S21440201060B94FF0800372B683F31188BFF36F8FB9
S214402020BFF34F8F62B6FEE70F4D104E2B681A680F
S214402030002ACDD10E4A10680B4908601360012370
S214402040C8F8003002E00023C8F80030034B1F6099
S214402050384602B0BDE8F087F915400040C340203E
S214402060190940003D1F400014C340204D09400060
S21440207048C340202DE9F04389B0694C694F6A4D0A
S2144020806A4B1B681A68002A00F0BF80DB681E682F
S214402090674B984704A8674B98478046049B002B9D
S2144020A04DD1B04239D3644B9847604B1B68DB68D0
S2144020B0D3F80C9009F10400604B9847D9F81C30CF
S2144020C0012B1DD1D9F818104846314442463346B4
S2144020D0DFF878C1E047012812D100230093484634
S2144020E019463246564EB04750B94FF0800372B646
S2144020F083F31188BFF36F8FBFF34F8F62B6FEE74F
S214402100D9F824304846984777E04E4B1B681A6803
S214402110B2FA82F25209002600E000222068C8EB9C
S2144021200601494B9847444B9847002865D14FF0E5
S21440213080533B60BFF34F8FBFF36F8F5DE03E4BE6
S21440214098475AE0049B002B06DA06980799059BA9
S2144021509847049B002B50DB069E736913B1301DD5
S214402160364B984703A8334B98478646049A092A25
S21440217043D8DFE802F0050505422A3F0505422A16
S214402180059BB169304619447246DFF8C0C0E04747
S214402190012832D1736A30469847F369012B2CD117
S2144021A0B2690023009330461946059E3244244EB9
S2144021B0B04710BB4FF0800372B683F31188BFF36D
S2144021C06F8FBFF34F8F62B6FEE70599B16151B985
S2144021D04FF0800372B683F31188BFF36F8FBFF35F
S2144021E04F8F62B6FEE73046714472467346174ECE
S2144021F0B04702E03046164B9847206804A90022B4
S2144022001346A84700289DD13AE7094B984704A8AB
S214402210084B98478046049B002B3FF476AF8EE7EA
S21440222044C3402004ED00E06510400014C3402045
S214402230E9154000B91F4000391740004D094000DD
S2144022403D1F400048C340205D124000191E40001C
S214402250C508400010B51048104B984700203E2156
S2144022600F4B98470F4CA0470028FCD00E4B984782
S2144022700E4A0F4B9A620F4CA0470028FCD0022013
S2144022800D4B984700200D4B98470D4B98470248FA
S214402290024B984710BD00BF00A3E111852C4000BB
S2144022A0CD2640002127400031274000013F18201E
S2144022B000060E40412740002D264000652640007F
S2144022C0712B400070B582B0036BC26A1340019315
S2144022D000241A4E1A4DA84214BF002001200501C2
S2144022E00B2C0AD8019A0123A340134220D02B1965
S2144022F056F82330E3B198471AE00E2C0CD8019AD2
S21440230004F10C0101238B40134211D02B1956F8CF
S21440231023306BB198470BE0019A04F10F0101237B
S2144023208B40134204D02B1956F8233003B19847FC
S2144023300134102CD4D102B070BD00BFF4C340208D
S2144023400040064000220260084B4360084B836012
S2144023504FF48023C36002230374012343748374C1
S214402360C274037543758375704700BF00A3E111BF
S214402370808D5B00036B13F080734DD130B4012227
S2144023800260CA7C002A18BF4FF00043CA6842F475
S21440239000044A688D68B2FBF5F2013A120292B226
S2144023A022430C7C240604F0706422434C7C2407B1
S2144023B004F040542243134343600B7D002B14BF6C
S2144023C04FF0807200220B681A434B7D002B14BFDF
S2144023D04FF000730023134383608B7D1B0203F48E
S2144023E0407343F00C03C0F89430124B984206D129
S2144023F017E043F8042F8B42FBD1002016E00E4B2B
S21440240098420CD10D4B03F14001002243F8042FB3
S2144024108B42FBD1002009E0192040B270470020D3
S21440242004E0074B03F140010022E2E740B230BC33
S214402430704700BF00C003400040064030C4402004
S214402440F0C3402008B50248024B984708BD00BF7D
S21440245000C00340C522400008B50248024B9847DA
S21440246008BD00BF00400640C522400000B583B00E
S214402470134B98420CBF28201D20124B9847124BF6
S2144024809B78FF2B00D1FEE7EFF31083B3FA83F37C
S2144024905B09019372B6BFF35F8F00220B4B1A7035
S2144024A00199094A93780133937029B10122074B69
S2144024B01A70BFF35F8F62B603B05DF804FB00BFCF
S2144024C00040064051274000ACC34020100040204A
S2144024D0C0F8841052004FF40043B3FBF2F2013AC6
S2144024E0C2F30D02C0F88C20704700BF01637047EE
S2144024F0416370474264B1F1C05F2FD007D8B1F155
S214402500006F14D0B1F1805F1ED039B97047B1F179
S214402510205F37D004D8B1F1005F29D042607047C1
S214402520B1F1405F2ED0B1F1605F2BD0F6E710B42A
S214402530016F046FD343214019400167416F446FD8
S21440254021400B4043671AE0036F13430367436F12
S214402550416F0B4023EA02034367DFE7036F016FD7
S2144025600B4023EA02030367436F13434367D5E7F1
S214402570036F13430367436F13434367CEE74260DB
S2144025805DF8044B704700BF416412F0010F01D064
S214402590416600E0016612F00A0F01D0016200E0D9
S2144025A0416212F0020F02D0C0F8801004E012F030
S2144025B0080F01D0C0F8841041610160704700BF29
S2144025C010B44164019C0CB1416600E001660BB159
S2144025D0016500E041650AB1016300E041630161C5
S2144025E001605DF8044B704712F0100F12D0C0F82F
S2144025F0B01012F0200F02D0C0F8D41001E0C0F89E
S214402600D01012F0400F02D0C0F8C0107047C0F88B
S214402610C4107047C0F8B410704700BFC36C016464
S214402620704700BFC06C7047806C7047032807D067
S214402630042808D002280CBF4FF48071002104E023
S2144026404FF4407101E04FF40071054A136B23F4D8
S21440265040730B431363936E13F0080FFBD0704721
S21440266000060E40184A136B23F07003184310639D
S214402670936E13F0080F03D009E0013B03D11EE030
S2144026804FF4006310498A6E12F0080FF5D00E4AD8
S214402690136B23F0030343F002031363906E10F0B2
S2144026A0080004D000207047013B03D109E04FF4F6
S2144026B0006305498A6E12F0080FF5D07047012076
S2144026C070470120704700BF00060E4038B10E49E3
S2144026D00B6A0E4A1A400E4B13430B6270470A4869
S2144026E0036A0C4A1A400C4B1343090289B2194339
S2144026F001620246936E13F0010FFBD0024A116A44
S214402700064B0B431362704700060E40FCFFC8FEA4
S21440271002003701FCFFC8FF010037000000370108
S214402720024B986E00F48030704700BF00060E40A3
S2144027304FF00052014B9A62704700BF00060E40B1
S214402740024B986E00F00200704700BF00060E4035
S2144027503F281ED81F280CD8114B9A690123834066
S2144027601A40934217D0012383400D4A136100203C
S21440277070470B4BD3F808212038012383401A407A
S21440278093420AD001238340054AC2F80031002014
S214402790704701207047002070470020704700BFF8
S2144027A000060E4010B4AC2303600B684A68B3FBC7
S2144027B0F2F31B095C1E4FF6FE72944206D8036283
S2144027C08B68436050230360002000E001205DF8E2
S2144027D0044B704740230360704700BF10230360DC
S2144027E0704700BF50230360704700BF816070474A
S2144027F04069C0F34000704701627047436913F078
S214402800020F02D0C161002070470120704700BF10
S2144028102DE9F04F8FB078480021784B9847784B99
S2144028209847784B0BAC93E8070084E807000820ED
S214402830754EB0470820B04774482146744B9847B9
S2144028407248744B98477148734B98476F48734B20
S21440285098476E485321724B98470A20B0477148B4
S2144028604FF0C0513022DFF850B2D8476E486F4D17
S214402870A8471020B047002400946D484FF0004110
S21440288022462346DFF834A2D047009468484FF0EB
S214402890806122462346D047DFF824824046B04730
S2144028A004A8644B9847404604A9634B9847C8F829
S2144028B0644040F2FF13C8F86C300127C8F86470D3
S2144028C0C8F86C30C8F814700223C8F81430404674
S2144028D05A4B98475A48A8471520B0471020B0474B
S2144028E00B20B0470DF1380848F82C4DDFF8D4914E
S2144028F04846544B98470094484641462246524BD9
S214402900DFF8C4C1E047C9F80070484641464F4B1F
S214402910984747484FF080514FF4E002D847DFF8D9
S214402920AC8140464FF000510422D8474848A8475B
S2144029304848A84700944046394622462346D04752
S21440294040463946444B984740463946434B98475D
S214402950DFF87C814046424CA047424B9847404671
S214402960A047414B98474148A8474148A847414857
S214402970414B98474148A8474148A847414B1F709C
S214402980BFF35F8F62B64048A8470A20B0473F4E25
S2144029902448314609223E4B984722483146642215
S2144029A03C4B98473C48A847184839463B4B9847C5
S2144029B03B4C4FF48073C4F88031C02784F80873CA
S2144029C023603848A8474FF48065C4F88050C4F860
S2144029D0805184F80A7313483146334B9847114860
S2144029E032495022324EB0470E4832494022B04714
S2144029F025600FB0BDE8F08F10180E401905400056
S214402A005522400000A8400051274000000A0E40D2
S214402A10A5274000E5274000D5274000DD27400099
S214402A20F9274000000E0E400CA84000352D40000F
S214402A3000140E4045234000752340006D2440009E
S214402A4070A840009D0140000024F4006D02400044
S214402A5090A84000B0A84000ED244000F12440007B
S214402A6001004020692F400085314000D4A8400036
S214402A70F8A8400050180E40450540001CA94000EC
S214402A8040A940001000402068A9400000F8DF013F
S214402A9089254000D124400090A94000ED27400001
S214402AA000E100E0BCA940001D26400000380401BB
S214402AB0E925400000C0DB00F5244000C125400069
S214402AC000C0034000800040F101400000100E406E
S214402AD084B70700FEE700BF08B5194B194A9A426B
S214402AE003D0194B164A9A4204D3184B184A9A42B6
S214402AF010D31BE012490A1D164B9B1A23F0030302
S214402B000433104A134452F8040B41F8040B9A421B
S214402B10F9D1EAE7104B114AD21A22F003021A44BE
S214402B20043B002143F8041B9342FBD10C4A0D4B57
S214402B3023F07F0393600C4B98470C4B9847FEE777
S214402B40000040202CAF400094084020BCC44020E9
S214402B50940840209708402098084020BFC4402052
S214402B6000ED00E000004000DD6440004D334000D2
S214402B703D4B1B6B03F00303012B12D013B1022B0A
S214402B802CD05AE0394B5B6913F0800F04D04FF4D9
S214402B900042374B1A6050E04FF4FA42344B1A600A
S214402BA04BE0314B1B6A13F0807F03D0314A304BE9
S214402BB01A6042E0304A2E4B1A602B4B1B6A03F0D9
S214402BC07003102B02D0202B04D036E02B4A284B23
S214402BD01A6032E0274A264B1A602EE0224B1B6AC8
S214402BE013F0807F03D0234A214B1A6012E0224A1A
S214402BF01F4B1A601C4B1B6A03F07003102B02D04D
S214402C00202B04D006E01D4A194B1A6002E0194AF0
S214402C10174B1A60144B1B6B03F00303022B0CD1AB
S214402C20114A936A926A1248C3F30A41036801FB49
S214402C300333D2B2B3FBF2F303600B4B1B6B03F0D0
S214402C407003702B07D10A4A13680D49A1FB031382
S214402C505B0813607047044B1A6B0549C2F30212B7
S214402C600B68D3400B60704700060E4010180E40AD
S214402C7014004020001BB70000093D0000127A00F7
S214402C80ABAAAAAA144B984204D84FF08062134BC2
S214402C901A607047124B984203D8124A0F4B1A607C
S214402CA07047114B984203D8104A0C4B1A60704735
S214402CB00F4B984203D80F4A084B1A6070470E4B8A
S214402CC0984204D84FF00422044B1A6070470B4ACF
S214402CD0024B1A60704700BFFF2C3101000C0E40BB
S214402CE0FF59620200010004FF86930300020004BD
S214402CF0FFB3C40400030004FFE0F505000500042C
S214402D00094B1B6813B9094A074B1A60064B1B68E8
S214402D101A180749914204DB1046034A10601846C9
S214402D2070474FF0FF3070474CC34020C0E640200D
S214402D30FCFF45202DE9F0478046471E0026DFF879
S214402D4034900A4D0A4CDFF830A008E02046A847E9
S214402D500028FBD0204617F8011FD04701364046D2
S214402D60C8478642F2D3BDE8F08700BFF12740004F
S214402D70000A0E404D674000FD2740002DE9F04711
S214402D8084B000AFDC1D24F00704ADEB040D002436
S214402D903C60082B47DC6D4619B978604FF0010A55
S214402DA012E040F0400078607F2A03D8BA604FF0C7
S214402DB0020A09E002F07F0141F08001B960C2F3E7
S214402DC0C712FA604FF0030A1C461A4E3046394680
S214402DD0194B98473046391D5246184B984730464F
S214402DE029462246164B984730463946154B984753
S214402DF0012C13D42B192946002400254FEA052917
S214402E0049EA14694FEA042813F8014D002544EABC
S214402E10080445EA09058B42F0D101E0002400256C
S214402E202046294601E0002001461037BD46BDE851
S214402E30F08700BF008000406D024000B9024000AD
S214402E40F10240009902400010B5002001460246BB
S214402E500423014CA04710BD7D2D400010B50F2027
S214402E6000210A460523034CA047034B1860C117B0
S214402E7010BD00BF7D2D400078C440202DE9F04FA6
S214402E8087B000AF7860B960D7E91089BE6C002380
S214402E903B61F31D23F00703ADEB030DC7F80CD0E1
S214402EA0002E25DD0DEB060B0023FF200021EE460D
S214402EB0DC46C246CB4600EA0A0801EA0B09C3F1E3
S214402EC02005A3F1200428FA03F809FA05F548EA94
S214402ED0050829FA04F448EA04080EF8018B0C02A7
S214402EE044EA10640502284621460833E645E2D106
S214402EF0BB682BB97B6863F07F00387501250FE00F
S214402F007B6863F03F0038757F2A02D87A750225C1
S214402F1006E062F07F037B75C2F3C712BA750325DD
S214402F200C4C204607F110010B4B9847204607F102
S214402F3014012A46094DA8472046F9683246A84754
S214402F40204607F11001064B98471C37BD46BDE8A2
S214402F50F08F00BF008000406D024000B902400084
S214402F609902400000000000F0B585B083A3D3E985
S214402F700023CDE90023042602961F2000210A469E
S214402F80794CA04700220023CDE9002302961A2060
S214402F9000210A46A0476EA3D3E90023CDE90023CB
S214402FA00296304600210A46A0474FF01F320023C3
S214402FB0CDE9002302961E2000210A46A04748F687
S214402FC070020023CDE90023022702972320012127
S214402FD03246A04760A3D3E90023CDE900230296FA
S214402FE0232001210C22A04755220023CDE90023AF
S214402FF00297232001211222A0470A220023CDE96E
S21440300000230297272001213A46A0478722002323
S214403010CDE900230297272001213246A0476422AB
S2144030200023CDE900230297272001210622A0474E
S2144030304BA3D3E90023CDE90023029627200121A4
S2144030400822A04728220023CDE900230297272004
S21440305001212622A047D8220023CDE900230125BE
S2144030600295282029460B22A04745F640420023D9
S214403070CDE900230296282029460C22A047C922E3
S2144030800023CDE9002302952A2029460B22A0479B
S214403090364A0023CDE90023052302932B202946F8
S2144030A00722A0471E220023CDE9002302952B20AD
S2144030B029460B22A0476D220023CDE90023029526
S2144030C02E20294640F60602A04741F2076200231A
S2144030D0CDE9002302972E20294641F60602A04756
S2144030E040F6A3020023CDE9002302972E2029466E
S2144030F042F60402A04704220023CDE900230296AC
S214403100242029460022A0474FF400520023CDE950
S214403110002302960E2000210A46A04703220023E1
S214403120CDE9002302952D2029460622A0471048C7
S214403130104B9847104A0023CDE9002302963620CC
S21440314029463246A04705B0F0BD00BFAFF3008029
S214403150001244200000000007A9022500000000DD
S2144031601D011A37000000007D2E400007040009AC
S214403170252B4D0001004020380700101100841018
S2144031800000000070B584B02620012100220423F0
S214403190184EB0474FF4AA520023CDE9002304242A
S2144031A00294262001210022134DA84736200121F3
S2144031B000222346B04740F40400002200900192CB
S2144031C0029436200121A8470C4A0023CDE900236B
S2144031D00294362001212822A8474FF490720023FB
S2144031E0CDE900230294362001212822A84704B0C6
S2144031F070BD00BF7D2D40007D2E400020010F0099
S21440320000B585B0C117CDE900010523029308201B
S21440321000210A46024B984705B05DF804FB00BF04
S2144032207D2E400010B584B00446CDE90023069BB1
S2144032300293092001212246014B984704B010BD55
S2144032407D2E400000B585B002220023CDE9002344
S214403250042302930D2000210A46024B984705B0EE
S2144032605DF804FB7D2E40002DE9F04383B0B1F1BC
S21440327000090FDD804600EB0907044601260B4D8A
S214403280C8EB040014F8012B0023009680B2A84730
S214403290BC42F5D109F07F0040F41020044B98471B
S2144032A0044B984703B0BDE8F08300BF253240008A
S2144032B00132400045324000F0B587B0164C174DFD
S2144032C0174E236813B3286800B300214FF6FF72E9
S2144032D00B46B047012819D1124B196812480231E3
S2144032E0124B9847124B9847024601A81149124B79
S2144032F0984701A8114B9847114B1B6803B92360A8
S214403300286800210A460B460E4FB8474FF4FA701D
S2144033100D4B9847D5E700BF50C3402070C34020B0
S2144033206510400054C340208CC4402069324000A1
S2144033305D2E4000E4AA400001674000352D400065
S21440334064C34020590C40005118400070B584B00A
S2144033501B4B984702230093002401940294039445
S214403360184819494FF416722346184DA8470123AA
S2144033700093019402940394154816494FF416722C
S2144033802346A847032300930194029403941248CB
S21440339012494FF416722346A847114E30464FF056
S2144033A00041104DA84730464FF00041A8470E4810
S2144033B00E4B98470E4B9847204604B070BD00BF52
S2144033C011284000213C4000E8A94000311340004D
S2144033D0F1344000F0A94000B9324000FCA940005A
S2144033E000140E40F12440000CAA4000352D400049
S2144033F05915400038B5094D2846094B9847094CA1
S21440340020602846084B9847236818402060074BA2
S21440341018680021064B984738BD00BF000E0E4086
S21440342025264000B4C440202926400060C34020E2
S214403430850F4000F0B5DDF818E0079F089E099D0F
S2144034404FF0230C284CC4F800C0284C4FF0020C18
S21440345084F800C060704FEA202C84F802C04FEA1F
S214403460204C84F803C00016207161710812A071C8
S2144034700814E0710916217262721112A1721114B9
S214403480E1721216227363731A12A2731A14E2734D
S2144034901B1623749DF81430637484F812E04FEAC8
S2144034A02E23E3744FEA2E4323754FEA2E6E84F89C
S2144034B015E0A7753B12E3753B1423763F166776F7
S2144034C0A6763312E3763314237736166677A577D7
S2144034D02B12E3772B1484F820302D1684F82150D5
S2144034E0012384F82230F0BD54C340208CC44020D1
S2144034F02DE9F04F2DED0C8B99B0012000210322D1
S214403500A74B9847A74B18600120A74B9847A74B57
S21440351018600027BA464FF03C099FEDA5CA0D97A4
S2144035200C970B970A9709970897079701230693D6
S21440353098469B469FED90BB9FED91AB9FED929B2F
S2144035409FED938BB0EE48DAF0EE68DAF0EE4C8AF8
S214403550944E0025974C30680028FDD029464FF6FB
S214403560FF722B46A0470128F5D10122924B1A60E4
S214403570924B1B68002B40F09182914B1B68B3F531
S214403580003F00F0DF8014D8B3F5804F00F0828112
S21440359006D8B3F5006F27D0B3F5805F4FD03DE235
S2144035A0B3F5004F00F04F81B3F5803F00F09180B7
S2144035B034E2B3F5801F00F0EF8108D8B3F5802FD2
S2144035C000F08C81B3F5002F00F0FC8126E2B3F5C5
S2144035D0000F00F0BD81B3F1807F00F00982B3F5A3
S2144035E0800F40F01B828FE17648774B9847012248
S2144035F0764B1A600222764B1A60079B33B9754A9F
S2144036000423137001235370079305E0714A042383
S2144036101370002353700793B8F1000F07D06E481D
S2144036204FF080616D4B98474FF0000836E26A488D
S2144036304FF080616A4B98474FF001082EE2694888
S214403640614CA0473320684B9847684B98470246E2
S2144036500B460EA86649674DA8470EA8A047664E7B
S2144036603046A047654B984702460B460EA864492D
S214403670A8470EA8A0473046A04747A3D3E9002353
S214403680CDE9002304260296032000210A465D4B1E
S2144036909847032000210A4633465B4EB047024611
S2144036A00B460EA85949A8470EA8A047BBF1000FE5
S2144036B007D049484FF00041484B98474FF0000B21
S2144036C0ECE145484FF00041454B98474FF0010B21
S2144036D0E4E14F483C4B98470A9B93F001030A931A
S2144036E025D001274B4B1F603B484FF000413B4BDA
S2144036F09847494B1F600EA84849494A3D4DA84740
S2144037000EA8314CA0470EA84649454AA8470EA8E1
S214403710A0470EA8444953EC1B2BA8470EA8A04729
S2144037204FF01E0A4FF03C09DFED218AB6E1002734
S214403730384B1F6028484FF00041294B9847364B7E
S2144037401F60ABE13948204B98470B9B93F0010331
S2144037500B936DD001272F4B1F601F484FF0004141
S2144037601E4B98472C4B1F604FF01E0A4FF03C09EB
S214403770DFED0F8A92E100BF000000400AD71240FA
S2144037800000000000406F403C889D29745EA33FC7
S21440379000000000000059403022CADE0000000051
S2144037A0D50B400060C34020350E400070C340201B
S2144037B0000000006510400050C3402074C3402005
S2144037C0B4C4402038AA4000352D40006CC3402089
S2144037D054C340208CC4402000140E40ED244000CA
S2144037E0F124400048AA400001004020492E4000F5
S2144037F058AA4000016740006CA840005D2E40007B
S2144038006CAA40007D2E40007D2D400080AA4000DE
S2144038109CAA400064C340205CC34020A8AA400045
S21440382052B89640C0AA4000D8AA4000E8AA400035
S2144038300027834B1F6083484FF00041824B9847D8
S214403840824B1F602AE1089B93F00103089313D034
S2144038507F48804B98470127794B1F6079484FF047
S21440386000417D4B9847794B1F604FF01E0A4FF042
S2144038703C09DFED7A8A11E17948764B9847002774
S2144038806F4B1F606F484FF000416F4B98476F4B30
S2144038901F6003E173486F4B9847099B93F0010301
S2144038A0099310D00127664B1F6066484FF00041D1
S2144038B0694B9847654B1F604FF01E0A4FF03C0916
S2144038C0DFED668AEAE000275D4B1F605D484FF0FB
S2144038D000415D4B98475D4B1F60DFE062485D4BA3
S2144038E09847BBF1000F07D056484FF000415A4B5F
S2144038F098474FF0000BD1E052484FF00041524BF2
S21440390098474FF0010BC9E05848524B98470C9BDC
S21440391093F001030C9310D00127494B1F60494890
S2144039204FF080614C4B9847484B1F604FF01E0A43
S2144039304FF03C09FFEE008AB0E00027404B1F6086
S21440394040484FF08061404B9847404B1F60A5E091
S2144039504748404B98470D9B93F001030D9310D07A
S2144039600127374B1F6037484FF000413A4B984786
S214403970364B1F604FF01E0A4FF03C09F7EE008AA8
S2144039808CE000272E4B1F602E484FF000412E4BF8
S21440399098472E4B1F6081E036482E4B9847B8F12B
S2144039A0000F07D027484FF080612B4B98474FF0C9
S2144039B0000873E023484FF08061234B98474FF050
S2144039C001086BE02C48234B9847B8F1000F07D00E
S2144039D01C484FF08061204B98474FF000085DE050
S2144039E018484FF08061184B98474FF0010855E053
S2144039F02248184B9847B8F1000F07D011484FF0AF
S214403A008061154B98474FF0000847E00D484FF04F
S214403A1080610D4B98474FF001083FE018480D4B2A
S214403A209847069B73B3074D28464FF000410A4C13
S214403A30A04728464FF08061A047002306932DE01C
S214403A4064C3402000140E40F12440005CC3402074
S214403A50F4AA4000352D4000ED244000CDCC4C3E2D
S214403A6000AB400010AB40001CAB400028AB400011
S214403A7034AB400040AB40004CAB400058AB40003D
S214403A8064AB4000414D28464FF00041404CA047B3
S214403A9028464FF08061A047012306933D4B1B68A4
S214403AA0002B6DD13C4B1868002869D000214FF69A
S214403AB0FF720B46394CA047012861D1384B1B6832
S214403AC0002B45D0374F384B1868B847374B984788
S214403AD0374B984707EE900AF0EEE77A9FED357A37
S214403AE067EE876AB3EE047A36EE877ABDEEC77A1B
S214403AF017EE106A9FED307A27EE877ADFED2F6A51
S214403B0036EEC77ABDEEC77A17EE105AB3EE097A8C
S214403B1067EE877A9FED2A7A77EE677AFDEEE77A48
S214403B2017EE904A274B1868B847274F53EC1A2B86
S214403B30B84753EC192BDFF8A0C0E04702460B46C7
S214403B4051EC1D0BB847214B98478146012702E0B0
S214403B50412455251426144B19680097A523019334
S214403B6002960395049418EE900A4A465346184C1B
S214403B70A047094B186800210A460B46154CA0473B
S214403B800023074A1360034A1360E1E400140E4022
S214403B90F12440006CC3402070C3402065104000B4
S214403BA074C340205D58400068C34020553D4000E7
S214403BB0895E40000000A042000034420000AA4255
S214403BC00000824258C340209D554000395E400068
S214403BD035344000590C40000559400070B90E4B32
S214403BE001225A6102221A601A46136B13F0010F23
S214403BF0FBD0094B00225A66986E7047064B02224D
S214403C005A611A601A46136B13F0020FFBD0024B30
S214403C1001225A66986E704700C0034000000000BC
S214403C202DE970462DED028B374D28464FF000416A
S214403C30364CA04728464FF08061A0474FF0010918
S214403C409FED338AAA460020324CA047C0F5006557
S214403C500120A047A0F5006407EE905AF8EEE77AF8
S214403C6017EE900A07EE904AF8EEE77A17EE901AAB
S214403C70294B9847294B984721A3D3E90023284E40
S214403C80B047284EB047284B186005FB05F504FBA7
S214403C900454264D2046A847254B9847B04707EE84
S214403CA0900A244B1860F4EEC87AF1EE10FA0BDD59
S214403CB00023214A1360214A106819461A46204CB0
S214403CC0A04701221F4B1A601F4B1B688BB1B9F1EE
S214403CD0000F07D050464FF000411C4B98474FF01E
S214403CE0000906E050464FF00041084B98474FF019
S214403CF001091420164B9847A5E700BFAFF3008094
S214403D00182D4454FB21F93F00140E40F124400086
S214403D1000007A43DD3B40009D3E40005D58400039
S214403D209D554000895E400068C340203958400099
S214403D30E93D400058C340206CC3402060C340204B
S214403D40590C400074C340205CC34020ED24400022
S214403D5051184000224A21F00043934230B587B0C4
S214403D601BDD204A934205DD02460B4601F016FC59
S214403D7007B030BD02AA00F093F800F00300012817
S214403D801ED0022811D010B3DDE90201DDE904237C
S214403D9000F0E2FB01F10041EAE7002400220023A4
S214403DA0009401F0FDF807B030BD0124DDE90201C2
S214403DB0DDE90423009401F0F3F801F10041D7E770
S214403DC0DDE90201DDE9042300F0C6FBD0E701246B
S214403DD0DDE90201DDE90423009401F0E1F8C7E7DC
S214403DE0FB21E93FFFFFEF7F2DE9F041DFF8A88098
S214403DF08AB006460F4600F071FA98F9003004463D
S214403E000D4601332DD03046394601F00DFA40B309
S214403E10002330463946002201F0E6FF4FF001030A
S214403E2000B9034613F0FF0F1BD00121194A0023A7
S214403E3098F800408DE806000893CDE90467CDE980
S214403E4002679CB900220023CDE90623684601F0AC
S214403E500DFAA8B1089BC3B9DDE906010AB0BDE872
S214403E60F081204629460AB0BDE8F08100200021B6
S214403E7002460B4601F070FE022CCDE90601E5D164
S214403E8002F026FB21230360E4E702F021FB089BB7
S214403E900360E1E778AB40001800402000F0CCBA61
S214403EA02DE9F04F964C21F000478FB00B46A742C5
S214403EB00E4640F382801446924A974228DC0029F8
S214403EC085A3D3E9002340F3A38101F067FB8E4B23
S214403ED0804689469F4200F08780012580A3D3E92B
S214403EE0002301F05BFB06460F46404632464946F5
S214403EF03B46C4E9006701F051FB79A3D3E90023B0
S214403F0001F04CFBC4E9020128460FB0BDE8F08F33
S214403F107E4A974240F387807D4A97425ADC3A155C
S214403F208246A2F21645A7EB05518B4601F084FF68
S214403F3001F082FC804689465046424659464B46EA
S214403F40CDE9088901F02AFB0022724B01F0DAFC29
S214403F508B46824601F070FF01F06EFC8046894633
S214403F605046424659464B46CDE90A8901F016FB73
S214403F700022684B01F0C6FC00220023CDE90C016C
S214403F8001F028FF002800F06D8100234046494696
S214403F90002201F01FFF002814BF01230223022045
S214403FA05D492A46009008A80191214600F0F8FB9A
S214403FB0002EC0F24D81054608E00646002100204E
S214403FC01F460025C2E90201C2E9006728460FB035
S214403FD0BDE8F08F02460B4601F0E0FA0025C4E942
S214403FE00201C4E90001F1E73FA3D3E9002301F051
S214403FF0D5FA8046894601253DA3D3E9002301F042
S214404000CDFA06460F464046324649463B46C4E948
S214404010006701F0C3FA36A3D3E9002301F0BEFAE5
S214404020C4E90201D2E701F071F88046894632A31E
S214404030D3E9002301F066FC0022384B01F0B0FAC9
S21440404001F0FAFE054601F0F7FB23A3D3E900236F
S214404050CDE9040101F056FC02460B46404649466F
S21440406001F09CFA82468B461DA3D3E90023DDE986
S214404070040101F047FC1F2DCDE902015046594688
S21440408050DC274B6A1E53F82230BB424AD0DDE94B
S214404090022301F083FA02460B4681468846C4E96D
S2144040A000234A4643465046594601F077FADDE932
S2144040B0022301F073FA002E02460B46C4E902239F
S2144040C084DA08F1004301F10041A0606D42C4F873
S2144040D000906360E16079E700004054FB21F93FBF
S2144040E03163621A61B4D03D0000601A61B4D03DBD
S2144040F07370032E8A19A33B83C8C96D305FE43FB3
S214404100FB21E93F7BD90240FB21F93FFB213941A6
S214404110FFFFEF7F0000704100AC40000000E03F32
S21440412080AB4000DDE9022301F038FA88463F15AF
S2144041308146C8F30A53FB1A102BC4E90001B0DDD0
S2144041405BA3D3E90023DDE9040101F0DBFB8046F5
S21440415089465046424659464B4601F01FFACDE93D
S2144041600601DDE906235046594601F017FA424655
S2144041704B4601F013FA804689464FA3D3E9002305
S214404180DDE9040101F0BEFB42464B4601F006FA6B
S214404190CDE90201DDE90223DDE9060101F0FEF981
S2144041A08846C1F30A510246434681467F1A312F5C
S2144041B0C4E9002378DD42A3D3E90023DDE9040106
S2144041C001F0A0FB8046894642464B46DDE90601A3
S2144041D001F0E4F982468B4652465B46DDE906012D
S2144041E001F0DCF942464B4601F0D8F98046894654
S2144041F035A3D3E90023DDE9040101F083FB424601
S2144042004B4601F0CBF9CDE90201504659463EE710
S21440421001F0C6F9304B804689469F4224D04FF085
S214404220FF352BA3D3E9002301F0BAF906460F4623
S2144042304046324649463B46C4E9006701F0AEF97F
S21440424023A3D3E9002301F0ABF9C4E90201BDE69C
S21440425062684542E36802F1004203F1004362604F
S214404260E360B3E603239AE611A3D3E9002301F003
S21440427097F9804689464FF0FF350FA3D3E90023D0
S21440428001F08EF906460F464046324649463B46C2
S214404290C4E9006701F082F907A3D3E9002301F0DF
S2144042A07FF9C4E9020191E6DDE906ABF9E600BF15
S2144042B00000601A61B4D03D7370032E8A19A33B88
S2144042C00000002E8A19A33BC14920259A837B39DA
S2144042D03163621A61B4D03DFB21F93F2DE9F041CC
S2144042E0534E0C4605460B46B6460E40764500F005
S2144042F085800029024665DD0F1570D0A7F2FF378E
S214404300C3F31303F90743F4801353D4D10F0026A5
S2144043107F10162001EB4303B64652004FF40011BF
S2144043200EEB0104D50F52009C4203DC1B1B04EB32
S214404330010E0E44013805EB43034FEA5101EFD11D
S21440434020254FF000418446734501EB0C0403DC06
S21440435094420ED873450CD1002C04EB010C23DBA1
S214404360F0469442CEEB030300D9013B121B0844AF
S214404370C646D40F013D4FEA510104EB43034FEAD2
S2144043804202E1D1134304D0421C41D000F0010365
S21440439018444008731027491944F3070FD401EB1B
S2144043A007531946BDE8F081BCF1000FD8DB0EF18B
S2144043B00108D6E7D10F520001EB4303A6E740F0D1
S2144043C00040ECE721F000460643EBD039BB0F46F1
S2144043D0D30A153F5205002BFAD0DC021BD400212D
S2144043E05B000131D802FBD5C1F10104C1F12000C8
S2144043F022FA00F027448A4003437FE702460B46F2
S21440440001F080FA2A46234601F0CAF8BDE8F0815A
S21440441001362846BEE7202001240021E8E7024670
S2144044200B4601F0BBF802460B4601F095FBB9E798
S2144044300000F07F0000E03FF8B521F0004703465B
S214404440064620F00045B7F1FF4F2EDCB5F1FF4F92
S2144044502BDCB1F17E5F30D08C1704F0020444EAC6
S214404460D0742DB9022C25D0032C25D13148F8BD67
S214404470BFB1B7F1FF4F2CD0B5F1FF4F11D0ED1BB8
S214404480ED153C2D1DDD2C48012C35D0022C2BD0B3
S214404490002C34D0294901F04DFD294901F048FD52
S2144044A0F8BD002E13DB2448F8BD0846194601F037
S2144044B041FDF8BD2248F8BDF8BDBDE8F84000F023
S2144044C057BF3C351CDA00291ADA0020DCE71D48C5
S2144044D0F8BDB5F1FF4F1BD0022CEBD0032CC5D056
S2144044E0012C1DD00020F8BD144901F023FD0146E3
S2144044F0134801F01DFDF8BD00F10040F8BDF8BDC1
S214404500184601F0D3FE01F039F800F031FFBBE762
S214404510022C0CD0032C08D0012C04D00A48F8BD3D
S2144045204FF00040F8BD0948F8BD0948F8BD0948B5
S214404530F8BD00BFDB0F49C0DB0FC93F2EBDBB3304
S214404540DB0F4940DB0FC9BFDB0F493FDB0F49BFDD
S214404550E4CB16C0E4CB16402DE9F04F21F00047DF
S21440456085B00C469246B7F1795F9B4605466BDAB6
S21440457001F062FC002800F0E7802A4623462846E1
S214404580214601F0BFF98046894673A3D3E900234C
S21440459001F0B8F972A3D3E9002301F001F84246CE
S2144045A04B4601F0AFF970A3D3E9002300F0F6FFC5
S2144045B042464B4601F0A6F96DA3D3E9002300F02E
S2144045C0EFFF42464B4601F09DF96BA3D3E900232B
S2144045D000F0E4FF42464B4601F094F968A3D3E965
S2144045E0002300F0DDFF42464B4601F08BF9CDE953
S2144045F00001404649460022634B01F083F90646D7
S2144046000F4640464946DDE9002301F07BF98046E7
S214404610894652465B462846214601F073F90246D3
S2144046200B464046494600F0B9FF02460B46304628
S214404630394600F0B3FF02460B460020534900F0CF
S214404640ADFF05B0BDE8F08F02460B4601F05AF9C3
S2144046508046894640A3D3E9002301F053F940A39E
S214404660D3E9002300F09CFF42464B4601F04AF94E
S2144046703DA3D3E9002300F091FF42464B4601F0AC
S21440468041F93BA3D3E9002300F08AFF42464B465C
S21440469001F038F938A3D3E9002300F07FFF424603
S2144046A04B4601F02FF936A3D3E9002300F078FFFC
S2144046B04B46424601F026F9354B9F42CDE9000174
S2144046C097DD344B00229F4238DCA7F500130020CC
S2144046D02E4916461F4600F061FFCDE902014046CE
S2144046E049460022284B01F00DF932463B4600F081
S2144046F055FF06460F4640464946DDE9002301F091
S21440470001F98046894652465B462846214601F0D6
S214404710F9F802460B464046494600F03FFF02463F
S2144047200B463046394600F039FF02460B46DDE977
S214404730020100F033FF05B0BDE8F08F164B0026AF
S214404740164FCDE90223CAE70020104905B0BDE860
S214404750F08F00BFAFF30080D43888BEE9FAA8BD1A
S214404760C4B1B4BD9EEE213EAD529C804F7E923E7B
S2144047709015CB19A001FA3E7751C1166CC1563F31
S2144047804C5555555555A53F0000E03F0000F03FBD
S2144047903233D33F0000E93F0000E73F0000D23FFE
S2144047A02DE9F04FADF51D7D1E46844C0C93D31E6F
S2144047B00490013E84FB0304DB17814DC3EBA40346
S2144047C0A6980A9123EAE37355F820000396194603
S2144047D00D93DB4334180990A1EB060503EB430326
S2144047E002EBC303089316D42C4422AEA79F013491
S2144047F008E057F82500013501F01EF8A542E6E925
S214404800020108D0002DF4DA013500200021A5422F
S214404810E6E90201F6D1099B002B31DB74A9099A1F
S2144048200C9B0DF5E47901EBC20B24A9C3EB437353
S214404830039ADB0001EBC2080093039B002BC0F2F7
S2144048409581049B444600260027A3F1080A009B56
S21440485008EB0305FAE9022374E8020101F052F876
S21440486002460B463046394600F09AFEAC420646B3
S2144048700F46EFD1E9E90267D94508F10808DCD1CF
S214404880099A6FF0404310A9134493469B001A1DA3
S2144048900B440E930B4613440F934FEACB039CA94D
S2144048A0BBF1000F1A4606930B4453E9284528DD12
S2144048B00DF5E87A0FAF0AEB02060022414B204680
S2144048C0294601F01FF801F0B7FA00F0B5FF0022C4
S2144048D03D4B8046894601F015F802460B46204679
S2144048E0294600F05BFE01F0A7FA494647F8040F58
S2144048F0404676E9022300F053FE044656450D46F0
S214404900DBD1DDF82090204629464A4600F0B0FC30
S21440491000224FF07F5304460D4600F0F3FF00F0B0
S214404920FBFB0022294B00F0EDFF02460B462046DB
S214404930294600F033FE0D46044601F07DFA8046D7
S21440494000F07AFF0B4602462946204600F026FE37
S2144049504B4606460F46002B40F3F4800BF1FF30E3
S21440496010ABC9F11802C9F1170153F8203043FAC9
S21440497002F404FA02F5A0445D1B10AB43F8205045
S2144049800D41002D2CDDBBF1000F08F1010840F36E
S214404990AB8000230FAA1C4608E0C0F1807108B126
S2144049A00124116001339B4540F39F806FF07F41A7
S2144049B052F8040F002CF0D0091AF1E7ABAAAA2A45
S2144049C008AD40000000703E0000704100002040EE
S2144049D00022B24B01F01CFA002840F0D180054678
S2144049E0304639460022002301F0F4F9002800F052
S2144049F0D9800BF1FF3A099B53450DDC10AB0022E2
S214404A000F9803EB8B0353F8041D834242EA0102DE
S214404A10F9D1002A40F02982099B10AA013B52F89E
S214404A202330002B40F039820E9A012352F8041DA1
S214404A3001330029FAD05B441A460B930BF101036D
S214404A4093424BDC0D9A6FF040490B994FF00008AB
S214404A5013440C9A5A449944CBEB010BD300A79AC3
S214404A6002EB8902079300924FEACB02059224AAF2
S214404A7002EB030B74AA069B02EB030A009B53F857
S214404A80040F009300F0D8FE039B002BEBE80201D6
S214404A9027DB079B0026002703EB0804069B08EB52
S214404AA00305049BA3F1080924AB1C441D44F9E903
S214404AB0022374E8020100F025FF02460B4630460A
S214404AC0394600F06DFDAC4206460F46EFD108F180
S214404AD00808059B9845EAE90267CFD1DDF82CB077
S214404AE0DBE600260027F2E70024089B002B0DDDBE
S214404AF0012B30D0022B09D10BF1FF3210AB10A99D
S214404B0053F82230C3F3150341F82230022D7FF4C8
S214404B1067AF32463B460020614900F03FFD0646FF
S214404B200F46002C3FF45CAF089A00205C4900F02A
S214404B309FFB02460B463046394600F02FFD0646A0
S214404B400F464DE77FF444AF0BF1FF3310AA52F8FF
S214404B502350ED1515E70BF1FF3210AB10A953F8B3
S214404B602230C3F3160341F82230CFE70026002751
S214404B7008F10808E9E90267D9457FF45EAE7FE6AA
S214404B80BBF1000F08F10108C8BF02253FF701AF8F
S214404B9032463B460020424900F000FD02250646CC
S214404BA00F461DE7089B3046394603955A42CDF8D6
S214404BB0148000F05DFB00223A4B04460D4601F09F
S214404BC027F9002800F0E2810022374B204629468C
S214404BD000F098FE089B0BF1010A1833089301F089
S214404BE02BF9064600F028FE00222E4B00F08AFEE7
S214404BF00B4602462946204600F0D0FC01F01CF940
S214404C0010AB43F82B0043F82A60089A002024494A
S214404C1000F02EFBBAF1000F04460D46C0F2D880D5
S214404C200AF1010374AF10AA4FEAC308009302EBDF
S214404C30830907EB080659F8040D00F0FDFD2246EF
S214404C402B4600F05FFE0022174B66E90201204625
S214404C50294600F057FEBE4204460D46EBD1A8F169
S214404C60080B0DF59879CDF818A04FF0000806EB24
S214404C700B03DDF824A0CDF810909B46BAF1000F48
S214404C80C0F2A380B8F1000FC0F29F80DFF81C90FE
S214404C905D460026002700240CE000BF0000E03FF1
S214404CA00000F03F000070410000703E10AD400034
S214404CB0444510DC0134F9E90223F5E8020100F02E
S214404CC021FE02460B463046394600F069FCA245B6
S214404CD006460F46ECDA049BABF1080B03EBC80321
S214404CE008F10108C3E90067009B9845C6D1A69B1A
S214404CF0DDF818A0DDF81090032B3DD8DFE813F060
S214404D00430004000400CF000024009B264609EB25
S214404D10C3052046314675E9022300F041FC0446AF
S214404D204D450E46F5D1039B002B00F0848006F1DE
S214404D3000410A9D2246334669602C60D9E900014D
S214404D4000F02CFCBAF1000F02460B460DDD0124A4
S214404D50013410461946F9E9022300F021FCA24529
S214404D6002460B46F4DA039909B103F100431946AB
S214404D7010460A9BC3E90201059B03F007000DF5A8
S214404D801D7DBDE8F08F009B002209EBC30913464A
S214404D900AF1FF3A1046194679E9022300F000FC72
S214404DA0BAF1FF3F02460B46F2D1039909B103F12F
S214404DB00043104619460A9BC3E90001059B03F0D1
S214404DC007000DF51D7DBDE8F08F0026002782E721
S214404DD0A69B032BD0D8DFE803F0452626020DF528
S214404DE09879002303991A46002900F0B9800A9F53
S214404DF002F10042D9F80400D9F80C1000F1004046
S214404E003B61059B01F10041D9F80040D9F80850B4
S214404E10786003F007007A61F9603C60BD600DF58C
S214404E201D7DBDE8F08F0024039B0DF5987926463E
S214404E30002B7FF47CAF2046224631460A9C334600
S214404E40C4E90001D9E9000100F0A8FBBAF1000F5F
S214404E5002460B463FF77BAF194610460A9BC3E90E
S214404E60020189E7002213469FE7089A10AB039594
S214404E70183A53F82A30CDF814800892002B7FF465
S214404E80C4AE10AB03EB8A0353F8041D0AF1FF3A95
S214404E90183A0029F8D00892B7E60123CBE5BAF1D4
S214404EA0000F9EDD4FEACA0809EB080BDBE90067F6
S214404EB07BE9022330463946CDE9002300F070FBFB
S214404EC004460D4622462B46DDE9000100F066FB0F
S214404ED002460B4630463946264600F061FBCB4537
S214404EE02F46CBE90201CBE90045E1D1BAF1010FEB
S214404EF07FF777AF09EB080A0DF59C7BDAE9006788
S214404F007AE9020132463B46CDE9000100F048FB13
S214404F1004460D4622462B46DDE9000100F03EFBE6
S214404F2032463B46264600F03BFBDA452F46CAE96A
S214404F300201CAE90045E3D108F10804002350AD58
S214404F404C441A461846114674E9022300F028FBE2
S214404F500346AC420A46F5D1039900297FF447AF91
S214404F600A9F1846114604460D46D9E90023D9E95A
S214404F700201C7E90023059BC7E9020103F00700C9
S214404F80C7E904450DF51D7DBDE8F08F204629464E
S214404F9000F052FF10ABDA4643F82B0035E600BF70
S214404FA02DE9F04F994621F0004385B00C46B3F109
S214404FB0795F9046054604DA00F03EFF002800F090
S214404FC083802A4623462846214600F09BFC064618
S214404FD00F462A46234600F095FC82468B463046CE
S214404FE039463DA3D3E9002300F08CFC3CA3D3E92B
S214404FF0002300F0D3FA32463B4600F083FC3AA347
S214405000D3E9002300F0CCFA32463B4600F07AFC67
S21440501037A3D3E9002300F0C1FA32463B4600F0FE
S21440502071FC35A3D3E9002300F0BAFA0E9BCDE914
S21440503000019BB3404649460022334B00F062FCD9
S214405040DDE90023CDE902015046594600F05AFCFE
S21440505002460B46DDE9020100F0A0FA32463B4626
S21440506000F050FC42464B4600F098FA06460F4683
S2144050705046594622A3D3E9002300F043FC02469B
S2144050800B463046394600F08BFA02460B46284619
S214405090214600F083FA05B0BDE8F08FDDE9002335
S2144050A03046394600F02EFC15A3D3E9002300F025
S2144050B075FA52465B4600F025FC2A46234600F029
S2144050C06FFA05B0BDE8F08F2846214605B0BDE82A
S2144050D0F08F00BFAFF300807CD5CF5A3AD9E53D7C
S2144050E0EB9C2B8AE6E55A3E7DFEB157E31DC73E54
S2144050F0D561C119A0012A3FA6F810111111813FB0
S214405100495555555555C53F0000E03F21F00041F3
S214405110704700BF000000002DE9F047C1F30A5871
S2144051200B4604460D46A8F2FF3602468946074619
S214405130132E1DDC002E40DBDFF8E88048FA06F828
S21440514008EA010E5EEA020217D033A3D3E9002331
S21440515000F026FA0022002300F064FE20B1002D65
S21440516040DB29EA0805002738462946BDE8F0878F
S214405170332E06DDB6F5806F2FD020461946BDE8A3
S214405180F087A8F213424FF0FF3A2AFA02FA1AEAD8
S214405190000FF2D020A3D3E9002300F001FA00224A
S2144051A0002300F03FFE0028DED0002D1FDB4D46DA
S2144051B027EA0A0729463846D8E717A3D3E9002343
S2144051C000F0EEF90022002300F02CFE0028CBD0A1
S2144051D0002D19DB00273D46C6E702460B4600F089
S2144051E0DFF9CCE74FF4801333419944B9E7142EE6
S2144051F007D040F233420123C8EB020293401F1906
S214405200D5D309F10109D2E725F0004353EA040754
S214405210AAD00027024DA7E79C7500883CE4377E5D
S2144052200000F0BFFFFF0F00B0FA80F031F0004101
S2144052304FEA501002D108B102207047A1F5801203
S214405240084B9A4201D804207047B1F5801F01D21E
S21440525003207047044B994214BF002000F0010021
S214405260704700BFFFFFDF7F0000F07F00207047E1
S214405270F8B5C1F30A5304460D4617460E461BBB07
S21440528021F0004656EA000330D0354B002200F0AD
S21440529039FB344B04460D469F420E4635DBC1F380
S2144052A00A5340F2FE72363B3B44934215DD22469B
S2144052B02B4627A1D1E9000100F064F924A3D3E9E5
S2144052C0002300F01FFBF8BD40F2FF72934222D04D
S2144052D03B4440F2FE729342E9DC002B07DD224A53
S2144052E02046324042EA03552946F8BDF8BD13F140
S2144052F0350F15DA4CF2503322469F422B461CDCC3
S21440530015A1D1E9000100F03DF913A3D3E900232C
S21440531000F0F8FAF8BD02460B4600F041F9F8BD39
S214405320114803F136010022104B304040EA015547
S2144053302046294600F0E6FAF8BD05A1D1E900016D
S21440534000F020F902A3D3E9002300F0DBFAF8BD11
S2144053509C7500883CE4377E59F3F8C21F6EA50161
S21440536000005043B03CFFFFFFFF0F800000903C22
S2144053702DE9F04120F0004504460646B5F1A14F20
S21440538008DBB5F1FF4F6FDC002840F39980674893
S214405390BDE8F081664B9D4277DCB5F1445F68DB43
S2144053A04FF0FF372146204600F0CCFE01468046AF
S2144053B000F0C8FE5F49054600F0C4FE5E4900F0B6
S2144053C0B9FD294600F0BEFE5C4900F0B3FD294613
S2144053D000F0B8FE5A4900F0ADFD294600F0B2FE96
S2144053E0584900F0A7FD294600F0ACFE564900F0AB
S2144053F0A1FD414600F0A6FE54498046284600F0EE
S214405400A1FE534900F094FD294600F09BFE514909
S21440541000F08EFD294600F095FE4F4900F088FDCD
S214405420294600F08FFE4D4900F082FD294600F0E7
S21440543089FE7B1C0146404645D000F07BFD214658
S21440544000F080FE464B474D53F8271000F070FDA5
S214405450214600F06DFD014655F8270000F068FD36
S214405460002E29DBBDE8F081014600F063FDBDE873
S214405470F0813D4900F05EFD4FF07E5101F01EF890
S21440548000288DD02046BDE8F08100F077F8374BF5
S21440549004469D4222DCA3F5D0039D423DDC0146F6
S2144054A0002700F047FD4FF07E5100F041FD4FF0E1
S2144054B080410546204621E000F10040BDE8F081ED
S2144054C02B48BDE8F08100F035FD214600F03AFE5D
S2144054D00146204600F02CFDBDE8F081254B9D425C
S2144054E014DC4FF07F51022700F022FD4FF07F5131
S2144054F00546204600F026FE4FF07E5100F01AFD8D
S2144055000146284600F0D2FE04464BE701461A48BC
S21440551000F0CCFE0327044644E74FF07E510127B7
S21440552000F006FD05462046E6E700BFDB0FC93F14
S214405530FFFFDF3ED769853C59DA4B3D356B883DEA
S2144055406E2EBA3D2549123EABAAAA3E21A215BDF3
S2144055506BF16E3D95879D3D388EE33DCDCC4C3E00
S21440556058AD400068AD4000CAF24971FFFF973F12
S214405570DB0FC9BFFFFF1B40000080BF20F000408C
S214405580704700BF03F0004321F0004243EA0201A7
S214405590704700BF81F0004102E000BF83F0004347
S2144055A030B54FEA41044FEA430594EA050F08BF79
S2144055B090EA020F1FBF54EA000C55EA020C7FEA3D
S2144055C0645C7FEA655C00F0E2804FEA5454D4EBBA
S2144055D05555B8BF6D420CDD2C4480EA020281EA84
S2144055E0030382EA000083EA010180EA020281EABC
S2144055F00303362D88BF30BD11F0004F4FEA01310E
S2144056004FF4801C4CEA113102D0404261EB41011C
S21440561013F0004F4FEA03334CEA133302D05242A2
S21440562063EB430394EA050F00F0A780A4F101045E
S214405630D5F1200E0DDB02FA0EFC22FA05F2801898
S21440564041F1000103FA0EF2801843FA05F359417E
S2144056500EE0A5F120050EF1200E012A03FA0EFCFD
S21440566028BF4CF0020C43FA05F3C01851EBE37127
S21440567001F0004507D54FF0000EDCF1000C7EEB44
S21440568000006EEB0101B1F5801F1BD3B1F5001F82
S2144056900CD349085FEA30004FEA3C0C04F10104A1
S2144056A04FEA445212F5800F80F09A80BCF1004FCA
S2144056B008BF5FEA500C50F1000041EB045141EA4C
S2144056C0050130BD5FEA4C0C404141EB010111F44D
S2144056D0801FA4F10104E9D191F0000F04BF0146F8
S2144056E00020B1FA81F308BF2033A3F10B03B3F1D6
S2144056F020020CDA0C3208DD02F1140CC2F10C0266
S21440570001FA0CF021FA02F10CE002F11402D8BFC3
S214405710C2F1200C01FA02F120FA0CFCDCBF41EA8F
S2144057200C019040E41AA2BF01EB0451294330BD5E
S2144057306FEA04041F3C1CDA0C340EDC04F114043B
S214405740C4F1200220FA04F001FA02F340EA030012
S21440575021FA04F345EA030130BDC4F10C04C4F158
S214405760200220FA02F001FA04F340EA0300294638
S21440577030BD21FA04F0294630BD94F0000F83F482
S214405780801306BF81F480110134013D4EE77FEA65
S214405790645C18BF7FEA655C29D094EA050F08BFB1
S2144057A090EA020F05D054EA000C04BF1946104692
S2144057B030BD91EA030F1EBF0021002030BD5FEAD6
S2144057C0545C05D14000494128BF41F0004130BDFE
S2144057D014F580043CBF01F5801130BD01F0004552
S2144057E045F0FE4141F470014FF0000030BD7FEAC5
S2144057F0645C1ABF194610467FEA655C1CBF0B46C0
S214405800024650EA013406BF52EA033591EA030FD6
S21440581041F4002130BD00BF90F0000F04BF0021CE
S214405820704730B54FF4806404F132044FF0000501
S2144058304FF0000150E700BF90F0000F04BF00217A
S214405840704730B54FF4806404F1320410F00045E0
S21440585048BF40424FF000013EE700BF42004FEADB
S214405860E2014FEA31014FEA02701FBF12F07F4358
S21440587093F07F4F81F06051704792F0000F14BF55
S21440588093F07F4F704730B54FF4607401F0004599
S21440589021F0004120E700BF50EA010208BF7047F0
S2144058A030B54FF000050AE050EA010208BF7047E5
S2144058B030B511F0004502D5404261EB41014FF44E
