S01A000048657861706F645F436F6E74726F6C6C65722E73726563BE
S21440000028DF4020C5224000C1224000C1224000D7
S214400010C1224000C1224000C12240000000000032
S214400020000000000000000000000000F502400054
S214400030C12240000000000095034000FD03400040
S214400040C1224000C1224000C1224000C1224000DF
S214400050C1224000C1224000C1224000C1224000CF
S214400060C122400000000000ED01400001024000B7
S21440007000000000C1224000C1224000C1224000D2
S2144000801502400000000000C1224000C12240008E
S214400090C1224000C1224000C1224000C12240008F
S2144000A0C1224000C12240000000000000000000C5
S2144000B0000000000D1F400000000000C12240006C
S2144000C0C1224000C1224000C12240000000000082
S2144000D000000000000000000000000000000000DB
S2144000E0211F4000C1224000C1224000C1224000E2
S2144000F0C1224000C1224000C12240000000000052
S2144001000000000000000000C1224000C122400064
S214400110C122400000000000000000000000000077
S214400120C1224000C1224000C1224000C1224000FE
S214400130C12240000000000000000000C122400034
S21440014010B5054C237833B9044B13B10448AFF3CC
S21440015000800123237010BD3004402000000000C2
S214400160FC2A4000084B10B51BB108490848AFF3BD
S21440017000800848036803B910BD074B002BFBD02E
S214400180BDE81040184700BF00000000340440207F
S214400190FC2A4000FC2A4000000000002DE9F04107
S2144001A0044688460E4B9847054620460D4B9847D2
S2144001B0054013D00C4C04F160062368434508D133
S2144001C06168294205D0E36840469847636825EA57
S2144001D00305B44202D01034002DEED1BDE8F081C4
S2144001E0F91F4000FD1F40004C04402008B50A217E
S2144001F00148024B984708BD000E0E409D01400046
S21440020008B50B210148024B984708BD00100E4028
S2144002109D01400008B510210148024B984708BD93
S21440022000140E409D014000012904D18268064B0F
S2144002301343836003E08268044B13408360026884
S214400240034B134303607047000010A5FFFFEF5AAF
S214400250080000A54FF40043436070470D4B1B68F1
S214400260B3F1FF3F0AD04FF0800372B683F3118894
S214400270BFF36F8FBFF34F8F62B6FEE74FF080033A
S21440028072B683F31188BFF36F8FBFF34F8F62B69A
S214400290FEE700BF0000402006480068006880F384
S2144002A0088862B661B6BFF34F8FBFF36F8F00DF2B
S2144002B000BF000008ED00E0DFF80C00016841F4E4
S2144002C0700101607047000088ED00E04FF08073D9
S2144002D040F8043C40F8081C054B40F80C3C40F8FD
S2144002E0202C6FF0020340F8243C4438704700BF8F
S2144002F05D024000064B19680868B0E8F04F80F38E
S2144003000988BFF36F8F4FF0000080F31188704765
S214400310D4BD4020704700BF4FF0800372B683F3D1
S2144003201188BFF36F8FBFF34F8F62B60B4A1368C7
S21440033001331360012B0FD1094B1B6813F0FF0FDD
S2144003400AD04FF0800372B683F31188BFF36F8FE5
S214400350BFF34F8F62B6FEE7704700BF00004020F5
S21440036004ED00E00A4B1B6853B94FF0800372B6A9
S21440037083F31188BFF36F8FBFF34F8F62B6FEE7EC
S214400380013B034A13600BB983F31188704700BFE3
S21440039000004020EFF30980BFF36F8F154B1A68BB
S2144003A01EF0100F08BF20ED108A20E9F04F1060B5
S2144003B04DF8043D4FF0800072B680F31188BFF3CD
S2144003C04F8FBFF36F8F62B601F0BEF84FF000005C
S2144003D080F3118808BC19680868B0E8F04F1EF032
S2144003E0100F08BFB0EC108A80F30988BFF36F8FF8
S2144003F0704700BFD4BD4020704700BF08B5EFF33C
S21440040011834FF0800272B682F31188BFF36F8F6C
S214400410BFF34F8F62B6054B984718B14FF08052E6
S214400420034B1A60002383F3118808BDDD1140009A
S21440043004ED00E0034A044B1A600722043B1A60AE
S214400440704700BFDF93040014E000E000B583B0BF
S214400450254B1A78D2B20192FF221A701B78DBB273
S2144004608DF803309DF8033003F080031F4A137065
S21440047007221F4B1A609DF8033013F0800F10D0F0
S214400480062200E00A469DF803305B00DBB28DF89A
S21440049003309DF80330511E13F0800FF2D1144BF9
S2144004A01A60134A13681B0203F4E0631360019B4F
S2144004B0DBB20D4A13700F4B1A6842F460021A60A2
S2144004C01A6842F060421A600B4B984700220B4B6A
S2144004D01A600B4B98470B4A136843F0404313602F
S2144004E0094B9847094B984700E400E0BC0440207D
S2144004F0C004402020ED00E03504400000004020CD
S214400500B902400034EF00E0990240005D0240002E
S214400510EFF305830F2B11D9124A9B5CDBB2124ACC
S21440052012789A420AD94FF0800372B683F3118844
S214400530BFF36F8FBFF34F8F62B6FEE70B4B1B6860
S21440054003F4E0630A4A126893420AD94FF08003E4
S21440055072B683F31188BFF36F8FBFF34F8F62B6C7
S214400560FEE77047F0E300E0BC0440200CED00E0FE
S214400570C004402038B5044610F0070F02D020F0E3
S214400580070408340E4B98470E4B1B6823B90E4B96
S21440059023F007030B4A13600C4B1B681C44A34212
S2144005A009D24BF2F772944205D8064A15681D44A4
S2144005B0064B1C6000E00025054B9847284638BD92
S2144005C0C1114000C8BC4020D0044020C404402094
S2144005D01113400050B14FF0800372B683F3118878
S2144005E0BFF36F8FBFF34F8F62B6FEE7704700BF13
S2144005F000F1080343604FF0FF328260C36003613E
S21440060000230360704700BF00230361704700BFAC
S21440061043684B609A688A609A685160996008613E
S214400620036801330360704730B40D68B5F1FF3F8F
S21440063001D1026907E000F1080200E01A4653685B
S2144006401C68A542FAD253684B6099608A60516034
S214400650086103680133036030BC70470369426831
S214400660816891608268416851605A68904201D1C1
S21440067082685A6000220261186801381860704724
S21440068038B504461546026C42B90368002B2BD198
S21440069040681B4B9847002363602CE06DB9806828
S2144006A0184B9847A268236C1344A3606268934231
S2144006B01CD32368A36000201DE0C068114B9847F8
S2144006C0236C5B42E2681A44E26021688A4202D2A6
S2144006D062681344E360022D0AD1A36B53B1A36B47
S2144006E0013BA363002006E0002004E0002002E077
S2144006F0002000E00020A36B0133A36338BD00BF99
S214400700151940005D26400030B583B00190446D19
S21440071054B94FF0800372B683F31188BFF36F8FDE
S214400720BFF34F8F62B6FEE7A26BE36B9A420AD3E3
S2144007304FF0800372B683F31188BFF36F8FBFF319
S2144007404F8F62B6FEE7A26B934217D90A4601A9BD
S21440075020460C4B98470546A36CB3F1FF3F09D1A2
S214400760636A63B104F12400074B9847002818BF1A
S214400770012504E0A36C0133A36400E0002528466D
S21440078003B030BD81064000E5164000026C72B1F1
S21440079010B50346C4681444C4604068844201D31C
S2144007A01868D8600846D968014B984710BD70470E
S2144007B05D264000F8B50446204B9847A36C002BB6
S2144007C018DD1F4D1F4F204E636D33B1002120466C
S2144007D0A847012808D1B84706E0636A53B104F138
S2144007E02400B04700B1B847A36C013BA364A36C98
S2144007F0002BE9DC4FF0FF33A364144B98470F4BB4
S2144008009847636C002B13DD23691BB910E02369FE
S21440081023B90DE004F110060B4D0A4F3046A847A9
S21440082000B1B847636C013B6364636C002BEEDC3D
S2144008304FF0FF336364054B9847F8BD19034000FB
S2144008400907400041184000E51640006503400097
S21440085038B550B94FF0800372B683F31188BFF3B2
S2144008606F8FBFF34F8F62B6FEE704460D46184BB8
S21440087098472268216CE36B03FB01F3D018606055
S2144008800020A063A2605B1A1344E3604FF0FF337E
S2144008906364A36485B92369ABB104F110000D4BC2
S2144008A0984701280FD14FF080520B4B1A60BFF388
S2144008B04F8FBFF36F8F06E004F11000074DA84737
S2144008C004F12400A847064B9847012038BD00BFD6
S2144008D019034000E516400004ED00E0F105400035
S2144008E065034000F8B550B94FF0800372B683F305
S2144008F01188BFF36F8FBFF34F8F62B6FEE7064691
S21440090017460D46C1B101FB00F05930144B9847CD
S214400910044610B905E0246015E000F15803036072
S21440092011E04FF0800372B683F31188BFF36F8FE8
S214400930BFF34F8F62B6FEE75820094B98470446F0
S2144009400028E8D1EDE7E663256401212046054B03
S214400950984784F85070002363652046F8BD00BF72
S21440096075054000510840002DE9F04F85B00192D2
S21440097050B94FF0800372B683F31188BFF36F8F80
S214400980BFF34F8F62B6FEE7044661B9026C52B1C0
S2144009904FF0800372B683F31188BFF36F8FBFF3B7
S2144009A04F8F62B6FEE7022B0DD1E26B012A0AD0CA
S2144009B04FF0800372B683F31188BFF36F8FBFF397
S2144009C04F8F62B6FEE71D460091514B984760B97F
S2144009D0019B63B14FF0800372B683F31188BFF377
S2144009E06F8FBFF34F8F62B6FEE7002700E0002709
S2144009F0484EDFF84C91DFF82881B047A26BE36B96
S214400A009A4201D3022D33D12A4600992046424BC2
S214400A109847636D73B129462046404B9847012856
S214400A2022D14FF080523E4B1A60BFF34F8FBFF338
S214400A306F8F19E0636A73B104F12400394B98470D
S214400A40012811D14FF08052354B1A60BFF34F8FBB
S214400A50BFF36F8F08E038B14FF08052304B1A60CA
S214400A60BFF34F8FBFF36F8F2F4B984701204BE05C
S214400A70019B1BB92C4B9847002045E017B902A8AC
S214400A80C8470127284B9847284B9847B047636C80
S214400A90B3F1FF3F01D100236364A36CB3F1FF3F82
S214400AA001D10023A364204B984701A902A8204BFC
S214400AB0984718BBB047D4F838B0D4F83CA01A4B87
S214400AC09847D34514D1019904F11000194B984723
S214400AD02046194B9847194B984700288DD14FF020
S214400AE08053C8F80030BFF34F8FBFF36F8F84E753
S214400AF02046114B9847114B98477EE720460E4BB1
S214400B0098470E4B9847002005B0BDE8F08F00BFD1
S214400B104D18400019034000810640000907400078
S214400B2004ED00E0E516400065034000C1114000BA
S214400B30AD174000E1154000B507400011134000D6
S214400B407D17400050B94FF0800372B683F311888A
S214400B50BFF36F8FBFF34F8F62B6FEE72DE9F041CC
S214400B60044661B9006C50B14FF0800372B683F30F
S214400B701188BFF36F8FBFF34F8F62B6FEE7022B2D
S214400B800DD1E06B01280AD04FF0800372B683F394
S214400B901188BFF36F8FBFF34F8F62B6FEE71E46D6
S214400BA015468846214B9847EFF311874FF0800350
S214400BB072B683F31188BFF36F8FBFF34F8F62B661
S214400BC0A26BE36B9A4201D3022E23D132464146B2
S214400BD02046174B9847A36CB3F1FF3F15D1636D82
S214400BE043B131462046134B9847ADB1012813D147
S214400BF0286016E0636A8BB104F124000E4B9847D8
S214400C0075B168B1012028600BE0A36C0133A36482
S214400C10012006E0002004E0012002E0012000E080
S214400C20012087F31188BDE8F08100BF1105400020
S214400C308106400009074000E51640002DE9F04FC8
S214400C4085B0019250B94FF0800372B683F3118895
S214400C50BFF36F8FBFF34F8F62B6FEE7044661B9AE
S214400C60026C52B14FF0800372B683F31188BFF323
S214400C706F8FBFF34F8F62B6FEE798468B46524B58
S214400C80984760B9019B63B14FF0800372B683F317
S214400C901188BFF36F8FBFF34F8F62B6FEE7002613
S214400CA000E00026494DDFF854A1DFF83091A84710
S214400CB0A36B002B34D0E56859462046444B9847F2
S214400CC0B8F1000F18D1A36B013BA363236813B997
S214400CD0404B984760602369F3B104F110003E4BE7
S214400CE09847012818D14FF080523C4B1A60BFF30A
S214400CF04F8FBFF36F8F0FE0E560636A63B104F117
S214400D002400354B984738B14FF08052334B1A6029
S214400D10BFF34F8FBFF36F8F314B984701204FE0A3
S214400D20019B1BB92E4B9847002049E016B902A8F4
S214400D30D04701262A4B98472A4B9847A847636CCA
S214400D40B3F1FF3F01D100236364A36CB3F1FF3FCF
S214400D5001D10023A364224B984701A902A8224B45
S214400D60984738BBA847A76B1D4B9847E7B92368F9
S214400D702BB9A84760681D4B9847194B984701996F
S214400D8004F124001A4B984720461A4B98471A4BB2
S214400D90984700288BD14FF08053C9F80030BFF3F6
S214400DA04F8FBFF36F8F82E72046124B9847124B08
S214400DB098477CE720460F4B98470F4B98470020B4
S214400DC005B0BDE8F08F00BF4D1840001903400045
S214400DD08D074000D5194000E516400004ED00E0C0
S214400DE065034000C1114000AD1740006D1840003B
S214400DF0E1154000B5074000111340007D17400044
S214400E0010B40B4B1B682BB10123094C54F833200C
S214400E1042B900E00023064A42F8331002EBC3030F
S214400E20586002E00133082BF0D15DF8044B704760
S214400E3068BE402070B504460D4616460D4B984792
S214400E40636CB3F1FF3F01D100236364A36CB3F13D
S214400E50FF3F01D10023A364074B9847A36B2BB9F0
S214400E603246294604F12400044B98472046044B5A
S214400E70984770BD19034000650340006516400062
S214400E80B5074000084B1B681B6823B94FF0FF327C
S214400E90064B1A607047044B1B68DB68DB685A6871
S214400EA0024B1A60704700BFD0BC4020F4BD4020C3
S214400EB010B50F4B1B6858600E4B1B68984207D204
S214400EC00D4B18680A4B196804310C4B984710BDF7
S214400ED004460B4B1868064B19680431074B984775
S214400EE0084B1B689C4201D2064B1C6010BD00BFDD
S214400EF0D4BD4020F0BD4020F0BC40202906400034
S214400F00D0BC4020F4BD40202DE9F04F83B00C9F6C
S214400F10DDF834A00E9D50B94FF0800372B683F3CF
S214400F201188BFF36F8FBFF34F8F62B6FEE7092F6E
S214400F300AD94FF0800372B683F31188BFF36F8FE0
S214400F40BFF34F8F62B6FEE70190009390460E4681
S214400F5035B990005F4B98470546002800F0B480AE
S214400F6058205C4B98470446A0B105634FEA880278
S214400F70A5212846584B98476FF040454544236B7B
S214400F8003EB850323F00705337884F83430337851
S214400F9023B90FE02846514B984795E0334604F175
S214400FA03402093613F8011F02F8011F197809B1F7
S214400FB09E42F7D14FF0000884F83D803E46092F08
S214400FC028BF0926E662A664C4F84C8004F10409EA
S214400FD04846DFF854B1D84704F11800D847246192
S214400FE0C6F10A06A6616462C4F8508084F854804C
S214400FF0009A019928463A4B98472060BAF1000F6C
S21440100001D0CAF80040374B9847374A1368013337
S2144010101360364B1B680BBB344B1C601368012BAC
S21440102026D1334D05F1C808324E2846B047143510
S2144010304545FAD1DFF8F48040462E4DA8472E4E5F
S2144010403046A8472D48A8472D48A8472D48A847CA
S2144010502D4BC3F800802D4B1E6009E02C4B1B68BF
S21440106033B9224B1B68DB6A9F4201D31F4B1C607F
S214401070284A1368013313602364E06A26490B68E4
S2144010800122824013430B6000EB80004946184B18
S21440109003EB8000214B9847214B98471C4B1B681D
S2144010A073B1124B1B68DB6A9F420BD94FF08052DC
S2144010B01C4B1A60BFF34F8FBFF36F8F012005E0C4
S2144010C0012003E0012001E04FF0FF3003B0BDE80F
S2144010D0F08F00BF7505400091274000D5054000C1
S2144010E0CD02400019034000FCBD4020D4BD402046
S2144010F0F8BC4020F105400000BE4020D8BD40204E
S214401100C0BD402014BE4020D0BC4020F0BC402093
S214401110D4BC4020F8BD402028BE402011064000E8
S2144011206503400004ED00E009064000DCBC4020BA
S21440113010B584B000230393029301930093822258
S21440114017491848184CA04701281AD1174B9847FA
S214401150012816D14FF0800372B683F31188BFF38F
S2144011606F8FBFF34F8F62B64FF0FF32104B1A604F
S2144011700122104B1A6000220F4B1A600F4B984703
S2144011800BE050B94FF0800372B683F31188BFF37B
S2144011906F8FBFF34F8F62B6FEE704B010BD00BF3F
S2144011A0082A4000B9144000090F4000BD1A40000C
S2144011B0F4BD4020D4BC4020F0BD40204D0440004B
S2144011C0024A136801331360704700BFECBD4020ED
S2144011D0014B1868704700BFF0BD40202DE9F0472E
S2144011E03D4B1B68002B6AD13C4B1A6801321A6093
S2144011F01E68D6B93A4B1B681B6853B14FF0800344
S21440120072B683F31188BFF36F8FBFF34F8F62B60A
S214401210FEE7334A1168334B186810601960324A4B
S214401220136801331360314B9847314B1B689E421D
S21440123001D2002437E00024DFF8A490DFF8CC8009
S2144012402C4FD9F800301B6823B94FF0FF32284B9B
S2144012501A6028E0D9F80030DB68DD686B689E428B
S21440126002D2234A13601EE005F1040A5046C047E6
S214401270AB6A13B105F11800C047E86A3B68012223
S214401280824013433B6000EB800051461A4B03EB11
S21440129080001A4B98471A4B1B68EA6ADB6A9A42E8
S2144012A028BF0124CDE7164B1B68DB6A03EB83039C
S2144012B0114A52F82330022B28BF012404E0114A79
S2144012C013680133136000240F4B1B68002B0CBFC0
S2144012D020460120BDE8F087ECBD4020F0BD402010
S2144012E0D0BC4020F0BC4020CCBC4020850E400006
S2144012F0F4BD402028BE4020F8BC402011064000E7
S214401300D4BD4020F4BC40202CBE40205D064000AA
S2144013102DE9F843364B1B6853B94FF0800372B63D
S21440132083F31188BFF36F8FBFF34F8F62B6FEE72C
S214401330304B98472E4B1A68013A1A601B68002BB0
S2144013404DD12D4B1B680BBB00244BE0FB68DC6883
S21440135004F11800B04704F104084046B047E06A7C
S2144013602B680122824013432B6000EB80004146ED
S21440137009EB8000214B9847214B1B68E26ADB6AE9
S2144013809A4208D301221F4B1A6004E01E4F1F4E9C
S2144013901F4DDFF890903B68002BD7D11D4B1B6844
S2144013A07BB11C4B1B6863B11B4E164D194CB047A6
S2144013B008B101232B602368013B23602368002B80
S2144013C0F5D1104B1B68012B0BD14FF08052134BBD
S2144013D01A60BFF34F8FBFF36F8F012402E00024E3
S2144013E000E000240E4B98472046BDE8F88300BF37
S2144013F0ECBD402019034000FCBD402011064000D3
S214401400D4BD40202CBE4020D8BD40205D064000C4
S21440141028BE4020F4BC4020DD11400004ED00E032
S21440142065034000F8BC402010B5002829D004468B
S214401430184B1B6853B14FF0800372B683F3118884
S214401440BFF36F8FBFF34F8F62B6FEE7124B9847DE
S214401450124B1B681C44124B18680430114B9847BB
S21440146048B90F4B1A6810490B68D06A012282406F
S21440147023EA02030B6020460C4B98470C4B9847D8
S21440148038B94FF080520B4B1A60BFF34F8FBFF303
S2144014906F8F10BDECBD4020C1114000F0BD402014
S2144014A0D4BD40205D06400028BE4020B10E40001E
S2144014B01113400004ED00E080B5184D184FDFF8DA
S2144014C08080184E19E0C0473C68B047ACB1164B18
S2144014D09847FB68DC68201D144B9847144A1368ED
S2144014E0013B13602B68013B2B60124B9847206BE7
S2144014F0DFF85090C8472046C8472B68002BE2D1FB
S2144015000D4B1B68012BDCD94FF080520B4B1A60F9
S214401510BFF34F8FBFF36F8FD1E700BFD8BC4020DB
S214401520C0BD402011134000190340005D06400036
S214401530FCBD402065034000F8BC402004ED00E0C0
S214401540C1114000D5054000204B1B681BB101224D
S2144015501F4B1A60704700221D4B1A601D4B1B68BC
S214401560B3FA83F3DBB2C3F11F0303EB83011A4ADA
S21440157052F8212052B94FF0800372B683F3118897
S214401580BFF36F8FBFF34F8F62B6FEE710B4124AB9
S2144015909900C81802EB80004468646844600246BC
S2144015A00832944206D1606803EB83010A4A02EB94
S2144015B08102506003EB8303074A02EB83035B68B8
S2144015C0DA68064B1A605DF8044B7047ECBD402065
S2144015D02CBE402028BE4020F8BC4020D4BD402031
S2144015E038B550B94FF0800372B683F31188BFF315
S2144015F06F8FBFF34F8F62B6FEE70C46114D2968DA
S2144016001831114B984728680430104B984740B91A
S2144016102A680F490B68D06A0122824023EA0203F7
S2144016200B60B4F1FF3F06D1064B196804310948F8
S214401630094B984738BD094B18682044084B9847D3
S21440164038BD00BFD4BD4020290640005D0640009E
S21440165028BE402014BE402011064000F0BD402069
S214401660B10E400050B94FF0800372B683F3118834
S214401670BFF36F8FBFF34F8F62B6FEE770B5154668
S2144016800C46114E31681831104B9847306804307C
S2144016900F4B984740B932680E490B68D06A012212
S2144016A0824023EA02030B60012D06D1064B1968DF
S2144016B004310948054B984770BD084B18682044CC
S2144016C0074B984770BD00BFD4BD40201106400070
S2144016D05D06400028BE402014BE4020F0BD40209D
S2144016E0B10E400038B5C368DC6854B94FF080038B
S2144016F072B683F31188BFF36F8FBFF34F8F62B616
S214401700FEE704F118052846144B9847144B1B680F
S2144017109BB9251D2846114B9847E06A11490B682E
S2144017200122824013430B6000EB800029460E4B9B
S21440173003EB80000D4B984703E029460C480B4BC3
S21440174098470C4B1B68E26ADB6A9A4203D9012031
S214401750094B186038BD002038BD00BF5D0640000C
S214401760ECBD402028BE4020F8BC4020110640007A
S214401770D8BD4020D4BD40202CBE402050B94FF0AC
S214401780800372B683F31188BFF36F8FBFF34F8F1A
S21440179062B6FEE7034A12680260034A1268426075
S2144017A0704700BFCCBC4020F0BD402038B550B993
S2144017B04FF0800372B683F31188BFF36F8FBFF389
S2144017C04F8F62B6FEE7044651B94FF0800372B6BB
S2144017D083F31188BFF36F8FBFF34F8F62B6FEE778
S2144017E00D46124B9847124B19682B68B3F1FF3FD2
S2144017F013D0104A12682068904202D06268914224
S2144018000DD26268881A83420BD9521A13442B6051
S2144018102046094B9847002404E0002402E00124B7
S21440182000E00124054B9847204638BD1903400088
S214401830F0BD4020CCBC40207D17400065034000F2
S2144018400122014B1A6070472CBE4020054B1B6896
S21440185033B1054B1B68002B0CBF0220002070479D
S21440186001207047D4BC4020ECBD4020002845D025
S21440187038B50346C26A22490968C96A8A423CD2D8
S2144018808169002905DB1E490968C96AC1F10A0158
S214401890816102EB82021B4901EB82025969914247
S2144018A027D11C461D1D2846174B984770B9E36A3A
S2144018B003EB8301134A52F821203AB913480268D1
S2144018C0012101FA03F322EA030303600C4B1B6871
S2144018D0D86AE0620D490A680123834013430B60CF
S2144018E000EB80002946074B03EB8000084B9847E7
S2144018F038BD034A1268D26ADA6238BD704700BF04
S214401900D4BD4020F8BC40205D06400028BE4020A4
S2144019101106400000284ED038B50346284A1268C3
S21440192090420AD04FF0800372B683F31188BFF31B
S2144019306F8FBFF34F8F62B6FEE7C26C52B94FF05F
S214401940800372B683F31188BFF36F8FBFF34F8F58
S21440195062B6FEE7013AC264C06A996C88422CD0EF
S2144019605ABB1C461D1D2846164B984768B9E16A67
S21440197001EB8102144B53F8223033B91348036805
S21440198001228A4023EA02030360A06CE062C0F1B1
S2144019900A03A3610D4A1368012404FA00F10B43BD
S2144019A0136000EB80002946074B03EB8000084B92
S2144019B09847204638BD00207047002038BD00BFFD
S2144019C0D4BD40205D064000F8BC402028BE4020E4
S2144019D011064000054B1B6823B1044B1A68D36CB4
S2144019E00133D364014B1868704700BFD4BD402014
S2144019F008B54160006191420AD8D21A83699A427A
S214401A0011D2011D0A4B18680A4B9847002008BDA2
S214401A109A4201D2994208D2011D074B1868054BDD
S214401A209847002008BD012008BD012008BD00BF22
S214401A3064BE40202906400030BE402070B5144B9E
S214401A409847144B1B6803BB134D2846134EB047AC
S214401A50134C2046B047134B1D60134B1C600022AE
S214401A6010210520114B98470A4B186050B94FF08B
S214401A70800372B683F31188BFF36F8FBFF34F8F27
S214401A8062B6FEE70A490B4B98470B4B984770BD2A
S214401A901903400060BE402034BE4020F10540009F
S214401AA048BE402030BE402064BE4020E50840008E
S214401AB0202A4000010E40006503400010B584B067
S214401AC00F4B98470F4B1B6863B100230393029359
S214401AD00193092200924FF482720B490B480C4C3A
S214401AE0A04750B94FF0800372B683F31188BFF316
S214401AF06F8FBFF34F8F62B6FEE704B010BD00BFD6
S214401B003D1A400060BE4020282A4000411C40004C
S214401B10090F400050B94FF0800372B683F3118826
S214401B20BFF36F8FBFF34F8F62B6FEE730B585B019
S214401B30154604460F4A1068C0B11A4600910195F2
S214401B40029405290DDC0C4B984702284FF0000301
S214401B500CBF089A1A46694606480068074CA047D4
S214401B6005E000236946064CA04700E0002005B08B
S214401B7030BD00BF60BE40204D184000690940009F
S214401B80450B40002DE9F04782B08046254B9847EC
S214401B900746254B1B6898423BD22BE0DB68D3F8C0
S214401BA000A0DC6804F104094846B047636A204652
S214401BB09847E369012B1FD1A36953449A4506D23F
S214401BC06360246149462868184B984714E0002112
S214401BD000910B4652462046154CA04760B94FF040
S214401BE0800372B683F31188BFF36F8FBFF34F8FB6
S214401BF062B6FEE70F4D104E2B681A68002ACDD10C
S214401C000E4A10680B49086013600123C8F800307C
S214401C1002E00023C8F80030034B1F60384602B08D
S214401C20BDE8F087D11140005CBE40202906400048
S214401C30151B400030BE40205D06400064BE40207C
S214401C402DE9F04389B0684CDFF8CC81674D684B8E
S214401C501B681A68002A00F0B580DB681E68654B72
S214401C60984704A8644B98470746049B002B44D1EA
S214401C70B04230D3614B98475D4B1B68DB68D3F866
S214401C800C9009F104005E4B9847D9F81C30012BA4
S214401C901CD1D9F8181033463A4631444846594F75
S214401CA0B847012812D1002100910B4632464846DB
S214401CB0554EB04750B94FF0800372B683F3118843
S214401CC0BFF36F8FBFF34F8F62B6FEE7D9F824306D
S214401CD0484698476DE00022F11B20684B4B9847DA
S214401CE0464B9847002864D14FF08053C8F80030E0
S214401CF0BFF34F8FBFF36F8F5BE0404B984758E082
S214401D00049B002B06DA07990698059B9847049B88
S214401D10002B4FDB069E73690BB1301DB84703A8F6
S214401D20354B9847049B092B44D8DFE803F005055C
S214401D3005432A3F0505432A059FB1693B460246AF
S214401D40394430462F4FB847012832D1736A30465F
S214401D509847F369012B2CD1B269002100910B46BC
S214401D60059802443046284EB04710BB4FF08003DB
S214401D7072B683F31188BFF36F8FBFF34F8F62B68F
S214401D80FEE70599B16151B94FF0800372B683F30F
S214401D901188BFF36F8FBFF34F8F62B6FEE70346DF
S214401DA0024601443046174EB04702E03046184BD4
S214401DB09847134F00231A4604A92068A8470028CE
S214401DC09ED144E70B4B984704A80B4B98470746D1
S214401DD0049B002B91D10F4B1B681A68B2FA82F213
S214401DE05209002678E700BF60BE40203D0C400008
S214401DF030BE4020C1114000851B400011134000FA
S214401E005D064000F1194000151B4000350E4000AD
S214401E10D505400064BE402004ED00E010B51048F3
S214401E20104B98473E2100200F4B98470F4CA04739
S214401E300028FCD00E4B98470E4A0F4B9A620F4C28
S214401E40A0470028FCD002200D4B984700200D4BA1
S214401E5098470D4B98470248024B984710BD00BF25
S214401E6000A3E1116D244000A5204000F920400069
S214401E7009214000013F182000060E40192140006D
S214401E80012040003D2040005D23400070B582B0F8
S214401E90026BC36A1340019300241A4E1A4DA8429F
S214401EA014BF0020012005010B2C0AD8019A0123FB
S214401EB0A340134220D02B1956F82330E3B198475D
S214401EC01AE00E2C0CD8019A04F10C0101238B4029
S214401ED0134211D02B1956F823306BB198470BE0BC
S214401EE0019A04F10F0101238B40134204D02B19B1
S214401EF056F8233003B198470134102CD4D102B0A1
S214401F0070BD00BFA8BE40200040064008B502484D
S214401F10024B984708BD00BF00C003408D1E4000DE
S214401F2008B50248024B984708BD00BF004006402F
S214401F308D1E400001637047416370474264B1F1B3
S214401F40C05F2FD007D8B1F1006F14D0B1F1805FD9
S214401F501ED039B97047B1F1205F37D004D8B1F1FF
S214401F60005F29D042607047B1F1405F2ED0B1F19A
S214401F70605F2BD0F6E710B4046F016FD343214067
S214401F8019400167446F416F21400B4043671AE098
S214401F90036F13430367416F436F0B4023EA02030B
S214401FA04367DFE7016F036F0B4023EA02030367D3
S214401FB0436F13434367D5E7036F13430367436F8A
S214401FC013434367CEE742605DF8044B704700BF5B
S214401FD010B44164019C0CB1416600E001660BB14F
S214401FE0016500E041650AB1016300E041630161BB
S214401FF001605DF8044B7047C06C7047806C70475A
S214402000032807D0042808D002280CBF4FF480725B
S214402010002204E04FF4407201E04FF4007206499B
S2144020200B6B23F4407313430B630A46936E13F013
S214402030080FFBD0704700BF00060E40184A136BCF
S21440204023F0700318431063936E13F0080F03D009
S21440205009E0013B03D11EE04FF4006310498A6E4D
S21440206012F0080FF5D00E4A136B23F0030343F02B
S21440207002031363906E10F0080004D000207047EF
S214402080013B03D109E04FF4006305498A6E12F024
S214402090080FF5D07047012070470120704700BFF9
S2144020A000060E4038B10E490B6A0E4A1A400E4BD7
S2144020B013430B6270470A48036A090289B20B4A07
S2144020C01A400B4B1343194301620246936E13F0BA
S2144020D0010FFBD0024A116A064B0B43136270474E
S2144020E000060E40FCFFC8FE02003701FCFFC8FF9A
S2144020F00100370000003701024B986E00F4803034
S214402100704700BF00060E404FF00052014B9A62E7
S214402110704700BF00060E40024B986E00F002006B
S214402120704700BF00060E403F281ED81F280CD818
S214402130114B9A6901238340934318D0012303FA35
S21440214000F00D4B18610020704720380A4BD3F83A
S21440215008210123834093430BD0012303FA00F068
S214402160054BC3F80001002070470120704700204F
S21440217070470020704700BF00060E4010B4AC23E6
S21440218003600B684A68B3FBF2F31B095C1E4FF60C
S214402190FE72944206D803628B6843605023036005
S2144021A0002000E001205DF8044B704740230360A8
S2144021B0704700BF10230360704700BF5023036082
S2144021C0704700BF4069C0F34000704701627047E7
S2144021D0436913F0020F02D0C1610020704701200E
S2144021E0704700BF70B586B000212248224B984702
S2144021F0224B9847224B03AE93E8070086E8070039
S2144022000820204DA8470820A8471F4C31462046A6
S2144022101E4B984720461E4B984720461D4B9847D6
S21440222020461D4B9847532120461C4B98470A2072
S214402230A84730224FF0C05119481A4B98471A48C1
S2144022401A4B98471020A847194E0024009423465E
S21440225022464FF000413046164DA847009423468C
S21440226022464FF080613046A8471348134B9847A4
S21440227006B070BD10180E40290240001D1E4000DA
S214402280302A400029214000000A0E407D214000AF
S214402290BD214000AD214000B5214000CD21400089
S2144022A0000E0E403D1F40003C2A4000E124400006
S2144022B000140E40D11F400050180E4055024000FA
S2144022C0FEE700BF08B5194B194A9A4203D0194B8E
S2144022D0164A9A4204D3184B184A9A420FD31AE029
S2144022E01249174B5B1A23F003030433104A134476
S2144022F052F8040B41F8040B9A42F9D1EBE7114B24
S214402300114AD21A22F003021A44043B002143F831
S214402310041B9342FBD10D4A0D4B23F07F03936081
S2144023200C4B98470C4B9847FEE700BF00004020F8
S214402330FC2A40003004402028BF40203004402083
S2144023402F044020340440202BBF402000ED00E006
S214402350000040000D264000A52540003C4B1B6B6E
S21440236003F00303012B0FD013B1022B29D057E003
S214402370384B5B6913F0800F14BF4FF400424FF4A4
S214402380FA42354B1A604BE0314B1B6A13F0807FA4
S21440239003D0324A304B1A6042E0314A2E4B1A6024
S2144023A02B4B1B6A03F07003102B02D0202B04D05B
S2144023B036E02C4A284B1A6032E0284A264B1A60F0
S2144023C02EE0234B1B6A13F0807F03D0234A224B18
S2144023D01A6012E0224A204B1A601D4B1B6A03F01B
S2144023E07003102B02D0202B04D006E01D4A1A4B57
S2144023F01A6002E0194A184B1A60154B1B6B03F023
S2144024000303022B0CD1124A936A926A1248C3F312
S2144024100A41036801FB0333D2B2B3FBF2F3036015
S2144024200B4B1B6B03F07003702B07D10A4A1368E3
S2144024300D49A1FB03135B0813607047044B1B6BED
S2144024400549C3F302120B68D3400B60704700BFC8
S21440245000060E4010180E4004004020001BB70037
S21440246000093D0000127A00ABAAAAAA124B984275
S21440247004D84FF08062114B1A607047104B984258
S21440248003D8104A0D4B1A6070470F4B984203D83A
S2144024900E4A0A4B1A6070470D4B984203D80D4AB5
S2144024A0064B1A6070470C4B984294BF4FF004227C
S2144024B00A4A024B1A607047FF2C3101000C0E404E
S2144024C0FF59620200010004FF86930300020004E5
S2144024D0FFB3C40400030004FFE0F5050005000454
S2144024E02DE9F0478046471E0026DFF834900A4D17
S2144024F00A4CDFF830A008E02046A8470028FBD06A
S21440250017F8011F2046D04701364046C847B0421C
S214402510F2D8BDE8F08700BFC5214000000A0E4053
S21440252041284000D1214000F8B5174D4FF00041FA
S2144025302846164CA0474FF080612846A047012504
S214402540114C124E124F6DB14FF000412046114DC6
S214402550A8474FF080612046A8470F480F4B984742
S21440256000250BE04FF000412046B0474FF0806119
S2144025702046B0473846094B984701254FF47A70B5
S214402580074B9847DFE700BF00140E40391F400056
S214402590A42A4000351F4000A02A4000E124400005
S2144025A02914400070B584B00F4B9847002403941C
S2144025B002940194012300932346C8220B490C48F9
S2144025C00C4DA8470C4E4FF0004130460B4DA847E7
S2144025D04FF080613046A84709480A4B98470A4B57
S2144025E09847204604B070BDE5214000AC2A400024
S2144025F029254000090F400000140E40351F4000BA
S214402600B42A4000E12440003111400070B50F4E1E
S2144026100F4D761BB61018BF002405D0013455F870
S214402620043B9847A642F9D10A4E0B4D761B00F064
S21440263053FAB61018BF002406D0013455F8043BB0
S2144026409847A642F9D170BD70BD00BFE42A40004D
S214402650E42A4000EC2A4000E42A4000844641EA4E
S214402660000313F003036DD1403A41D351F8043BC5
S21440267040F8043B51F8043B40F8043B51F8043B17
S21440268040F8043B51F8043B40F8043B51F8043B07
S21440269040F8043B51F8043B40F8043B51F8043BF7
S2144026A040F8043B51F8043B40F8043B51F8043BE7
S2144026B040F8043B51F8043B40F8043B51F8043BD7
S2144026C040F8043B51F8043B40F8043B51F8043BC7
S2144026D040F8043B51F8043B40F8043B51F8043BB7
S2144026E040F8043B51F8043B40F8043B403ABDD226
S2144026F0303211D351F8043B40F8043B51F8043BC8
S21440270040F8043B51F8043B40F8043B51F8043B86
S21440271040F8043B103AEDD20C3205D351F8043B56
S21440272040F8043B043AF9D2043208D0D2071CBF22
S21440273011F8013B00F8013B01D30B88038060464B
S214402740704700BF082A13D38B078DD010F00303C1
S2144027508AD0C3F10403D21ADB071CBF11F8013B31
S21440276000F8013B80D331F8023B20F8023B7BE780
S214402770043AD9D3013A11F8013B00F8013BF9D2AB
S2144027800B7803704B7843708B7883706046704745
S21440279070B4840746D0541E002A41D0CDB20346BA
S2144027A002E0621EE4B3144603F8015B9A07F8D1D0
S2144027B0032C2ED9CDB245EA05250F2C45EA054512
S2144027C019D903F110022646103E0F2E42F8105C2F
S2144027D042F80C5C42F8085C42F8045C02F11002D5
S2144027E0F2D8A4F1100222F00F0204F00F041032C7
S2144027F0032C13440DD91E462246043A032A46F8B3
S214402800045BFAD8221F22F003020432134404F079
S21440281003042CB1C9B21C4403F8011BA342FBD1EC
S21440282070BC704714460346C2E700BF0000000075
S2144028300000000000000000000000000000000053
S21440284090F800F06DE9024520F007016FF0000CAB
S21440285010F0070491F820F040F049804FF0000453
S2144028606FF00700D1E9002391F840F000F108002E
S21440287082FA4CF2A4FA8CF283FA4CF3A2FA8CF366
S2144028804BBBD1E9022382FA4CF200F10800A4FACD
S2144028908CF283FA4CF3A2FA8CF3E3B9D1E9042321
S2144028A082FA4CF200F10800A4FA8CF283FA4CF358
S2144028B0A2FA8CF37BB9D1E9062301F1200182FA12
S2144028C04CF200F10800A4FA8CF283FA4CF3A2FA18
S2144028D08CF3002BC6D0002A04BF04301A4612BA26
S2144028E0B2FA82F2FDE8024500EBD2007047D1E929
S2144028F0002304F00305C4F100004FEAC50514F0B8
S214402900040F91F840F00CFA05F562EA05021CBF88
S21440291063EA050362464FF00004A9E7024B13B191
S214402920024800F005B87047000000003D2940000E
S214402930002301461A46184600F014B838B5074D2D
S214402940074C2C1BA41005D0013C55F8043D984775
S214402950002CF9D1BDE8384000F0C8B8FC2A400049
S214402960F82A40002DE9F047254C2568D5F848411F
S2144029700646884692469946C4B360681F2817DCC8
S214402980431C76B104EB80050122C5F888A0D4F834
S214402990881182401143022EC4F88811C5F8089168
S2144029A01ED00230636044F820800020BDE8F087E7
S2144029B0144B03B34FF4C870AFF300800446D0B155
S2144029C0D5F84831002780E88800C5F848413846A1
S2144029D00123C4F88871C4F88C71002EE1D0D1E789
S2144029E0D4F88C110A43C4F88C21DAE705F5A674AE
S2144029F0C5F84841C1E74FF0FF30BDE8F08700BF5B
S214402A00D42A40000000000049444C450000000025
S214402A100925630925750925750925750D0A0000E0
S214402A20546D725100000000546D7220537663005E
S214402A3080250000C0000000000800004D454C4CBA
S214402A404154524F4E3930303020424F4F5420532D
S214402A50455155454E43450A5541525420434F4EE5
S214402A60534F4C452053544152544544204F4E20DA
S214402A7055415254340A42617564526174653A2035
S214402A803131353230300A426974733A20380A4E52
S214402A906F2073746F702062697473200A000000A0
S214402AA04F6E0A0046726573680A00005441534BE5
S214402AB0310000004C6967687473206F6E0A2048C6
S214402AC0692053686F76656C204C6F72640A00000C
S214402AD04300000008004020F8B500BFF8BC08BC22
S214402AE09E4670471D29400065014000F8B500BF6E
S210402AF0F8BC08BC9E4670474101400000
S214402AFCAAAAAAAA00093D0000000000F402402041
S214402B0C5C034020C403402000000000000000008E
S214402B1C0000000000000000000000000000000064
S214402B2C000000000000000000000000D02A40001A
S214402B3C0000000000000000000000000000000044
S214402B4C0000000000000000000000000000000034
S214402B5C0000000000000000000000000000000024
S214402B6C0000000000000000000000000000000014
S214402B7C0000000000000000000000000000000004
S214402B8C00000000000000000000000000000000F4
S214402B9C00000000000000000000000000000000E4
S214402BAC01000000000000000E33CDAB34126DE681
S214402BBCECDE05000B0000000000000000000000EA
S214402BCC00000000000000000000000000000000B4
S214402BDC00000000000000000000000000000000A4
S214402BEC0000000000000000000000000000000094
S214402BFC0000000000000000000000000000000084
S8044022C5D4
